{
  "_format": "hh-sol-artifact-1",
  "contractName": "Fare1",
  "sourceName": "contracts/FareCalculator.sol",
  "abi": [
    {
      "inputs": [
        {
          "internalType": "uint256",
          "name": "start_",
          "type": "uint256"
        },
        {
          "internalType": "uint256",
          "name": "stop_",
          "type": "uint256"
        },
        {
          "internalType": "uint256",
          "name": "",
          "type": "uint256"
        },
        {
          "internalType": "address",
          "name": "",
          "type": "address"
        },
        {
          "internalType": "address",
          "name": "",
          "type": "address"
        }
      ],
      "name": "evaluate",
      "outputs": [
        {
          "internalType": "uint256",
          "name": "",
          "type": "uint256"
        }
      ],
      "stateMutability": "pure",
      "type": "function"
    }
  ],
  "bytecode": "0x608060405234801561001057600080fd5b5061029e806100206000396000f3fe608060405234801561001057600080fd5b506004361061002b5760003560e01c8063abb0e06c14610030575b600080fd5b61004a6004803603810190610045919061011e565b610060565b60405161005791906101a8565b60405180910390f35b6000858561006e91906101f2565b600a61007a9190610226565b905095945050505050565b600080fd5b6000819050919050565b61009d8161008a565b81146100a857600080fd5b50565b6000813590506100ba81610094565b92915050565b600073ffffffffffffffffffffffffffffffffffffffff82169050919050565b60006100eb826100c0565b9050919050565b6100fb816100e0565b811461010657600080fd5b50565b600081359050610118816100f2565b92915050565b600080600080600060a0868803121561013a57610139610085565b5b6000610148888289016100ab565b9550506020610159888289016100ab565b945050604061016a888289016100ab565b935050606061017b88828901610109565b925050608061018c88828901610109565b9150509295509295909350565b6101a28161008a565b82525050565b60006020820190506101bd6000830184610199565b92915050565b7f4e487b7100000000000000000000000000000000000000000000000000000000600052601160045260246000fd5b60006101fd8261008a565b91506102088361008a565b92508282039050818111156102205761021f6101c3565b5b92915050565b60006102318261008a565b915061023c8361008a565b925082820261024a8161008a565b91508282048414831517610261576102606101c3565b5b509291505056fea26469706673582212207a78e99e7be3a5ef55d372cb9541b9254d1945b3c02335e3868175a96e8161c564736f6c63430008110033",
  "linkReferences": {},
  "deployedLinkReferences": {}
}