{"contracts/FareCalculator.sol":{"Fare2":{"abi":[{"inputs":[{"internalType":"uint256","name":"start_","type":"uint256"},{"internalType":"uint256","name":"stop_","type":"uint256"},{"internalType":"uint256","name":"occupancy_","type":"uint256"},{"internalType":"address","name":"","type":"address"}],"name":"evaluate","outputs":[{"internalType":"uint256","name":"","type":"uint256"}],"stateMutability":"pure","type":"function"}],"evm":{"bytecode":{"linkReferences":{},"object":"608060405234801561001057600080fd5b50610300806100206000396000f3fe608060405234801561001057600080fd5b506004361061002b5760003560e01c8063743096c114610030575b600080fd5b61004a60048036038101906100459190610160565b610060565b60405161005791906101d6565b60405180910390f35b600080600a9050600086866100759190610220565b9050606485101561009f5780600161008d9190610254565b826100989190610296565b91506100ba565b8060026100ac9190610254565b826100b79190610296565b91505b8192505050949350505050565b600080fd5b6000819050919050565b6100df816100cc565b81146100ea57600080fd5b50565b6000813590506100fc816100d6565b92915050565b600073ffffffffffffffffffffffffffffffffffffffff82169050919050565b600061012d82610102565b9050919050565b61013d81610122565b811461014857600080fd5b50565b60008135905061015a81610134565b92915050565b6000806000806080858703121561017a576101796100c7565b5b6000610188878288016100ed565b9450506020610199878288016100ed565b93505060406101aa878288016100ed565b92505060606101bb8782880161014b565b91505092959194509250565b6101d0816100cc565b82525050565b60006020820190506101eb60008301846101c7565b92915050565b7f4e487b7100000000000000000000000000000000000000000000000000000000600052601160045260246000fd5b600061022b826100cc565b9150610236836100cc565b925082820390508181111561024e5761024d6101f1565b5b92915050565b600061025f826100cc565b915061026a836100cc565b9250828202610278816100cc565b9150828204841483151761028f5761028e6101f1565b5b5092915050565b60006102a1826100cc565b91506102ac836100cc565b92508282019050808211156102c4576102c36101f1565b5b9291505056fea26469706673582212209ebec58915fcc945a1c414e2547cac315e0fac8cd854c42fa20d980c89f5507864736f6c63430008110033","opcodes":"PUSH1 0x80 PUSH1 0x40 MSTORE CALLVALUE DUP1 ISZERO PUSH2 0x10 JUMPI PUSH1 0x0 DUP1 REVERT JUMPDEST POP PUSH2 0x300 DUP1 PUSH2 0x20 PUSH1 0x0 CODECOPY PUSH1 0x0 RETURN INVALID PUSH1 0x80 PUSH1 0x40 MSTORE CALLVALUE DUP1 ISZERO PUSH2 0x10 JUMPI PUSH1 0x0 DUP1 REVERT JUMPDEST POP PUSH1 0x4 CALLDATASIZE LT PUSH2 0x2B JUMPI PUSH1 0x0 CALLDATALOAD PUSH1 0xE0 SHR DUP1 PUSH4 0x743096C1 EQ PUSH2 0x30 JUMPI JUMPDEST PUSH1 0x0 DUP1 REVERT JUMPDEST PUSH2 0x4A PUSH1 0x4 DUP1 CALLDATASIZE SUB DUP2 ADD SWAP1 PUSH2 0x45 SWAP2 SWAP1 PUSH2 0x160 JUMP JUMPDEST PUSH2 0x60 JUMP JUMPDEST PUSH1 0x40 MLOAD PUSH2 0x57 SWAP2 SWAP1 PUSH2 0x1D6 JUMP JUMPDEST PUSH1 0x40 MLOAD DUP1 SWAP2 SUB SWAP1 RETURN JUMPDEST PUSH1 0x0 DUP1 PUSH1 0xA SWAP1 POP PUSH1 0x0 DUP7 DUP7 PUSH2 0x75 SWAP2 SWAP1 PUSH2 0x220 JUMP JUMPDEST SWAP1 POP PUSH1 0x64 DUP6 LT ISZERO PUSH2 0x9F JUMPI DUP1 PUSH1 0x1 PUSH2 0x8D SWAP2 SWAP1 PUSH2 0x254 JUMP JUMPDEST DUP3 PUSH2 0x98 SWAP2 SWAP1 PUSH2 0x296 JUMP JUMPDEST SWAP2 POP PUSH2 0xBA JUMP JUMPDEST DUP1 PUSH1 0x2 PUSH2 0xAC SWAP2 SWAP1 PUSH2 0x254 JUMP JUMPDEST DUP3 PUSH2 0xB7 SWAP2 SWAP1 PUSH2 0x296 JUMP JUMPDEST SWAP2 POP JUMPDEST DUP2 SWAP3 POP POP POP SWAP5 SWAP4 POP POP POP POP JUMP JUMPDEST PUSH1 0x0 DUP1 REVERT JUMPDEST PUSH1 0x0 DUP2 SWAP1 POP SWAP2 SWAP1 POP JUMP JUMPDEST PUSH2 0xDF DUP2 PUSH2 0xCC JUMP JUMPDEST DUP2 EQ PUSH2 0xEA JUMPI PUSH1 0x0 DUP1 REVERT JUMPDEST POP JUMP JUMPDEST PUSH1 0x0 DUP2 CALLDATALOAD SWAP1 POP PUSH2 0xFC DUP2 PUSH2 0xD6 JUMP JUMPDEST SWAP3 SWAP2 POP POP JUMP JUMPDEST PUSH1 0x0 PUSH20 0xFFFFFFFFFFFFFFFFFFFFFFFFFFFFFFFFFFFFFFFF DUP3 AND SWAP1 POP SWAP2 SWAP1 POP JUMP JUMPDEST PUSH1 0x0 PUSH2 0x12D DUP3 PUSH2 0x102 JUMP JUMPDEST SWAP1 POP SWAP2 SWAP1 POP JUMP JUMPDEST PUSH2 0x13D DUP2 PUSH2 0x122 JUMP JUMPDEST DUP2 EQ PUSH2 0x148 JUMPI PUSH1 0x0 DUP1 REVERT JUMPDEST POP JUMP JUMPDEST PUSH1 0x0 DUP2 CALLDATALOAD SWAP1 POP PUSH2 0x15A DUP2 PUSH2 0x134 JUMP JUMPDEST SWAP3 SWAP2 POP POP JUMP JUMPDEST PUSH1 0x0 DUP1 PUSH1 0x0 DUP1 PUSH1 0x80 DUP6 DUP8 SUB SLT ISZERO PUSH2 0x17A JUMPI PUSH2 0x179 PUSH2 0xC7 JUMP JUMPDEST JUMPDEST PUSH1 0x0 PUSH2 0x188 DUP8 DUP3 DUP9 ADD PUSH2 0xED JUMP JUMPDEST SWAP5 POP POP PUSH1 0x20 PUSH2 0x199 DUP8 DUP3 DUP9 ADD PUSH2 0xED JUMP JUMPDEST SWAP4 POP POP PUSH1 0x40 PUSH2 0x1AA DUP8 DUP3 DUP9 ADD PUSH2 0xED JUMP JUMPDEST SWAP3 POP POP PUSH1 0x60 PUSH2 0x1BB DUP8 DUP3 DUP9 ADD PUSH2 0x14B JUMP JUMPDEST SWAP2 POP POP SWAP3 SWAP6 SWAP2 SWAP5 POP SWAP3 POP JUMP JUMPDEST PUSH2 0x1D0 DUP2 PUSH2 0xCC JUMP JUMPDEST DUP3 MSTORE POP POP JUMP JUMPDEST PUSH1 0x0 PUSH1 0x20 DUP3 ADD SWAP1 POP PUSH2 0x1EB PUSH1 0x0 DUP4 ADD DUP5 PUSH2 0x1C7 JUMP JUMPDEST SWAP3 SWAP2 POP POP JUMP JUMPDEST PUSH32 0x4E487B7100000000000000000000000000000000000000000000000000000000 PUSH1 0x0 MSTORE PUSH1 0x11 PUSH1 0x4 MSTORE PUSH1 0x24 PUSH1 0x0 REVERT JUMPDEST PUSH1 0x0 PUSH2 0x22B DUP3 PUSH2 0xCC JUMP JUMPDEST SWAP2 POP PUSH2 0x236 DUP4 PUSH2 0xCC JUMP JUMPDEST SWAP3 POP DUP3 DUP3 SUB SWAP1 POP DUP2 DUP2 GT ISZERO PUSH2 0x24E JUMPI PUSH2 0x24D PUSH2 0x1F1 JUMP JUMPDEST JUMPDEST SWAP3 SWAP2 POP POP JUMP JUMPDEST PUSH1 0x0 PUSH2 0x25F DUP3 PUSH2 0xCC JUMP JUMPDEST SWAP2 POP PUSH2 0x26A DUP4 PUSH2 0xCC JUMP JUMPDEST SWAP3 POP DUP3 DUP3 MUL PUSH2 0x278 DUP2 PUSH2 0xCC JUMP JUMPDEST SWAP2 POP DUP3 DUP3 DIV DUP5 EQ DUP4 ISZERO OR PUSH2 0x28F JUMPI PUSH2 0x28E PUSH2 0x1F1 JUMP JUMPDEST JUMPDEST POP SWAP3 SWAP2 POP POP JUMP JUMPDEST PUSH1 0x0 PUSH2 0x2A1 DUP3 PUSH2 0xCC JUMP JUMPDEST SWAP2 POP PUSH2 0x2AC DUP4 PUSH2 0xCC JUMP JUMPDEST SWAP3 POP DUP3 DUP3 ADD SWAP1 POP DUP1 DUP3 GT ISZERO PUSH2 0x2C4 JUMPI PUSH2 0x2C3 PUSH2 0x1F1 JUMP JUMPDEST JUMPDEST SWAP3 SWAP2 POP POP JUMP INVALID LOG2 PUSH5 0x6970667358 0x22 SLT KECCAK256 SWAP15 0xBE 0xC5 DUP10 ISZERO 0xFC 0xC9 GASLIMIT LOG1 0xC4 EQ 0xE2 SLOAD PUSH29 0xAC315E0FAC8CD854C42FA20D980C89F5507864736F6C63430008110033 "},"methodIdentifiers":{"evaluate(uint256,uint256,uint256,address)":"743096c1"}}}}}