{"contracts/AccessControl.sol":{"AccessControl":{"abi":[{"inputs":[{"internalType":"address","name":"hardwareAddress_","type":"address"},{"internalType":"address","name":"tokenAddress_","type":"address"},{"internalType":"bool","name":"onchainTime_","type":"bool"}],"stateMutability":"nonpayable","type":"constructor"},{"anonymous":false,"inputs":[{"indexed":true,"internalType":"address","name":"userAdrdress_","type":"address"}],"name":"DebtPayed","type":"event"},{"anonymous":false,"inputs":[{"indexed":true,"internalType":"address","name":"fareAddress_","type":"address"}],"name":"NewFare","type":"event"},{"anonymous":false,"inputs":[{"indexed":true,"internalType":"address","name":"previousOwner","type":"address"},{"indexed":true,"internalType":"address","name":"newOwner","type":"address"}],"name":"OwnershipTransferred","type":"event"},{"anonymous":false,"inputs":[{"indexed":true,"internalType":"address","name":"userAddress_","type":"address"},{"indexed":true,"internalType":"uint256","name":"debt","type":"uint256"}],"name":"UserBlocked","type":"event"},{"anonymous":false,"inputs":[{"indexed":true,"internalType":"address","name":"userAddress_","type":"address"}],"name":"UserUnblocked","type":"event"},{"inputs":[{"internalType":"address","name":"fareAddress_","type":"address"}],"name":"addFare","outputs":[],"stateMutability":"nonpayable","type":"function"},{"inputs":[{"internalType":"address","name":"userAddress_","type":"address"}],"name":"addUser","outputs":[],"stateMutability":"nonpayable","type":"function"},{"inputs":[{"internalType":"address","name":"userAdrdress_","type":"address"}],"name":"blockUser","outputs":[],"stateMutability":"nonpayable","type":"function"},{"inputs":[{"internalType":"address","name":"userAddress_","type":"address"},{"internalType":"uint256","name":"timestamp_","type":"uint256"}],"name":"enter","outputs":[],"stateMutability":"nonpayable","type":"function"},{"inputs":[{"internalType":"address","name":"userAddress_","type":"address"}],"name":"enter","outputs":[],"stateMutability":"nonpayable","type":"function"},{"inputs":[{"internalType":"address","name":"userAddress_","type":"address"}],"name":"exit","outputs":[],"stateMutability":"nonpayable","type":"function"},{"inputs":[{"internalType":"address","name":"userAddress_","type":"address"},{"internalType":"uint256","name":"timestamp_","type":"uint256"}],"name":"exit","outputs":[],"stateMutability":"nonpayable","type":"function"},{"inputs":[],"name":"fare","outputs":[{"internalType":"address","name":"","type":"address"}],"stateMutability":"view","type":"function"},{"inputs":[{"internalType":"uint256","name":"timeStamp_","type":"uint256"}],"name":"fare","outputs":[{"internalType":"address","name":"","type":"address"}],"stateMutability":"view","type":"function"},{"inputs":[{"internalType":"uint256","name":"","type":"uint256"}],"name":"fares","outputs":[{"internalType":"contract FareCalculator","name":"","type":"address"}],"stateMutability":"view","type":"function"},{"inputs":[{"internalType":"uint256","name":"","type":"uint256"}],"name":"faresTimeStamp","outputs":[{"internalType":"uint256","name":"","type":"uint256"}],"stateMutability":"view","type":"function"},{"inputs":[{"internalType":"address","name":"userAddress_","type":"address"}],"name":"getUserRegisters","outputs":[{"internalType":"uint256[]","name":"","type":"uint256[]"}],"stateMutability":"view","type":"function"},{"inputs":[],"name":"hardwareAddress","outputs":[{"internalType":"address","name":"","type":"address"}],"stateMutability":"view","type":"function"},{"inputs":[{"internalType":"address","name":"userAddress_","type":"address"}],"name":"isInside","outputs":[{"internalType":"bool","name":"","type":"bool"}],"stateMutability":"view","type":"function"},{"inputs":[{"internalType":"address","name":"userAddress_","type":"address"},{"internalType":"uint256","name":"timestamp_","type":"uint256"}],"name":"isInside","outputs":[{"internalType":"bool","name":"","type":"bool"}],"stateMutability":"view","type":"function"},{"inputs":[],"name":"myDebt","outputs":[{"internalType":"uint256","name":"","type":"uint256"}],"stateMutability":"view","type":"function"},{"inputs":[],"name":"nUsers","outputs":[{"internalType":"uint256","name":"","type":"uint256"}],"stateMutability":"view","type":"function"},{"inputs":[{"internalType":"uint256","name":"timestamp_","type":"uint256"}],"name":"occupancy","outputs":[{"internalType":"uint256","name":"","type":"uint256"}],"stateMutability":"view","type":"function"},{"inputs":[],"name":"occupancy","outputs":[{"internalType":"uint256","name":"","type":"uint256"}],"stateMutability":"view","type":"function"},{"inputs":[{"internalType":"uint256","name":"start_","type":"uint256"},{"internalType":"uint256","name":"end_","type":"uint256"}],"name":"occupancy","outputs":[{"internalType":"uint256","name":"","type":"uint256"}],"stateMutability":"view","type":"function"},{"inputs":[],"name":"onchainTime","outputs":[{"internalType":"bool","name":"","type":"bool"}],"stateMutability":"view","type":"function"},{"inputs":[],"name":"owner","outputs":[{"internalType":"address","name":"","type":"address"}],"stateMutability":"view","type":"function"},{"inputs":[{"internalType":"uint256","name":"amount_","type":"uint256"}],"name":"payDebt","outputs":[],"stateMutability":"nonpayable","type":"function"},{"inputs":[{"internalType":"address","name":"userAddress_","type":"address"}],"name":"register","outputs":[],"stateMutability":"nonpayable","type":"function"},{"inputs":[{"internalType":"address","name":"userAddress_","type":"address"},{"internalType":"uint256","name":"timestamp_","type":"uint256"}],"name":"register","outputs":[],"stateMutability":"nonpayable","type":"function"},{"inputs":[],"name":"renounceOwnership","outputs":[],"stateMutability":"nonpayable","type":"function"},{"inputs":[{"internalType":"uint256","name":"newAutentificator_","type":"uint256"}],"name":"setAutentificator","outputs":[],"stateMutability":"nonpayable","type":"function"},{"inputs":[],"name":"token","outputs":[{"internalType":"contract AccessControlToken","name":"","type":"address"}],"stateMutability":"view","type":"function"},{"inputs":[{"internalType":"address","name":"newOwner","type":"address"}],"name":"transferOwnership","outputs":[],"stateMutability":"nonpayable","type":"function"},{"inputs":[{"internalType":"address","name":"userAdrdress_","type":"address"}],"name":"unblockUser","outputs":[],"stateMutability":"nonpayable","type":"function"},{"inputs":[{"internalType":"uint256","name":"","type":"uint256"}],"name":"users","outputs":[{"internalType":"enum AccessControl.Status","name":"status","type":"uint8"},{"internalType":"uint256","name":"autentificator","type":"uint256"},{"internalType":"bool","name":"isInside","type":"bool"},{"internalType":"uint256","name":"debt","type":"uint256"}],"stateMutability":"view","type":"function"},{"inputs":[{"internalType":"address","name":"","type":"address"}],"name":"usersID","outputs":[{"internalType":"uint256","name":"","type":"uint256"}],"stateMutability":"view","type":"function"}],"evm":{"bytecode":{"linkReferences":{},"object":"60806040523480156200001157600080fd5b506040516200404338038062004043833981810160405281019062000037919062000277565b620000576200004b6200010460201b60201c565b6200010c60201b60201c565b82600760006101000a81548173ffffffffffffffffffffffffffffffffffffffff021916908373ffffffffffffffffffffffffffffffffffffffff16021790555080600760146101000a81548160ff02191690831515021790555081600460006101000a81548173ffffffffffffffffffffffffffffffffffffffff021916908373ffffffffffffffffffffffffffffffffffffffff1602179055506000600381905550505050620002d3565b600033905090565b60008060009054906101000a900473ffffffffffffffffffffffffffffffffffffffff169050816000806101000a81548173ffffffffffffffffffffffffffffffffffffffff021916908373ffffffffffffffffffffffffffffffffffffffff1602179055508173ffffffffffffffffffffffffffffffffffffffff168173ffffffffffffffffffffffffffffffffffffffff167f8be0079c531659141344cd1fd0a4f28419497f9722a3daafe3b4186f6b6457e060405160405180910390a35050565b600080fd5b600073ffffffffffffffffffffffffffffffffffffffff82169050919050565b60006200020282620001d5565b9050919050565b6200021481620001f5565b81146200022057600080fd5b50565b600081519050620002348162000209565b92915050565b60008115159050919050565b62000251816200023a565b81146200025d57600080fd5b50565b600081519050620002718162000246565b92915050565b600080600060608486031215620002935762000292620001d0565b5b6000620002a38682870162000223565b9350506020620002b68682870162000223565b9250506040620002c98682870162000260565b9150509250925092565b613d6080620002e36000396000f3fe608060405234801561001057600080fd5b50600436106101f05760003560e01c80634bc060ed1161010f578063adeb0382116100a2578063df41935011610071578063df419350146105b8578063ef693bed146105e8578063f2fde38b14610604578063fc0c546a14610620576101f0565b8063adeb038214610532578063b42652e914610550578063b6bc4bad1461056c578063d014c01f1461059c576101f0565b8063895449d5116100de578063895449d5146104bc5780638da5cb5b146104da578063947bb341146104f85780639a2041bf14610516576101f0565b80634bc060ed1461044a5780636d705ebb1461047a578063715018a6146104965780637e348b7d146104a0576101f0565b80633bdf8369116101875780633f728455116101565780633f728455146103c4578063421b2d8b146103e2578063421ce89b146103fe5780634420e4861461042e576101f0565b80633bdf83691461033c5780633d134bfc1461035a5780633da013251461038a5780633e19e9e0146103a6576101f0565b806328c3d4b3116101c357806328c3d4b31461028d578063305628af146102bd578063365b98b2146102ed57806339d319e514610320576101f0565b80630b7b1329146101f557806316fc3297146102115780631a9135421461022d57806326a7600d1461025d575b600080fd5b61020f600480360381019061020a9190612f46565b61063e565b005b61022b60048036038101906102269190612fa9565b610718565b005b61024760048036038101906102429190612f46565b610a41565b6040516102549190612ff1565b60405180910390f35b61027760048036038101906102729190612f46565b610ba1565b60405161028491906130ca565b60405180910390f35b6102a760048036038101906102a29190612f46565b610cec565b6040516102b491906130fb565b60405180910390f35b6102d760048036038101906102d29190612fa9565b610d04565b6040516102e491906130fb565b60405180910390f35b61030760048036038101906103029190612fa9565b610d52565b604051610317949392919061318d565b60405180910390f35b61033a60048036038101906103359190612f46565b610dac565b005b610344610f94565b60405161035191906131e1565b60405180910390f35b610374600480360381019061036f9190612fa9565b610fba565b604051610381919061325b565b60405180910390f35b6103a4600480360381019061039f9190612f46565b610ff9565b005b6103ae611210565b6040516103bb9190612ff1565b60405180910390f35b6103cc611223565b6040516103d991906130fb565b60405180910390f35b6103fc60048036038101906103f79190612f46565b611233565b005b61041860048036038101906104139190613276565b6113bd565b60405161042591906130fb565b60405180910390f35b61044860048036038101906104439190612f46565b611405565b005b610464600480360381019061045f9190612fa9565b6114ec565b60405161047191906130fb565b60405180910390f35b610494600480360381019061048f91906132b6565b611510565b005b61049e6115f8565b005b6104ba60048036038101906104b591906132b6565b61160c565b005b6104c46117d8565b6040516104d191906130fb565b60405180910390f35b6104e26117de565b6040516104ef91906131e1565b60405180910390f35b610500611807565b60405161050d91906130fb565b60405180910390f35b610530600480360381019061052b9190612fa9565b611902565b005b61053a611aae565b60405161054791906131e1565b60405180910390f35b61056a60048036038101906105659190612f46565b611abe565b005b610586600480360381019061058191906132b6565b611c88565b6040516105939190612ff1565b60405180910390f35b6105b660048036038101906105b19190612f46565b611dc0565b005b6105d260048036038101906105cd9190612fa9565b611f8b565b6040516105df91906131e1565b60405180910390f35b61060260048036038101906105fd91906132b6565b611ff7565b005b61061e60048036038101906106199190612f46565b6121c2565b005b610628612245565b6040516106359190613317565b60405180910390f35b61064661226b565b60064290806001815401808255809150506001900390600052602060002001600090919091909150556005819080600181540180825580915050600190039060005260206000200160009091909190916101000a81548173ffffffffffffffffffffffffffffffffffffffff021916908373ffffffffffffffffffffffffffffffffffffffff1602179055508073ffffffffffffffffffffffffffffffffffffffff167f7b3d6578175180dc481df4d00e708332d71786e9a44d81b29d2d48174f17c18960405160405180910390a250565b336000600160008373ffffffffffffffffffffffffffffffffffffffff1673ffffffffffffffffffffffffffffffffffffffff168152602001908152602001600020541161079b576040517f08c379a00000000000000000000000000000000000000000000000000000000081526004016107929061338f565b60405180910390fd5b6000600260018060003373ffffffffffffffffffffffffffffffffffffffff1673ffffffffffffffffffffffffffffffffffffffff168152602001908152602001600020546107ea91906133de565b815481106107fb576107fa613412565b5b90600052602060002090600502016004015490508281101561081b578092505b6000831115610a3c576000600460009054906101000a900473ffffffffffffffffffffffffffffffffffffffff1673ffffffffffffffffffffffffffffffffffffffff166323b872dd333073ffffffffffffffffffffffffffffffffffffffff16638da5cb5b6040518163ffffffff1660e01b8152600401602060405180830381865afa1580156108b0573d6000803e3d6000fd5b505050506040513d601f19601f820116820180604052508101906108d49190613456565b876040518463ffffffff1660e01b81526004016108f393929190613483565b6020604051808303816000875af1158015610912573d6000803e3d6000fd5b505050506040513d601f19601f8201168201806040525081019061093691906134e6565b905080610978576040517f08c379a000000000000000000000000000000000000000000000000000000000815260040161096f9061355f565b60405180910390fd5b838261098491906133de565b600260018060003373ffffffffffffffffffffffffffffffffffffffff1673ffffffffffffffffffffffffffffffffffffffff168152602001908152602001600020546109d191906133de565b815481106109e2576109e1613412565b5b9060005260206000209060050201600401819055503373ffffffffffffffffffffffffffffffffffffffff167f7cd5f45a99992acf8a3c4f46fbc2636e3cd3b0221f95b6ecc35b685887855cf760405160405180910390a2505b505050565b6000816000600160008373ffffffffffffffffffffffffffffffffffffffff1673ffffffffffffffffffffffffffffffffffffffff1681526020019081526020016000205411610ac6576040517f08c379a0000000000000000000000000000000000000000000000000000000008152600401610abd9061338f565b60405180910390fd5b60011515600760149054906101000a900460ff16151514610b1c576040517f08c379a0000000000000000000000000000000000000000000000000000000008152600401610b13906135f1565b60405180910390fd5b600260018060008673ffffffffffffffffffffffffffffffffffffffff1673ffffffffffffffffffffffffffffffffffffffff16815260200190815260200160002054610b6991906133de565b81548110610b7a57610b79613412565b5b906000526020600020906005020160030160009054906101000a900460ff16915050919050565b6060816000600160008373ffffffffffffffffffffffffffffffffffffffff1673ffffffffffffffffffffffffffffffffffffffff1681526020019081526020016000205411610c26576040517f08c379a0000000000000000000000000000000000000000000000000000000008152600401610c1d9061338f565b60405180910390fd5b600260018060008673ffffffffffffffffffffffffffffffffffffffff1673ffffffffffffffffffffffffffffffffffffffff16815260200190815260200160002054610c7391906133de565b81548110610c8457610c83613412565b5b9060005260206000209060050201600101805480602002602001604051908101604052809291908181526020018280548015610cdf57602002820191906000526020600020905b815481526020019060010190808311610ccb575b5050505050915050919050565b60016020528060005260406000206000915090505481565b6000806000905060005b600354811015610d4857610d2281856122e9565b15610d3757600182610d349190613611565b91505b80610d4190613645565b9050610d0e565b5080915050919050565b60028181548110610d6257600080fd5b90600052602060002090600502016000915090508060000160009054906101000a900460ff16908060020154908060030160009054906101000a900460ff16908060040154905084565b610db461226b565b806000600160008373ffffffffffffffffffffffffffffffffffffffff1673ffffffffffffffffffffffffffffffffffffffff1681526020019081526020016000205411610e37576040517f08c379a0000000000000000000000000000000000000000000000000000000008152600401610e2e9061338f565b60405180910390fd5b6000600260018060008673ffffffffffffffffffffffffffffffffffffffff1673ffffffffffffffffffffffffffffffffffffffff16815260200190815260200160002054610e8691906133de565b81548110610e9757610e96613412565b5b9060005260206000209060050201905060006001811115610ebb57610eba613116565b5b8160000160009054906101000a900460ff166001811115610edf57610ede613116565b5b14610f1f576040517f08c379a0000000000000000000000000000000000000000000000000000000008152600401610f16906136d9565b60405180910390fd5b60018160000160006101000a81548160ff02191690836001811115610f4757610f46613116565b5b02179055508273ffffffffffffffffffffffffffffffffffffffff167f798117ec059ab8d319461ef2502b1f9d8a47cd966bfd1f3e23b6f26c30bebb7760405160405180910390a2505050565b600760009054906101000a900473ffffffffffffffffffffffffffffffffffffffff1681565b60058181548110610fca57600080fd5b906000526020600020016000915054906101000a900473ffffffffffffffffffffffffffffffffffffffff1681565b61100161226b565b806000600160008373ffffffffffffffffffffffffffffffffffffffff1673ffffffffffffffffffffffffffffffffffffffff168152602001908152602001600020541180156110f0575060018081111561105f5761105e613116565b5b600260018060008573ffffffffffffffffffffffffffffffffffffffff1673ffffffffffffffffffffffffffffffffffffffff168152602001908152602001600020546110ac91906133de565b815481106110bd576110bc613412565b5b906000526020600020906005020160000160009054906101000a900460ff1660018111156110ee576110ed613116565b5b145b61112f576040517f08c379a000000000000000000000000000000000000000000000000000000000815260040161112690613745565b60405180910390fd5b6000600260018060008673ffffffffffffffffffffffffffffffffffffffff1673ffffffffffffffffffffffffffffffffffffffff1681526020019081526020016000205461117e91906133de565b8154811061118f5761118e613412565b5b906000526020600020906005020160000160006101000a81548160ff021916908360018111156111c2576111c1613116565b5b021790555060008273ffffffffffffffffffffffffffffffffffffffff167f1105cbf79ba9aec674e68bafc67545b3e180703742c1ad6af4ab85fd0d5c4cdd60405160405180910390a35050565b600760149054906101000a900460ff1681565b600061122e42610d04565b905090565b61123b61226b565b6000600160008373ffffffffffffffffffffffffffffffffffffffff1673ffffffffffffffffffffffffffffffffffffffff16815260200190815260200160002054146112bd576040517f08c379a00000000000000000000000000000000000000000000000000000000081526004016112b4906137b1565b60405180910390fd5b6002600181600181540180825580915050039060005260206000209050506001600360008282546112ee9190613611565b92505081905550600354600160008373ffffffffffffffffffffffffffffffffffffffff1673ffffffffffffffffffffffffffffffffffffffff1681526020019081526020016000208190555060006002600160035461134e91906133de565b8154811061135f5761135e613412565b5b9060005260206000209060050201905060018160000160006101000a81548160ff0219169083600181111561139757611396613116565b5b021790555060008160030160006101000a81548160ff0219169083151502179055505050565b6000806000905060005b6003548110156113fa576113dc81868661241d565b826113e79190613611565b9150806113f390613645565b90506113c7565b508091505092915050565b806000600160008373ffffffffffffffffffffffffffffffffffffffff1673ffffffffffffffffffffffffffffffffffffffff1681526020019081526020016000205411611488576040517f08c379a000000000000000000000000000000000000000000000000000000000815260040161147f9061338f565b60405180910390fd5b60011515600760149054906101000a900460ff161515146114de576040517f08c379a00000000000000000000000000000000000000000000000000000000081526004016114d5906135f1565b60405180910390fd5b6114e882426125f9565b5050565b600681815481106114fc57600080fd5b906000526020600020016000915090505481565b816000600160008373ffffffffffffffffffffffffffffffffffffffff1673ffffffffffffffffffffffffffffffffffffffff1681526020019081526020016000205411611593576040517f08c379a000000000000000000000000000000000000000000000000000000000815260040161158a9061338f565b60405180910390fd5b60001515600760149054906101000a900460ff161515146115e9576040517f08c379a00000000000000000000000000000000000000000000000000000000081526004016115e090613843565b60405180910390fd5b6115f383836125f9565b505050565b61160061226b565b61160a6000612923565b565b816000600160008373ffffffffffffffffffffffffffffffffffffffff1673ffffffffffffffffffffffffffffffffffffffff168152602001908152602001600020541161168f576040517f08c379a00000000000000000000000000000000000000000000000000000000081526004016116869061338f565b60405180910390fd5b60001515600760149054906101000a900460ff161515146116e5576040517f08c379a00000000000000000000000000000000000000000000000000000000081526004016116dc90613843565b60405180910390fd5b826000600260018060008573ffffffffffffffffffffffffffffffffffffffff1673ffffffffffffffffffffffffffffffffffffffff1681526020019081526020016000205461173591906133de565b8154811061174657611745613412565b5b9060005260206000209060050201905060006002826001018054905061176c9190613892565b14801561178857508060030160009054906101000a900460ff16155b6117c7576040517f08c379a00000000000000000000000000000000000000000000000000000000081526004016117be9061390f565b60405180910390fd5b6117d185856125f9565b5050505050565b60035481565b60008060009054906101000a900473ffffffffffffffffffffffffffffffffffffffff16905090565b6000336000600160008373ffffffffffffffffffffffffffffffffffffffff1673ffffffffffffffffffffffffffffffffffffffff168152602001908152602001600020541161188c576040517f08c379a00000000000000000000000000000000000000000000000000000000081526004016118839061338f565b60405180910390fd5b600260018060003373ffffffffffffffffffffffffffffffffffffffff1673ffffffffffffffffffffffffffffffffffffffff168152602001908152602001600020546118d991906133de565b815481106118ea576118e9613412565b5b90600052602060002090600502016004015491505090565b336000600160008373ffffffffffffffffffffffffffffffffffffffff1673ffffffffffffffffffffffffffffffffffffffff168152602001908152602001600020541180156119f157506001808111156119605761195f613116565b5b600260018060008573ffffffffffffffffffffffffffffffffffffffff1673ffffffffffffffffffffffffffffffffffffffff168152602001908152602001600020546119ad91906133de565b815481106119be576119bd613412565b5b906000526020600020906005020160000160009054906101000a900460ff1660018111156119ef576119ee613116565b5b145b611a30576040517f08c379a0000000000000000000000000000000000000000000000000000000008152600401611a2790613745565b60405180910390fd5b6000600260018060003373ffffffffffffffffffffffffffffffffffffffff1673ffffffffffffffffffffffffffffffffffffffff16815260200190815260200160002054611a7f91906133de565b81548110611a9057611a8f613412565b5b90600052602060002090600502019050828160020181905550505050565b6000611ab942611f8b565b905090565b806000600160008373ffffffffffffffffffffffffffffffffffffffff1673ffffffffffffffffffffffffffffffffffffffff1681526020019081526020016000205411611b41576040517f08c379a0000000000000000000000000000000000000000000000000000000008152600401611b389061338f565b60405180910390fd5b60011515600760149054906101000a900460ff16151514611b97576040517f08c379a0000000000000000000000000000000000000000000000000000000008152600401611b8e906135f1565b60405180910390fd5b816000600260018060008573ffffffffffffffffffffffffffffffffffffffff1673ffffffffffffffffffffffffffffffffffffffff16815260200190815260200160002054611be791906133de565b81548110611bf857611bf7613412565b5b90600052602060002090600502019050600160028260010180549050611c1e9190613892565b148015611c3957508060030160009054906101000a900460ff165b611c78576040517f08c379a0000000000000000000000000000000000000000000000000000000008152600401611c6f9061397b565b60405180910390fd5b611c8284426125f9565b50505050565b6000826000600160008373ffffffffffffffffffffffffffffffffffffffff1673ffffffffffffffffffffffffffffffffffffffff1681526020019081526020016000205411611d0d576040517f08c379a0000000000000000000000000000000000000000000000000000000008152600401611d049061338f565b60405180910390fd5b60001515600760149054906101000a900460ff16151514611d63576040517f08c379a0000000000000000000000000000000000000000000000000000000008152600401611d5a90613843565b60405180910390fd5b611db760018060008773ffffffffffffffffffffffffffffffffffffffff1673ffffffffffffffffffffffffffffffffffffffff16815260200190815260200160002054611db191906133de565b846122e9565b91505092915050565b806000600160008373ffffffffffffffffffffffffffffffffffffffff1673ffffffffffffffffffffffffffffffffffffffff1681526020019081526020016000205411611e43576040517f08c379a0000000000000000000000000000000000000000000000000000000008152600401611e3a9061338f565b60405180910390fd5b60011515600760149054906101000a900460ff16151514611e99576040517f08c379a0000000000000000000000000000000000000000000000000000000008152600401611e90906135f1565b60405180910390fd5b816000600260018060008573ffffffffffffffffffffffffffffffffffffffff1673ffffffffffffffffffffffffffffffffffffffff16815260200190815260200160002054611ee991906133de565b81548110611efa57611ef9613412565b5b90600052602060002090600502019050600060028260010180549050611f209190613892565b148015611f3c57508060030160009054906101000a900460ff16155b611f7b576040517f08c379a0000000000000000000000000000000000000000000000000000000008152600401611f729061390f565b60405180910390fd5b611f8584426125f9565b50505050565b600080611f97836129e7565b90506000808212611fe85760058281548110611fb657611fb5613412565b5b9060005260206000200160009054906101000a900473ffffffffffffffffffffffffffffffffffffffff169050611fed565b600090505b8092505050919050565b816000600160008373ffffffffffffffffffffffffffffffffffffffff1673ffffffffffffffffffffffffffffffffffffffff168152602001908152602001600020541161207a576040517f08c379a00000000000000000000000000000000000000000000000000000000081526004016120719061338f565b60405180910390fd5b60001515600760149054906101000a900460ff161515146120d0576040517f08c379a00000000000000000000000000000000000000000000000000000000081526004016120c790613843565b60405180910390fd5b826000600260018060008573ffffffffffffffffffffffffffffffffffffffff1673ffffffffffffffffffffffffffffffffffffffff1681526020019081526020016000205461212091906133de565b8154811061213157612130613412565b5b906000526020600020906005020190506001600282600101805490506121579190613892565b14801561217257508060030160009054906101000a900460ff165b6121b1576040517f08c379a00000000000000000000000000000000000000000000000000000000081526004016121a89061397b565b60405180910390fd5b6121bb85856125f9565b5050505050565b6121ca61226b565b600073ffffffffffffffffffffffffffffffffffffffff168173ffffffffffffffffffffffffffffffffffffffff1603612239576040517f08c379a000000000000000000000000000000000000000000000000000000000815260040161223090613a0d565b60405180910390fd5b61224281612923565b50565b600460009054906101000a900473ffffffffffffffffffffffffffffffffffffffff1681565b612273612a85565b73ffffffffffffffffffffffffffffffffffffffff166122916117de565b73ffffffffffffffffffffffffffffffffffffffff16146122e7576040517f08c379a00000000000000000000000000000000000000000000000000000000081526004016122de90613a79565b60405180910390fd5b565b60008083101580156122fc575060035483105b61233b576040517f08c379a000000000000000000000000000000000000000000000000000000000815260040161233290613ae5565b60405180910390fd5b6000806002858154811061235257612351613412565b5b9060005260206000209060050201905060008160010180549050905060005b818110156124105782600101818154811061238f5761238e613412565b5b906000526020600020015486106123fc576001935082600101805490506001826123b99190613611565b1080156123f15750826001016001826123d29190613611565b815481106123e3576123e2613412565b5b906000526020600020015486115b156123fb57600093505b5b6002816124099190613611565b9050612371565b5082935050505092915050565b6000808410158015612430575060035484105b61246f576040517f08c379a000000000000000000000000000000000000000000000000000000000815260040161246690613ae5565b60405180910390fd5b8183106124b1576040517f08c379a00000000000000000000000000000000000000000000000000000000081526004016124a890613b51565b60405180910390fd5b600083836124bf91906133de565b9050600080600287815481106124d8576124d7613412565b5b9060005260206000209060050201905060008160010180549050905060008060005b838110156125c65784600101818154811061251857612517613412565b5b90600052602060002001549250828a1115612531578992505b84600101805490506001826125469190613611565b1015612580578460010160018261255d9190613611565b8154811061256e5761256d613412565b5b90600052602060002001549150612584565b4291505b81891015612590578891505b828211156125b25782826125a491906133de565b866125af9190613611565b95505b6002816125bf9190613611565b90506124fa565b50856002876125d59190613b71565b866125e09190613611565b6125ea9190613b71565b96505050505050509392505050565b600760009054906101000a900473ffffffffffffffffffffffffffffffffffffffff1673ffffffffffffffffffffffffffffffffffffffff163373ffffffffffffffffffffffffffffffffffffffff1614612689576040517f08c379a000000000000000000000000000000000000000000000000000000000815260040161268090613bee565b60405180910390fd5b816000600160008373ffffffffffffffffffffffffffffffffffffffff1673ffffffffffffffffffffffffffffffffffffffff1681526020019081526020016000205411801561277857506001808111156126e7576126e6613116565b5b600260018060008573ffffffffffffffffffffffffffffffffffffffff1673ffffffffffffffffffffffffffffffffffffffff1681526020019081526020016000205461273491906133de565b8154811061274557612744613412565b5b906000526020600020906005020160000160009054906101000a900460ff16600181111561277657612775613116565b5b145b6127b7576040517f08c379a00000000000000000000000000000000000000000000000000000000081526004016127ae90613745565b60405180910390fd5b6000600260018060008773ffffffffffffffffffffffffffffffffffffffff1673ffffffffffffffffffffffffffffffffffffffff1681526020019081526020016000205461280691906133de565b8154811061281757612816613412565b5b906000526020600020906005020190508060030160009054906101000a900460ff16158160030160006101000a81548160ff021916908315150217905550806001018390806001815401808255809150506001900390600052602060002001600090919091909150558060030160009054906101000a900460ff1661291d576000816001018054905090506000826001016002836128b591906133de565b815481106128c6576128c5613412565b5b906000526020600020015490506000836001016001846128e691906133de565b815481106128f7576128f6613412565b5b9060005260206000200154905061291987838361291486866113bd565b612a8d565b5050505b50505050565b60008060009054906101000a900473ffffffffffffffffffffffffffffffffffffffff169050816000806101000a81548173ffffffffffffffffffffffffffffffffffffffff021916908373ffffffffffffffffffffffffffffffffffffffff1602179055508173ffffffffffffffffffffffffffffffffffffffff168173ffffffffffffffffffffffffffffffffffffffff167f8be0079c531659141344cd1fd0a4f28419497f9722a3daafe3b4186f6b6457e060405160405180910390a35050565b600080600580549050905060007fffffffffffffffffffffffffffffffffffffffffffffffffffffffffffffffff905060005b82811015612a7a5784600682600186612a3391906133de565b612a3d91906133de565b81548110612a4e57612a4d613412565b5b90600052602060002001541015612a6757809150612a7a565b8080612a7290613645565b915050612a1a565b508092505050919050565b600033905090565b6000612a98846129e7565b90506000808212612b665760058281548110612ab757612ab6613412565b5b9060005260206000200160009054906101000a900473ffffffffffffffffffffffffffffffffffffffff1673ffffffffffffffffffffffffffffffffffffffff1663743096c18686868a6040518563ffffffff1660e01b8152600401612b209493929190613c0e565b6020604051808303816000875af1158015612b3f573d6000803e3d6000fd5b505050506040513d601f19601f82011682018060405250810190612b639190613c68565b90505b6000811115612edb576000600260018060008a73ffffffffffffffffffffffffffffffffffffffff1673ffffffffffffffffffffffffffffffffffffffff16815260200190815260200160002054612bbe91906133de565b81548110612bcf57612bce613412565b5b9060005260206000209060050201905081816004016000828254612bf39190613611565b9250508190555060008160000160006101000a81548160ff02191690836001811115612c2257612c21613116565b5b02179055506000600460009054906101000a900473ffffffffffffffffffffffffffffffffffffffff1673ffffffffffffffffffffffffffffffffffffffff1663dd62ed3e89306040518363ffffffff1660e01b8152600401612c86929190613c95565b602060405180830381865afa158015612ca3573d6000803e3d6000fd5b505050506040513d601f19601f82011682018060405250810190612cc79190613c68565b905082811015612d24578083612cdd91906133de565b8873ffffffffffffffffffffffffffffffffffffffff167f1105cbf79ba9aec674e68bafc67545b3e180703742c1ad6af4ab85fd0d5c4cdd60405160405180910390a38092505b6000831115612ed8576000600460009054906101000a900473ffffffffffffffffffffffffffffffffffffffff1673ffffffffffffffffffffffffffffffffffffffff166323b872dd8a3073ffffffffffffffffffffffffffffffffffffffff16638da5cb5b6040518163ffffffff1660e01b8152600401602060405180830381865afa158015612db9573d6000803e3d6000fd5b505050506040513d601f19601f82011682018060405250810190612ddd9190613456565b876040518463ffffffff1660e01b8152600401612dfc93929190613483565b6020604051808303816000875af1158015612e1b573d6000803e3d6000fd5b505050506040513d601f19601f82011682018060405250810190612e3f91906134e6565b905080612e81576040517f08c379a0000000000000000000000000000000000000000000000000000000008152600401612e7890613d0a565b60405180910390fd5b83836004016000828254612e9591906133de565b925050819055506000836004015403612ed65760018360000160006101000a81548160ff02191690836001811115612ed057612ecf613116565b5b02179055505b505b50505b505050505050565b600080fd5b600073ffffffffffffffffffffffffffffffffffffffff82169050919050565b6000612f1382612ee8565b9050919050565b612f2381612f08565b8114612f2e57600080fd5b50565b600081359050612f4081612f1a565b92915050565b600060208284031215612f5c57612f5b612ee3565b5b6000612f6a84828501612f31565b91505092915050565b6000819050919050565b612f8681612f73565b8114612f9157600080fd5b50565b600081359050612fa381612f7d565b92915050565b600060208284031215612fbf57612fbe612ee3565b5b6000612fcd84828501612f94565b91505092915050565b60008115159050919050565b612feb81612fd6565b82525050565b60006020820190506130066000830184612fe2565b92915050565b600081519050919050565b600082825260208201905092915050565b6000819050602082019050919050565b61304181612f73565b82525050565b60006130538383613038565b60208301905092915050565b6000602082019050919050565b60006130778261300c565b6130818185613017565b935061308c83613028565b8060005b838110156130bd5781516130a48882613047565b97506130af8361305f565b925050600181019050613090565b5085935050505092915050565b600060208201905081810360008301526130e4818461306c565b905092915050565b6130f581612f73565b82525050565b600060208201905061311060008301846130ec565b92915050565b7f4e487b7100000000000000000000000000000000000000000000000000000000600052602160045260246000fd5b6002811061315657613155613116565b5b50565b600081905061316782613145565b919050565b600061317782613159565b9050919050565b6131878161316c565b82525050565b60006080820190506131a2600083018761317e565b6131af60208301866130ec565b6131bc6040830185612fe2565b6131c960608301846130ec565b95945050505050565b6131db81612f08565b82525050565b60006020820190506131f660008301846131d2565b92915050565b6000819050919050565b600061322161321c61321784612ee8565b6131fc565b612ee8565b9050919050565b600061323382613206565b9050919050565b600061324582613228565b9050919050565b6132558161323a565b82525050565b6000602082019050613270600083018461324c565b92915050565b6000806040838503121561328d5761328c612ee3565b5b600061329b85828601612f94565b92505060206132ac85828601612f94565b9150509250929050565b600080604083850312156132cd576132cc612ee3565b5b60006132db85828601612f31565b92505060206132ec85828601612f94565b9150509250929050565b600061330182613228565b9050919050565b613311816132f6565b82525050565b600060208201905061332c6000830184613308565b92915050565b600082825260208201905092915050565b7f546869732075736572206973206e6f7420726567697374657265640000000000600082015250565b6000613379601b83613332565b915061338482613343565b602082019050919050565b600060208201905081810360008301526133a88161336c565b9050919050565b7f4e487b7100000000000000000000000000000000000000000000000000000000600052601160045260246000fd5b60006133e982612f73565b91506133f483612f73565b925082820390508181111561340c5761340b6133af565b5b92915050565b7f4e487b7100000000000000000000000000000000000000000000000000000000600052603260045260246000fd5b60008151905061345081612f1a565b92915050565b60006020828403121561346c5761346b612ee3565b5b600061347a84828501613441565b91505092915050565b600060608201905061349860008301866131d2565b6134a560208301856131d2565b6134b260408301846130ec565b949350505050565b6134c381612fd6565b81146134ce57600080fd5b50565b6000815190506134e0816134ba565b92915050565b6000602082840312156134fc576134fb612ee3565b5b600061350a848285016134d1565b91505092915050565b7f4661696c656420746f2070617920646562740000000000000000000000000000600082015250565b6000613549601283613332565b915061355482613513565b602082019050919050565b600060208201905081810360008301526135788161353c565b9050919050565b7f546865206f6e636861696e54696d652076616c75652073686f756c642062652060008201527f7472756500000000000000000000000000000000000000000000000000000000602082015250565b60006135db602483613332565b91506135e68261357f565b604082019050919050565b6000602082019050818103600083015261360a816135ce565b9050919050565b600061361c82612f73565b915061362783612f73565b925082820190508082111561363f5761363e6133af565b5b92915050565b600061365082612f73565b91507fffffffffffffffffffffffffffffffffffffffffffffffffffffffffffffffff8203613682576136816133af565b5b600182019050919050565b7f5468652075736572206973206e6f7420626c6f636b6564000000000000000000600082015250565b60006136c3601783613332565b91506136ce8261368d565b602082019050919050565b600060208201905081810360008301526136f2816136b6565b9050919050565b7f546869732075736572206973206e6f7420616374697661746564000000000000600082015250565b600061372f601a83613332565b915061373a826136f9565b602082019050919050565b6000602082019050818103600083015261375e81613722565b9050919050565b7f5573657220616c72656164792061646465640000000000000000000000000000600082015250565b600061379b601283613332565b91506137a682613765565b602082019050919050565b600060208201905081810360008301526137ca8161378e565b9050919050565b7f546865206f6e636861696e54696d652076616c75652073686f756c642062652060008201527f66616c7365000000000000000000000000000000000000000000000000000000602082015250565b600061382d602583613332565b9150613838826137d1565b604082019050919050565b6000602082019050818103600083015261385c81613820565b9050919050565b7f4e487b7100000000000000000000000000000000000000000000000000000000600052601260045260246000fd5b600061389d82612f73565b91506138a883612f73565b9250826138b8576138b7613863565b5b828206905092915050565b7f5468652075736572206973206e6f74206f757473696465000000000000000000600082015250565b60006138f9601783613332565b9150613904826138c3565b602082019050919050565b60006020820190508181036000830152613928816138ec565b9050919050565b7f5468652075736572206973206e6f7420696e7369646500000000000000000000600082015250565b6000613965601683613332565b91506139708261392f565b602082019050919050565b6000602082019050818103600083015261399481613958565b9050919050565b7f4f776e61626c653a206e6577206f776e657220697320746865207a65726f206160008201527f6464726573730000000000000000000000000000000000000000000000000000602082015250565b60006139f7602683613332565b9150613a028261399b565b604082019050919050565b60006020820190508181036000830152613a26816139ea565b9050919050565b7f4f776e61626c653a2063616c6c6572206973206e6f7420746865206f776e6572600082015250565b6000613a63602083613332565b9150613a6e82613a2d565b602082019050919050565b60006020820190508181036000830152613a9281613a56565b9050919050565b7f4f7574206f662072616e67652061636365737320746f20757365720000000000600082015250565b6000613acf601b83613332565b9150613ada82613a99565b602082019050919050565b60006020820190508181036000830152613afe81613ac2565b9050919050565b7f54686973206973206e6f7420616e20696e74657276616c000000000000000000600082015250565b6000613b3b601783613332565b9150613b4682613b05565b602082019050919050565b60006020820190508181036000830152613b6a81613b2e565b9050919050565b6000613b7c82612f73565b9150613b8783612f73565b925082613b9757613b96613863565b5b828204905092915050565b7f596f75277265206e6f7420746865206861726477617265000000000000000000600082015250565b6000613bd8601783613332565b9150613be382613ba2565b602082019050919050565b60006020820190508181036000830152613c0781613bcb565b9050919050565b6000608082019050613c2360008301876130ec565b613c3060208301866130ec565b613c3d60408301856130ec565b613c4a60608301846131d2565b95945050505050565b600081519050613c6281612f7d565b92915050565b600060208284031215613c7e57613c7d612ee3565b5b6000613c8c84828501613c53565b91505092915050565b6000604082019050613caa60008301856131d2565b613cb760208301846131d2565b9392505050565b7f4661696c656420746f20706179206f6e20657869740000000000000000000000600082015250565b6000613cf4601583613332565b9150613cff82613cbe565b602082019050919050565b60006020820190508181036000830152613d2381613ce7565b905091905056fea2646970667358221220fc9b14151305b40964d6822830f5be9669d380278593ac4e6186ec4bcc08dcc664736f6c63430008110033","opcodes":"PUSH1 0x80 PUSH1 0x40 MSTORE CALLVALUE DUP1 ISZERO PUSH3 0x11 JUMPI PUSH1 0x0 DUP1 REVERT JUMPDEST POP PUSH1 0x40 MLOAD PUSH3 0x4043 CODESIZE SUB DUP1 PUSH3 0x4043 DUP4 CODECOPY DUP2 DUP2 ADD PUSH1 0x40 MSTORE DUP2 ADD SWAP1 PUSH3 0x37 SWAP2 SWAP1 PUSH3 0x277 JUMP JUMPDEST PUSH3 0x57 PUSH3 0x4B PUSH3 0x104 PUSH1 0x20 SHL PUSH1 0x20 SHR JUMP JUMPDEST PUSH3 0x10C PUSH1 0x20 SHL PUSH1 0x20 SHR JUMP JUMPDEST DUP3 PUSH1 0x7 PUSH1 0x0 PUSH2 0x100 EXP DUP2 SLOAD DUP2 PUSH20 0xFFFFFFFFFFFFFFFFFFFFFFFFFFFFFFFFFFFFFFFF MUL NOT AND SWAP1 DUP4 PUSH20 0xFFFFFFFFFFFFFFFFFFFFFFFFFFFFFFFFFFFFFFFF AND MUL OR SWAP1 SSTORE POP DUP1 PUSH1 0x7 PUSH1 0x14 PUSH2 0x100 EXP DUP2 SLOAD DUP2 PUSH1 0xFF MUL NOT AND SWAP1 DUP4 ISZERO ISZERO MUL OR SWAP1 SSTORE POP DUP2 PUSH1 0x4 PUSH1 0x0 PUSH2 0x100 EXP DUP2 SLOAD DUP2 PUSH20 0xFFFFFFFFFFFFFFFFFFFFFFFFFFFFFFFFFFFFFFFF MUL NOT AND SWAP1 DUP4 PUSH20 0xFFFFFFFFFFFFFFFFFFFFFFFFFFFFFFFFFFFFFFFF AND MUL OR SWAP1 SSTORE POP PUSH1 0x0 PUSH1 0x3 DUP2 SWAP1 SSTORE POP POP POP POP PUSH3 0x2D3 JUMP JUMPDEST PUSH1 0x0 CALLER SWAP1 POP SWAP1 JUMP JUMPDEST PUSH1 0x0 DUP1 PUSH1 0x0 SWAP1 SLOAD SWAP1 PUSH2 0x100 EXP SWAP1 DIV PUSH20 0xFFFFFFFFFFFFFFFFFFFFFFFFFFFFFFFFFFFFFFFF AND SWAP1 POP DUP2 PUSH1 0x0 DUP1 PUSH2 0x100 EXP DUP2 SLOAD DUP2 PUSH20 0xFFFFFFFFFFFFFFFFFFFFFFFFFFFFFFFFFFFFFFFF MUL NOT AND SWAP1 DUP4 PUSH20 0xFFFFFFFFFFFFFFFFFFFFFFFFFFFFFFFFFFFFFFFF AND MUL OR SWAP1 SSTORE POP DUP2 PUSH20 0xFFFFFFFFFFFFFFFFFFFFFFFFFFFFFFFFFFFFFFFF AND DUP2 PUSH20 0xFFFFFFFFFFFFFFFFFFFFFFFFFFFFFFFFFFFFFFFF AND PUSH32 0x8BE0079C531659141344CD1FD0A4F28419497F9722A3DAAFE3B4186F6B6457E0 PUSH1 0x40 MLOAD PUSH1 0x40 MLOAD DUP1 SWAP2 SUB SWAP1 LOG3 POP POP JUMP JUMPDEST PUSH1 0x0 DUP1 REVERT JUMPDEST PUSH1 0x0 PUSH20 0xFFFFFFFFFFFFFFFFFFFFFFFFFFFFFFFFFFFFFFFF DUP3 AND SWAP1 POP SWAP2 SWAP1 POP JUMP JUMPDEST PUSH1 0x0 PUSH3 0x202 DUP3 PUSH3 0x1D5 JUMP JUMPDEST SWAP1 POP SWAP2 SWAP1 POP JUMP JUMPDEST PUSH3 0x214 DUP2 PUSH3 0x1F5 JUMP JUMPDEST DUP2 EQ PUSH3 0x220 JUMPI PUSH1 0x0 DUP1 REVERT JUMPDEST POP JUMP JUMPDEST PUSH1 0x0 DUP2 MLOAD SWAP1 POP PUSH3 0x234 DUP2 PUSH3 0x209 JUMP JUMPDEST SWAP3 SWAP2 POP POP JUMP JUMPDEST PUSH1 0x0 DUP2 ISZERO ISZERO SWAP1 POP SWAP2 SWAP1 POP JUMP JUMPDEST PUSH3 0x251 DUP2 PUSH3 0x23A JUMP JUMPDEST DUP2 EQ PUSH3 0x25D JUMPI PUSH1 0x0 DUP1 REVERT JUMPDEST POP JUMP JUMPDEST PUSH1 0x0 DUP2 MLOAD SWAP1 POP PUSH3 0x271 DUP2 PUSH3 0x246 JUMP JUMPDEST SWAP3 SWAP2 POP POP JUMP JUMPDEST PUSH1 0x0 DUP1 PUSH1 0x0 PUSH1 0x60 DUP5 DUP7 SUB SLT ISZERO PUSH3 0x293 JUMPI PUSH3 0x292 PUSH3 0x1D0 JUMP JUMPDEST JUMPDEST PUSH1 0x0 PUSH3 0x2A3 DUP7 DUP3 DUP8 ADD PUSH3 0x223 JUMP JUMPDEST SWAP4 POP POP PUSH1 0x20 PUSH3 0x2B6 DUP7 DUP3 DUP8 ADD PUSH3 0x223 JUMP JUMPDEST SWAP3 POP POP PUSH1 0x40 PUSH3 0x2C9 DUP7 DUP3 DUP8 ADD PUSH3 0x260 JUMP JUMPDEST SWAP2 POP POP SWAP3 POP SWAP3 POP SWAP3 JUMP JUMPDEST PUSH2 0x3D60 DUP1 PUSH3 0x2E3 PUSH1 0x0 CODECOPY PUSH1 0x0 RETURN INVALID PUSH1 0x80 PUSH1 0x40 MSTORE CALLVALUE DUP1 ISZERO PUSH2 0x10 JUMPI PUSH1 0x0 DUP1 REVERT JUMPDEST POP PUSH1 0x4 CALLDATASIZE LT PUSH2 0x1F0 JUMPI PUSH1 0x0 CALLDATALOAD PUSH1 0xE0 SHR DUP1 PUSH4 0x4BC060ED GT PUSH2 0x10F JUMPI DUP1 PUSH4 0xADEB0382 GT PUSH2 0xA2 JUMPI DUP1 PUSH4 0xDF419350 GT PUSH2 0x71 JUMPI DUP1 PUSH4 0xDF419350 EQ PUSH2 0x5B8 JUMPI DUP1 PUSH4 0xEF693BED EQ PUSH2 0x5E8 JUMPI DUP1 PUSH4 0xF2FDE38B EQ PUSH2 0x604 JUMPI DUP1 PUSH4 0xFC0C546A EQ PUSH2 0x620 JUMPI PUSH2 0x1F0 JUMP JUMPDEST DUP1 PUSH4 0xADEB0382 EQ PUSH2 0x532 JUMPI DUP1 PUSH4 0xB42652E9 EQ PUSH2 0x550 JUMPI DUP1 PUSH4 0xB6BC4BAD EQ PUSH2 0x56C JUMPI DUP1 PUSH4 0xD014C01F EQ PUSH2 0x59C JUMPI PUSH2 0x1F0 JUMP JUMPDEST DUP1 PUSH4 0x895449D5 GT PUSH2 0xDE JUMPI DUP1 PUSH4 0x895449D5 EQ PUSH2 0x4BC JUMPI DUP1 PUSH4 0x8DA5CB5B EQ PUSH2 0x4DA JUMPI DUP1 PUSH4 0x947BB341 EQ PUSH2 0x4F8 JUMPI DUP1 PUSH4 0x9A2041BF EQ PUSH2 0x516 JUMPI PUSH2 0x1F0 JUMP JUMPDEST DUP1 PUSH4 0x4BC060ED EQ PUSH2 0x44A JUMPI DUP1 PUSH4 0x6D705EBB EQ PUSH2 0x47A JUMPI DUP1 PUSH4 0x715018A6 EQ PUSH2 0x496 JUMPI DUP1 PUSH4 0x7E348B7D EQ PUSH2 0x4A0 JUMPI PUSH2 0x1F0 JUMP JUMPDEST DUP1 PUSH4 0x3BDF8369 GT PUSH2 0x187 JUMPI DUP1 PUSH4 0x3F728455 GT PUSH2 0x156 JUMPI DUP1 PUSH4 0x3F728455 EQ PUSH2 0x3C4 JUMPI DUP1 PUSH4 0x421B2D8B EQ PUSH2 0x3E2 JUMPI DUP1 PUSH4 0x421CE89B EQ PUSH2 0x3FE JUMPI DUP1 PUSH4 0x4420E486 EQ PUSH2 0x42E JUMPI PUSH2 0x1F0 JUMP JUMPDEST DUP1 PUSH4 0x3BDF8369 EQ PUSH2 0x33C JUMPI DUP1 PUSH4 0x3D134BFC EQ PUSH2 0x35A JUMPI DUP1 PUSH4 0x3DA01325 EQ PUSH2 0x38A JUMPI DUP1 PUSH4 0x3E19E9E0 EQ PUSH2 0x3A6 JUMPI PUSH2 0x1F0 JUMP JUMPDEST DUP1 PUSH4 0x28C3D4B3 GT PUSH2 0x1C3 JUMPI DUP1 PUSH4 0x28C3D4B3 EQ PUSH2 0x28D JUMPI DUP1 PUSH4 0x305628AF EQ PUSH2 0x2BD JUMPI DUP1 PUSH4 0x365B98B2 EQ PUSH2 0x2ED JUMPI DUP1 PUSH4 0x39D319E5 EQ PUSH2 0x320 JUMPI PUSH2 0x1F0 JUMP JUMPDEST DUP1 PUSH4 0xB7B1329 EQ PUSH2 0x1F5 JUMPI DUP1 PUSH4 0x16FC3297 EQ PUSH2 0x211 JUMPI DUP1 PUSH4 0x1A913542 EQ PUSH2 0x22D JUMPI DUP1 PUSH4 0x26A7600D EQ PUSH2 0x25D JUMPI JUMPDEST PUSH1 0x0 DUP1 REVERT JUMPDEST PUSH2 0x20F PUSH1 0x4 DUP1 CALLDATASIZE SUB DUP2 ADD SWAP1 PUSH2 0x20A SWAP2 SWAP1 PUSH2 0x2F46 JUMP JUMPDEST PUSH2 0x63E JUMP JUMPDEST STOP JUMPDEST PUSH2 0x22B PUSH1 0x4 DUP1 CALLDATASIZE SUB DUP2 ADD SWAP1 PUSH2 0x226 SWAP2 SWAP1 PUSH2 0x2FA9 JUMP JUMPDEST PUSH2 0x718 JUMP JUMPDEST STOP JUMPDEST PUSH2 0x247 PUSH1 0x4 DUP1 CALLDATASIZE SUB DUP2 ADD SWAP1 PUSH2 0x242 SWAP2 SWAP1 PUSH2 0x2F46 JUMP JUMPDEST PUSH2 0xA41 JUMP JUMPDEST PUSH1 0x40 MLOAD PUSH2 0x254 SWAP2 SWAP1 PUSH2 0x2FF1 JUMP JUMPDEST PUSH1 0x40 MLOAD DUP1 SWAP2 SUB SWAP1 RETURN JUMPDEST PUSH2 0x277 PUSH1 0x4 DUP1 CALLDATASIZE SUB DUP2 ADD SWAP1 PUSH2 0x272 SWAP2 SWAP1 PUSH2 0x2F46 JUMP JUMPDEST PUSH2 0xBA1 JUMP JUMPDEST PUSH1 0x40 MLOAD PUSH2 0x284 SWAP2 SWAP1 PUSH2 0x30CA JUMP JUMPDEST PUSH1 0x40 MLOAD DUP1 SWAP2 SUB SWAP1 RETURN JUMPDEST PUSH2 0x2A7 PUSH1 0x4 DUP1 CALLDATASIZE SUB DUP2 ADD SWAP1 PUSH2 0x2A2 SWAP2 SWAP1 PUSH2 0x2F46 JUMP JUMPDEST PUSH2 0xCEC JUMP JUMPDEST PUSH1 0x40 MLOAD PUSH2 0x2B4 SWAP2 SWAP1 PUSH2 0x30FB JUMP JUMPDEST PUSH1 0x40 MLOAD DUP1 SWAP2 SUB SWAP1 RETURN JUMPDEST PUSH2 0x2D7 PUSH1 0x4 DUP1 CALLDATASIZE SUB DUP2 ADD SWAP1 PUSH2 0x2D2 SWAP2 SWAP1 PUSH2 0x2FA9 JUMP JUMPDEST PUSH2 0xD04 JUMP JUMPDEST PUSH1 0x40 MLOAD PUSH2 0x2E4 SWAP2 SWAP1 PUSH2 0x30FB JUMP JUMPDEST PUSH1 0x40 MLOAD DUP1 SWAP2 SUB SWAP1 RETURN JUMPDEST PUSH2 0x307 PUSH1 0x4 DUP1 CALLDATASIZE SUB DUP2 ADD SWAP1 PUSH2 0x302 SWAP2 SWAP1 PUSH2 0x2FA9 JUMP JUMPDEST PUSH2 0xD52 JUMP JUMPDEST PUSH1 0x40 MLOAD PUSH2 0x317 SWAP5 SWAP4 SWAP3 SWAP2 SWAP1 PUSH2 0x318D JUMP JUMPDEST PUSH1 0x40 MLOAD DUP1 SWAP2 SUB SWAP1 RETURN JUMPDEST PUSH2 0x33A PUSH1 0x4 DUP1 CALLDATASIZE SUB DUP2 ADD SWAP1 PUSH2 0x335 SWAP2 SWAP1 PUSH2 0x2F46 JUMP JUMPDEST PUSH2 0xDAC JUMP JUMPDEST STOP JUMPDEST PUSH2 0x344 PUSH2 0xF94 JUMP JUMPDEST PUSH1 0x40 MLOAD PUSH2 0x351 SWAP2 SWAP1 PUSH2 0x31E1 JUMP JUMPDEST PUSH1 0x40 MLOAD DUP1 SWAP2 SUB SWAP1 RETURN JUMPDEST PUSH2 0x374 PUSH1 0x4 DUP1 CALLDATASIZE SUB DUP2 ADD SWAP1 PUSH2 0x36F SWAP2 SWAP1 PUSH2 0x2FA9 JUMP JUMPDEST PUSH2 0xFBA JUMP JUMPDEST PUSH1 0x40 MLOAD PUSH2 0x381 SWAP2 SWAP1 PUSH2 0x325B JUMP JUMPDEST PUSH1 0x40 MLOAD DUP1 SWAP2 SUB SWAP1 RETURN JUMPDEST PUSH2 0x3A4 PUSH1 0x4 DUP1 CALLDATASIZE SUB DUP2 ADD SWAP1 PUSH2 0x39F SWAP2 SWAP1 PUSH2 0x2F46 JUMP JUMPDEST PUSH2 0xFF9 JUMP JUMPDEST STOP JUMPDEST PUSH2 0x3AE PUSH2 0x1210 JUMP JUMPDEST PUSH1 0x40 MLOAD PUSH2 0x3BB SWAP2 SWAP1 PUSH2 0x2FF1 JUMP JUMPDEST PUSH1 0x40 MLOAD DUP1 SWAP2 SUB SWAP1 RETURN JUMPDEST PUSH2 0x3CC PUSH2 0x1223 JUMP JUMPDEST PUSH1 0x40 MLOAD PUSH2 0x3D9 SWAP2 SWAP1 PUSH2 0x30FB JUMP JUMPDEST PUSH1 0x40 MLOAD DUP1 SWAP2 SUB SWAP1 RETURN JUMPDEST PUSH2 0x3FC PUSH1 0x4 DUP1 CALLDATASIZE SUB DUP2 ADD SWAP1 PUSH2 0x3F7 SWAP2 SWAP1 PUSH2 0x2F46 JUMP JUMPDEST PUSH2 0x1233 JUMP JUMPDEST STOP JUMPDEST PUSH2 0x418 PUSH1 0x4 DUP1 CALLDATASIZE SUB DUP2 ADD SWAP1 PUSH2 0x413 SWAP2 SWAP1 PUSH2 0x3276 JUMP JUMPDEST PUSH2 0x13BD JUMP JUMPDEST PUSH1 0x40 MLOAD PUSH2 0x425 SWAP2 SWAP1 PUSH2 0x30FB JUMP JUMPDEST PUSH1 0x40 MLOAD DUP1 SWAP2 SUB SWAP1 RETURN JUMPDEST PUSH2 0x448 PUSH1 0x4 DUP1 CALLDATASIZE SUB DUP2 ADD SWAP1 PUSH2 0x443 SWAP2 SWAP1 PUSH2 0x2F46 JUMP JUMPDEST PUSH2 0x1405 JUMP JUMPDEST STOP JUMPDEST PUSH2 0x464 PUSH1 0x4 DUP1 CALLDATASIZE SUB DUP2 ADD SWAP1 PUSH2 0x45F SWAP2 SWAP1 PUSH2 0x2FA9 JUMP JUMPDEST PUSH2 0x14EC JUMP JUMPDEST PUSH1 0x40 MLOAD PUSH2 0x471 SWAP2 SWAP1 PUSH2 0x30FB JUMP JUMPDEST PUSH1 0x40 MLOAD DUP1 SWAP2 SUB SWAP1 RETURN JUMPDEST PUSH2 0x494 PUSH1 0x4 DUP1 CALLDATASIZE SUB DUP2 ADD SWAP1 PUSH2 0x48F SWAP2 SWAP1 PUSH2 0x32B6 JUMP JUMPDEST PUSH2 0x1510 JUMP JUMPDEST STOP JUMPDEST PUSH2 0x49E PUSH2 0x15F8 JUMP JUMPDEST STOP JUMPDEST PUSH2 0x4BA PUSH1 0x4 DUP1 CALLDATASIZE SUB DUP2 ADD SWAP1 PUSH2 0x4B5 SWAP2 SWAP1 PUSH2 0x32B6 JUMP JUMPDEST PUSH2 0x160C JUMP JUMPDEST STOP JUMPDEST PUSH2 0x4C4 PUSH2 0x17D8 JUMP JUMPDEST PUSH1 0x40 MLOAD PUSH2 0x4D1 SWAP2 SWAP1 PUSH2 0x30FB JUMP JUMPDEST PUSH1 0x40 MLOAD DUP1 SWAP2 SUB SWAP1 RETURN JUMPDEST PUSH2 0x4E2 PUSH2 0x17DE JUMP JUMPDEST PUSH1 0x40 MLOAD PUSH2 0x4EF SWAP2 SWAP1 PUSH2 0x31E1 JUMP JUMPDEST PUSH1 0x40 MLOAD DUP1 SWAP2 SUB SWAP1 RETURN JUMPDEST PUSH2 0x500 PUSH2 0x1807 JUMP JUMPDEST PUSH1 0x40 MLOAD PUSH2 0x50D SWAP2 SWAP1 PUSH2 0x30FB JUMP JUMPDEST PUSH1 0x40 MLOAD DUP1 SWAP2 SUB SWAP1 RETURN JUMPDEST PUSH2 0x530 PUSH1 0x4 DUP1 CALLDATASIZE SUB DUP2 ADD SWAP1 PUSH2 0x52B SWAP2 SWAP1 PUSH2 0x2FA9 JUMP JUMPDEST PUSH2 0x1902 JUMP JUMPDEST STOP JUMPDEST PUSH2 0x53A PUSH2 0x1AAE JUMP JUMPDEST PUSH1 0x40 MLOAD PUSH2 0x547 SWAP2 SWAP1 PUSH2 0x31E1 JUMP JUMPDEST PUSH1 0x40 MLOAD DUP1 SWAP2 SUB SWAP1 RETURN JUMPDEST PUSH2 0x56A PUSH1 0x4 DUP1 CALLDATASIZE SUB DUP2 ADD SWAP1 PUSH2 0x565 SWAP2 SWAP1 PUSH2 0x2F46 JUMP JUMPDEST PUSH2 0x1ABE JUMP JUMPDEST STOP JUMPDEST PUSH2 0x586 PUSH1 0x4 DUP1 CALLDATASIZE SUB DUP2 ADD SWAP1 PUSH2 0x581 SWAP2 SWAP1 PUSH2 0x32B6 JUMP JUMPDEST PUSH2 0x1C88 JUMP JUMPDEST PUSH1 0x40 MLOAD PUSH2 0x593 SWAP2 SWAP1 PUSH2 0x2FF1 JUMP JUMPDEST PUSH1 0x40 MLOAD DUP1 SWAP2 SUB SWAP1 RETURN JUMPDEST PUSH2 0x5B6 PUSH1 0x4 DUP1 CALLDATASIZE SUB DUP2 ADD SWAP1 PUSH2 0x5B1 SWAP2 SWAP1 PUSH2 0x2F46 JUMP JUMPDEST PUSH2 0x1DC0 JUMP JUMPDEST STOP JUMPDEST PUSH2 0x5D2 PUSH1 0x4 DUP1 CALLDATASIZE SUB DUP2 ADD SWAP1 PUSH2 0x5CD SWAP2 SWAP1 PUSH2 0x2FA9 JUMP JUMPDEST PUSH2 0x1F8B JUMP JUMPDEST PUSH1 0x40 MLOAD PUSH2 0x5DF SWAP2 SWAP1 PUSH2 0x31E1 JUMP JUMPDEST PUSH1 0x40 MLOAD DUP1 SWAP2 SUB SWAP1 RETURN JUMPDEST PUSH2 0x602 PUSH1 0x4 DUP1 CALLDATASIZE SUB DUP2 ADD SWAP1 PUSH2 0x5FD SWAP2 SWAP1 PUSH2 0x32B6 JUMP JUMPDEST PUSH2 0x1FF7 JUMP JUMPDEST STOP JUMPDEST PUSH2 0x61E PUSH1 0x4 DUP1 CALLDATASIZE SUB DUP2 ADD SWAP1 PUSH2 0x619 SWAP2 SWAP1 PUSH2 0x2F46 JUMP JUMPDEST PUSH2 0x21C2 JUMP JUMPDEST STOP JUMPDEST PUSH2 0x628 PUSH2 0x2245 JUMP JUMPDEST PUSH1 0x40 MLOAD PUSH2 0x635 SWAP2 SWAP1 PUSH2 0x3317 JUMP JUMPDEST PUSH1 0x40 MLOAD DUP1 SWAP2 SUB SWAP1 RETURN JUMPDEST PUSH2 0x646 PUSH2 0x226B JUMP JUMPDEST PUSH1 0x6 TIMESTAMP SWAP1 DUP1 PUSH1 0x1 DUP2 SLOAD ADD DUP1 DUP3 SSTORE DUP1 SWAP2 POP POP PUSH1 0x1 SWAP1 SUB SWAP1 PUSH1 0x0 MSTORE PUSH1 0x20 PUSH1 0x0 KECCAK256 ADD PUSH1 0x0 SWAP1 SWAP2 SWAP1 SWAP2 SWAP1 SWAP2 POP SSTORE PUSH1 0x5 DUP2 SWAP1 DUP1 PUSH1 0x1 DUP2 SLOAD ADD DUP1 DUP3 SSTORE DUP1 SWAP2 POP POP PUSH1 0x1 SWAP1 SUB SWAP1 PUSH1 0x0 MSTORE PUSH1 0x20 PUSH1 0x0 KECCAK256 ADD PUSH1 0x0 SWAP1 SWAP2 SWAP1 SWAP2 SWAP1 SWAP2 PUSH2 0x100 EXP DUP2 SLOAD DUP2 PUSH20 0xFFFFFFFFFFFFFFFFFFFFFFFFFFFFFFFFFFFFFFFF MUL NOT AND SWAP1 DUP4 PUSH20 0xFFFFFFFFFFFFFFFFFFFFFFFFFFFFFFFFFFFFFFFF AND MUL OR SWAP1 SSTORE POP DUP1 PUSH20 0xFFFFFFFFFFFFFFFFFFFFFFFFFFFFFFFFFFFFFFFF AND PUSH32 0x7B3D6578175180DC481DF4D00E708332D71786E9A44D81B29D2D48174F17C189 PUSH1 0x40 MLOAD PUSH1 0x40 MLOAD DUP1 SWAP2 SUB SWAP1 LOG2 POP JUMP JUMPDEST CALLER PUSH1 0x0 PUSH1 0x1 PUSH1 0x0 DUP4 PUSH20 0xFFFFFFFFFFFFFFFFFFFFFFFFFFFFFFFFFFFFFFFF AND PUSH20 0xFFFFFFFFFFFFFFFFFFFFFFFFFFFFFFFFFFFFFFFF AND DUP2 MSTORE PUSH1 0x20 ADD SWAP1 DUP2 MSTORE PUSH1 0x20 ADD PUSH1 0x0 KECCAK256 SLOAD GT PUSH2 0x79B JUMPI PUSH1 0x40 MLOAD PUSH32 0x8C379A000000000000000000000000000000000000000000000000000000000 DUP2 MSTORE PUSH1 0x4 ADD PUSH2 0x792 SWAP1 PUSH2 0x338F JUMP JUMPDEST PUSH1 0x40 MLOAD DUP1 SWAP2 SUB SWAP1 REVERT JUMPDEST PUSH1 0x0 PUSH1 0x2 PUSH1 0x1 DUP1 PUSH1 0x0 CALLER PUSH20 0xFFFFFFFFFFFFFFFFFFFFFFFFFFFFFFFFFFFFFFFF AND PUSH20 0xFFFFFFFFFFFFFFFFFFFFFFFFFFFFFFFFFFFFFFFF AND DUP2 MSTORE PUSH1 0x20 ADD SWAP1 DUP2 MSTORE PUSH1 0x20 ADD PUSH1 0x0 KECCAK256 SLOAD PUSH2 0x7EA SWAP2 SWAP1 PUSH2 0x33DE JUMP JUMPDEST DUP2 SLOAD DUP2 LT PUSH2 0x7FB JUMPI PUSH2 0x7FA PUSH2 0x3412 JUMP JUMPDEST JUMPDEST SWAP1 PUSH1 0x0 MSTORE PUSH1 0x20 PUSH1 0x0 KECCAK256 SWAP1 PUSH1 0x5 MUL ADD PUSH1 0x4 ADD SLOAD SWAP1 POP DUP3 DUP2 LT ISZERO PUSH2 0x81B JUMPI DUP1 SWAP3 POP JUMPDEST PUSH1 0x0 DUP4 GT ISZERO PUSH2 0xA3C JUMPI PUSH1 0x0 PUSH1 0x4 PUSH1 0x0 SWAP1 SLOAD SWAP1 PUSH2 0x100 EXP SWAP1 DIV PUSH20 0xFFFFFFFFFFFFFFFFFFFFFFFFFFFFFFFFFFFFFFFF AND PUSH20 0xFFFFFFFFFFFFFFFFFFFFFFFFFFFFFFFFFFFFFFFF AND PUSH4 0x23B872DD CALLER ADDRESS PUSH20 0xFFFFFFFFFFFFFFFFFFFFFFFFFFFFFFFFFFFFFFFF AND PUSH4 0x8DA5CB5B PUSH1 0x40 MLOAD DUP2 PUSH4 0xFFFFFFFF AND PUSH1 0xE0 SHL DUP2 MSTORE PUSH1 0x4 ADD PUSH1 0x20 PUSH1 0x40 MLOAD DUP1 DUP4 SUB DUP2 DUP7 GAS STATICCALL ISZERO DUP1 ISZERO PUSH2 0x8B0 JUMPI RETURNDATASIZE PUSH1 0x0 DUP1 RETURNDATACOPY RETURNDATASIZE PUSH1 0x0 REVERT JUMPDEST POP POP POP POP PUSH1 0x40 MLOAD RETURNDATASIZE PUSH1 0x1F NOT PUSH1 0x1F DUP3 ADD AND DUP3 ADD DUP1 PUSH1 0x40 MSTORE POP DUP2 ADD SWAP1 PUSH2 0x8D4 SWAP2 SWAP1 PUSH2 0x3456 JUMP JUMPDEST DUP8 PUSH1 0x40 MLOAD DUP5 PUSH4 0xFFFFFFFF AND PUSH1 0xE0 SHL DUP2 MSTORE PUSH1 0x4 ADD PUSH2 0x8F3 SWAP4 SWAP3 SWAP2 SWAP1 PUSH2 0x3483 JUMP JUMPDEST PUSH1 0x20 PUSH1 0x40 MLOAD DUP1 DUP4 SUB DUP2 PUSH1 0x0 DUP8 GAS CALL ISZERO DUP1 ISZERO PUSH2 0x912 JUMPI RETURNDATASIZE PUSH1 0x0 DUP1 RETURNDATACOPY RETURNDATASIZE PUSH1 0x0 REVERT JUMPDEST POP POP POP POP PUSH1 0x40 MLOAD RETURNDATASIZE PUSH1 0x1F NOT PUSH1 0x1F DUP3 ADD AND DUP3 ADD DUP1 PUSH1 0x40 MSTORE POP DUP2 ADD SWAP1 PUSH2 0x936 SWAP2 SWAP1 PUSH2 0x34E6 JUMP JUMPDEST SWAP1 POP DUP1 PUSH2 0x978 JUMPI PUSH1 0x40 MLOAD PUSH32 0x8C379A000000000000000000000000000000000000000000000000000000000 DUP2 MSTORE PUSH1 0x4 ADD PUSH2 0x96F SWAP1 PUSH2 0x355F JUMP JUMPDEST PUSH1 0x40 MLOAD DUP1 SWAP2 SUB SWAP1 REVERT JUMPDEST DUP4 DUP3 PUSH2 0x984 SWAP2 SWAP1 PUSH2 0x33DE JUMP JUMPDEST PUSH1 0x2 PUSH1 0x1 DUP1 PUSH1 0x0 CALLER PUSH20 0xFFFFFFFFFFFFFFFFFFFFFFFFFFFFFFFFFFFFFFFF AND PUSH20 0xFFFFFFFFFFFFFFFFFFFFFFFFFFFFFFFFFFFFFFFF AND DUP2 MSTORE PUSH1 0x20 ADD SWAP1 DUP2 MSTORE PUSH1 0x20 ADD PUSH1 0x0 KECCAK256 SLOAD PUSH2 0x9D1 SWAP2 SWAP1 PUSH2 0x33DE JUMP JUMPDEST DUP2 SLOAD DUP2 LT PUSH2 0x9E2 JUMPI PUSH2 0x9E1 PUSH2 0x3412 JUMP JUMPDEST JUMPDEST SWAP1 PUSH1 0x0 MSTORE PUSH1 0x20 PUSH1 0x0 KECCAK256 SWAP1 PUSH1 0x5 MUL ADD PUSH1 0x4 ADD DUP2 SWAP1 SSTORE POP CALLER PUSH20 0xFFFFFFFFFFFFFFFFFFFFFFFFFFFFFFFFFFFFFFFF AND PUSH32 0x7CD5F45A99992ACF8A3C4F46FBC2636E3CD3B0221F95B6ECC35B685887855CF7 PUSH1 0x40 MLOAD PUSH1 0x40 MLOAD DUP1 SWAP2 SUB SWAP1 LOG2 POP JUMPDEST POP POP POP JUMP JUMPDEST PUSH1 0x0 DUP2 PUSH1 0x0 PUSH1 0x1 PUSH1 0x0 DUP4 PUSH20 0xFFFFFFFFFFFFFFFFFFFFFFFFFFFFFFFFFFFFFFFF AND PUSH20 0xFFFFFFFFFFFFFFFFFFFFFFFFFFFFFFFFFFFFFFFF AND DUP2 MSTORE PUSH1 0x20 ADD SWAP1 DUP2 MSTORE PUSH1 0x20 ADD PUSH1 0x0 KECCAK256 SLOAD GT PUSH2 0xAC6 JUMPI PUSH1 0x40 MLOAD PUSH32 0x8C379A000000000000000000000000000000000000000000000000000000000 DUP2 MSTORE PUSH1 0x4 ADD PUSH2 0xABD SWAP1 PUSH2 0x338F JUMP JUMPDEST PUSH1 0x40 MLOAD DUP1 SWAP2 SUB SWAP1 REVERT JUMPDEST PUSH1 0x1 ISZERO ISZERO PUSH1 0x7 PUSH1 0x14 SWAP1 SLOAD SWAP1 PUSH2 0x100 EXP SWAP1 DIV PUSH1 0xFF AND ISZERO ISZERO EQ PUSH2 0xB1C JUMPI PUSH1 0x40 MLOAD PUSH32 0x8C379A000000000000000000000000000000000000000000000000000000000 DUP2 MSTORE PUSH1 0x4 ADD PUSH2 0xB13 SWAP1 PUSH2 0x35F1 JUMP JUMPDEST PUSH1 0x40 MLOAD DUP1 SWAP2 SUB SWAP1 REVERT JUMPDEST PUSH1 0x2 PUSH1 0x1 DUP1 PUSH1 0x0 DUP7 PUSH20 0xFFFFFFFFFFFFFFFFFFFFFFFFFFFFFFFFFFFFFFFF AND PUSH20 0xFFFFFFFFFFFFFFFFFFFFFFFFFFFFFFFFFFFFFFFF AND DUP2 MSTORE PUSH1 0x20 ADD SWAP1 DUP2 MSTORE PUSH1 0x20 ADD PUSH1 0x0 KECCAK256 SLOAD PUSH2 0xB69 SWAP2 SWAP1 PUSH2 0x33DE JUMP JUMPDEST DUP2 SLOAD DUP2 LT PUSH2 0xB7A JUMPI PUSH2 0xB79 PUSH2 0x3412 JUMP JUMPDEST JUMPDEST SWAP1 PUSH1 0x0 MSTORE PUSH1 0x20 PUSH1 0x0 KECCAK256 SWAP1 PUSH1 0x5 MUL ADD PUSH1 0x3 ADD PUSH1 0x0 SWAP1 SLOAD SWAP1 PUSH2 0x100 EXP SWAP1 DIV PUSH1 0xFF AND SWAP2 POP POP SWAP2 SWAP1 POP JUMP JUMPDEST PUSH1 0x60 DUP2 PUSH1 0x0 PUSH1 0x1 PUSH1 0x0 DUP4 PUSH20 0xFFFFFFFFFFFFFFFFFFFFFFFFFFFFFFFFFFFFFFFF AND PUSH20 0xFFFFFFFFFFFFFFFFFFFFFFFFFFFFFFFFFFFFFFFF AND DUP2 MSTORE PUSH1 0x20 ADD SWAP1 DUP2 MSTORE PUSH1 0x20 ADD PUSH1 0x0 KECCAK256 SLOAD GT PUSH2 0xC26 JUMPI PUSH1 0x40 MLOAD PUSH32 0x8C379A000000000000000000000000000000000000000000000000000000000 DUP2 MSTORE PUSH1 0x4 ADD PUSH2 0xC1D SWAP1 PUSH2 0x338F JUMP JUMPDEST PUSH1 0x40 MLOAD DUP1 SWAP2 SUB SWAP1 REVERT JUMPDEST PUSH1 0x2 PUSH1 0x1 DUP1 PUSH1 0x0 DUP7 PUSH20 0xFFFFFFFFFFFFFFFFFFFFFFFFFFFFFFFFFFFFFFFF AND PUSH20 0xFFFFFFFFFFFFFFFFFFFFFFFFFFFFFFFFFFFFFFFF AND DUP2 MSTORE PUSH1 0x20 ADD SWAP1 DUP2 MSTORE PUSH1 0x20 ADD PUSH1 0x0 KECCAK256 SLOAD PUSH2 0xC73 SWAP2 SWAP1 PUSH2 0x33DE JUMP JUMPDEST DUP2 SLOAD DUP2 LT PUSH2 0xC84 JUMPI PUSH2 0xC83 PUSH2 0x3412 JUMP JUMPDEST JUMPDEST SWAP1 PUSH1 0x0 MSTORE PUSH1 0x20 PUSH1 0x0 KECCAK256 SWAP1 PUSH1 0x5 MUL ADD PUSH1 0x1 ADD DUP1 SLOAD DUP1 PUSH1 0x20 MUL PUSH1 0x20 ADD PUSH1 0x40 MLOAD SWAP1 DUP2 ADD PUSH1 0x40 MSTORE DUP1 SWAP3 SWAP2 SWAP1 DUP2 DUP2 MSTORE PUSH1 0x20 ADD DUP3 DUP1 SLOAD DUP1 ISZERO PUSH2 0xCDF JUMPI PUSH1 0x20 MUL DUP3 ADD SWAP2 SWAP1 PUSH1 0x0 MSTORE PUSH1 0x20 PUSH1 0x0 KECCAK256 SWAP1 JUMPDEST DUP2 SLOAD DUP2 MSTORE PUSH1 0x20 ADD SWAP1 PUSH1 0x1 ADD SWAP1 DUP1 DUP4 GT PUSH2 0xCCB JUMPI JUMPDEST POP POP POP POP POP SWAP2 POP POP SWAP2 SWAP1 POP JUMP JUMPDEST PUSH1 0x1 PUSH1 0x20 MSTORE DUP1 PUSH1 0x0 MSTORE PUSH1 0x40 PUSH1 0x0 KECCAK256 PUSH1 0x0 SWAP2 POP SWAP1 POP SLOAD DUP2 JUMP JUMPDEST PUSH1 0x0 DUP1 PUSH1 0x0 SWAP1 POP PUSH1 0x0 JUMPDEST PUSH1 0x3 SLOAD DUP2 LT ISZERO PUSH2 0xD48 JUMPI PUSH2 0xD22 DUP2 DUP6 PUSH2 0x22E9 JUMP JUMPDEST ISZERO PUSH2 0xD37 JUMPI PUSH1 0x1 DUP3 PUSH2 0xD34 SWAP2 SWAP1 PUSH2 0x3611 JUMP JUMPDEST SWAP2 POP JUMPDEST DUP1 PUSH2 0xD41 SWAP1 PUSH2 0x3645 JUMP JUMPDEST SWAP1 POP PUSH2 0xD0E JUMP JUMPDEST POP DUP1 SWAP2 POP POP SWAP2 SWAP1 POP JUMP JUMPDEST PUSH1 0x2 DUP2 DUP2 SLOAD DUP2 LT PUSH2 0xD62 JUMPI PUSH1 0x0 DUP1 REVERT JUMPDEST SWAP1 PUSH1 0x0 MSTORE PUSH1 0x20 PUSH1 0x0 KECCAK256 SWAP1 PUSH1 0x5 MUL ADD PUSH1 0x0 SWAP2 POP SWAP1 POP DUP1 PUSH1 0x0 ADD PUSH1 0x0 SWAP1 SLOAD SWAP1 PUSH2 0x100 EXP SWAP1 DIV PUSH1 0xFF AND SWAP1 DUP1 PUSH1 0x2 ADD SLOAD SWAP1 DUP1 PUSH1 0x3 ADD PUSH1 0x0 SWAP1 SLOAD SWAP1 PUSH2 0x100 EXP SWAP1 DIV PUSH1 0xFF AND SWAP1 DUP1 PUSH1 0x4 ADD SLOAD SWAP1 POP DUP5 JUMP JUMPDEST PUSH2 0xDB4 PUSH2 0x226B JUMP JUMPDEST DUP1 PUSH1 0x0 PUSH1 0x1 PUSH1 0x0 DUP4 PUSH20 0xFFFFFFFFFFFFFFFFFFFFFFFFFFFFFFFFFFFFFFFF AND PUSH20 0xFFFFFFFFFFFFFFFFFFFFFFFFFFFFFFFFFFFFFFFF AND DUP2 MSTORE PUSH1 0x20 ADD SWAP1 DUP2 MSTORE PUSH1 0x20 ADD PUSH1 0x0 KECCAK256 SLOAD GT PUSH2 0xE37 JUMPI PUSH1 0x40 MLOAD PUSH32 0x8C379A000000000000000000000000000000000000000000000000000000000 DUP2 MSTORE PUSH1 0x4 ADD PUSH2 0xE2E SWAP1 PUSH2 0x338F JUMP JUMPDEST PUSH1 0x40 MLOAD DUP1 SWAP2 SUB SWAP1 REVERT JUMPDEST PUSH1 0x0 PUSH1 0x2 PUSH1 0x1 DUP1 PUSH1 0x0 DUP7 PUSH20 0xFFFFFFFFFFFFFFFFFFFFFFFFFFFFFFFFFFFFFFFF AND PUSH20 0xFFFFFFFFFFFFFFFFFFFFFFFFFFFFFFFFFFFFFFFF AND DUP2 MSTORE PUSH1 0x20 ADD SWAP1 DUP2 MSTORE PUSH1 0x20 ADD PUSH1 0x0 KECCAK256 SLOAD PUSH2 0xE86 SWAP2 SWAP1 PUSH2 0x33DE JUMP JUMPDEST DUP2 SLOAD DUP2 LT PUSH2 0xE97 JUMPI PUSH2 0xE96 PUSH2 0x3412 JUMP JUMPDEST JUMPDEST SWAP1 PUSH1 0x0 MSTORE PUSH1 0x20 PUSH1 0x0 KECCAK256 SWAP1 PUSH1 0x5 MUL ADD SWAP1 POP PUSH1 0x0 PUSH1 0x1 DUP2 GT ISZERO PUSH2 0xEBB JUMPI PUSH2 0xEBA PUSH2 0x3116 JUMP JUMPDEST JUMPDEST DUP2 PUSH1 0x0 ADD PUSH1 0x0 SWAP1 SLOAD SWAP1 PUSH2 0x100 EXP SWAP1 DIV PUSH1 0xFF AND PUSH1 0x1 DUP2 GT ISZERO PUSH2 0xEDF JUMPI PUSH2 0xEDE PUSH2 0x3116 JUMP JUMPDEST JUMPDEST EQ PUSH2 0xF1F JUMPI PUSH1 0x40 MLOAD PUSH32 0x8C379A000000000000000000000000000000000000000000000000000000000 DUP2 MSTORE PUSH1 0x4 ADD PUSH2 0xF16 SWAP1 PUSH2 0x36D9 JUMP JUMPDEST PUSH1 0x40 MLOAD DUP1 SWAP2 SUB SWAP1 REVERT JUMPDEST PUSH1 0x1 DUP2 PUSH1 0x0 ADD PUSH1 0x0 PUSH2 0x100 EXP DUP2 SLOAD DUP2 PUSH1 0xFF MUL NOT AND SWAP1 DUP4 PUSH1 0x1 DUP2 GT ISZERO PUSH2 0xF47 JUMPI PUSH2 0xF46 PUSH2 0x3116 JUMP JUMPDEST JUMPDEST MUL OR SWAP1 SSTORE POP DUP3 PUSH20 0xFFFFFFFFFFFFFFFFFFFFFFFFFFFFFFFFFFFFFFFF AND PUSH32 0x798117EC059AB8D319461EF2502B1F9D8A47CD966BFD1F3E23B6F26C30BEBB77 PUSH1 0x40 MLOAD PUSH1 0x40 MLOAD DUP1 SWAP2 SUB SWAP1 LOG2 POP POP POP JUMP JUMPDEST PUSH1 0x7 PUSH1 0x0 SWAP1 SLOAD SWAP1 PUSH2 0x100 EXP SWAP1 DIV PUSH20 0xFFFFFFFFFFFFFFFFFFFFFFFFFFFFFFFFFFFFFFFF AND DUP2 JUMP JUMPDEST PUSH1 0x5 DUP2 DUP2 SLOAD DUP2 LT PUSH2 0xFCA JUMPI PUSH1 0x0 DUP1 REVERT JUMPDEST SWAP1 PUSH1 0x0 MSTORE PUSH1 0x20 PUSH1 0x0 KECCAK256 ADD PUSH1 0x0 SWAP2 POP SLOAD SWAP1 PUSH2 0x100 EXP SWAP1 DIV PUSH20 0xFFFFFFFFFFFFFFFFFFFFFFFFFFFFFFFFFFFFFFFF AND DUP2 JUMP JUMPDEST PUSH2 0x1001 PUSH2 0x226B JUMP JUMPDEST DUP1 PUSH1 0x0 PUSH1 0x1 PUSH1 0x0 DUP4 PUSH20 0xFFFFFFFFFFFFFFFFFFFFFFFFFFFFFFFFFFFFFFFF AND PUSH20 0xFFFFFFFFFFFFFFFFFFFFFFFFFFFFFFFFFFFFFFFF AND DUP2 MSTORE PUSH1 0x20 ADD SWAP1 DUP2 MSTORE PUSH1 0x20 ADD PUSH1 0x0 KECCAK256 SLOAD GT DUP1 ISZERO PUSH2 0x10F0 JUMPI POP PUSH1 0x1 DUP1 DUP2 GT ISZERO PUSH2 0x105F JUMPI PUSH2 0x105E PUSH2 0x3116 JUMP JUMPDEST JUMPDEST PUSH1 0x2 PUSH1 0x1 DUP1 PUSH1 0x0 DUP6 PUSH20 0xFFFFFFFFFFFFFFFFFFFFFFFFFFFFFFFFFFFFFFFF AND PUSH20 0xFFFFFFFFFFFFFFFFFFFFFFFFFFFFFFFFFFFFFFFF AND DUP2 MSTORE PUSH1 0x20 ADD SWAP1 DUP2 MSTORE PUSH1 0x20 ADD PUSH1 0x0 KECCAK256 SLOAD PUSH2 0x10AC SWAP2 SWAP1 PUSH2 0x33DE JUMP JUMPDEST DUP2 SLOAD DUP2 LT PUSH2 0x10BD JUMPI PUSH2 0x10BC PUSH2 0x3412 JUMP JUMPDEST JUMPDEST SWAP1 PUSH1 0x0 MSTORE PUSH1 0x20 PUSH1 0x0 KECCAK256 SWAP1 PUSH1 0x5 MUL ADD PUSH1 0x0 ADD PUSH1 0x0 SWAP1 SLOAD SWAP1 PUSH2 0x100 EXP SWAP1 DIV PUSH1 0xFF AND PUSH1 0x1 DUP2 GT ISZERO PUSH2 0x10EE JUMPI PUSH2 0x10ED PUSH2 0x3116 JUMP JUMPDEST JUMPDEST EQ JUMPDEST PUSH2 0x112F JUMPI PUSH1 0x40 MLOAD PUSH32 0x8C379A000000000000000000000000000000000000000000000000000000000 DUP2 MSTORE PUSH1 0x4 ADD PUSH2 0x1126 SWAP1 PUSH2 0x3745 JUMP JUMPDEST PUSH1 0x40 MLOAD DUP1 SWAP2 SUB SWAP1 REVERT JUMPDEST PUSH1 0x0 PUSH1 0x2 PUSH1 0x1 DUP1 PUSH1 0x0 DUP7 PUSH20 0xFFFFFFFFFFFFFFFFFFFFFFFFFFFFFFFFFFFFFFFF AND PUSH20 0xFFFFFFFFFFFFFFFFFFFFFFFFFFFFFFFFFFFFFFFF AND DUP2 MSTORE PUSH1 0x20 ADD SWAP1 DUP2 MSTORE PUSH1 0x20 ADD PUSH1 0x0 KECCAK256 SLOAD PUSH2 0x117E SWAP2 SWAP1 PUSH2 0x33DE JUMP JUMPDEST DUP2 SLOAD DUP2 LT PUSH2 0x118F JUMPI PUSH2 0x118E PUSH2 0x3412 JUMP JUMPDEST JUMPDEST SWAP1 PUSH1 0x0 MSTORE PUSH1 0x20 PUSH1 0x0 KECCAK256 SWAP1 PUSH1 0x5 MUL ADD PUSH1 0x0 ADD PUSH1 0x0 PUSH2 0x100 EXP DUP2 SLOAD DUP2 PUSH1 0xFF MUL NOT AND SWAP1 DUP4 PUSH1 0x1 DUP2 GT ISZERO PUSH2 0x11C2 JUMPI PUSH2 0x11C1 PUSH2 0x3116 JUMP JUMPDEST JUMPDEST MUL OR SWAP1 SSTORE POP PUSH1 0x0 DUP3 PUSH20 0xFFFFFFFFFFFFFFFFFFFFFFFFFFFFFFFFFFFFFFFF AND PUSH32 0x1105CBF79BA9AEC674E68BAFC67545B3E180703742C1AD6AF4AB85FD0D5C4CDD PUSH1 0x40 MLOAD PUSH1 0x40 MLOAD DUP1 SWAP2 SUB SWAP1 LOG3 POP POP JUMP JUMPDEST PUSH1 0x7 PUSH1 0x14 SWAP1 SLOAD SWAP1 PUSH2 0x100 EXP SWAP1 DIV PUSH1 0xFF AND DUP2 JUMP JUMPDEST PUSH1 0x0 PUSH2 0x122E TIMESTAMP PUSH2 0xD04 JUMP JUMPDEST SWAP1 POP SWAP1 JUMP JUMPDEST PUSH2 0x123B PUSH2 0x226B JUMP JUMPDEST PUSH1 0x0 PUSH1 0x1 PUSH1 0x0 DUP4 PUSH20 0xFFFFFFFFFFFFFFFFFFFFFFFFFFFFFFFFFFFFFFFF AND PUSH20 0xFFFFFFFFFFFFFFFFFFFFFFFFFFFFFFFFFFFFFFFF AND DUP2 MSTORE PUSH1 0x20 ADD SWAP1 DUP2 MSTORE PUSH1 0x20 ADD PUSH1 0x0 KECCAK256 SLOAD EQ PUSH2 0x12BD JUMPI PUSH1 0x40 MLOAD PUSH32 0x8C379A000000000000000000000000000000000000000000000000000000000 DUP2 MSTORE PUSH1 0x4 ADD PUSH2 0x12B4 SWAP1 PUSH2 0x37B1 JUMP JUMPDEST PUSH1 0x40 MLOAD DUP1 SWAP2 SUB SWAP1 REVERT JUMPDEST PUSH1 0x2 PUSH1 0x1 DUP2 PUSH1 0x1 DUP2 SLOAD ADD DUP1 DUP3 SSTORE DUP1 SWAP2 POP POP SUB SWAP1 PUSH1 0x0 MSTORE PUSH1 0x20 PUSH1 0x0 KECCAK256 SWAP1 POP POP PUSH1 0x1 PUSH1 0x3 PUSH1 0x0 DUP3 DUP3 SLOAD PUSH2 0x12EE SWAP2 SWAP1 PUSH2 0x3611 JUMP JUMPDEST SWAP3 POP POP DUP2 SWAP1 SSTORE POP PUSH1 0x3 SLOAD PUSH1 0x1 PUSH1 0x0 DUP4 PUSH20 0xFFFFFFFFFFFFFFFFFFFFFFFFFFFFFFFFFFFFFFFF AND PUSH20 0xFFFFFFFFFFFFFFFFFFFFFFFFFFFFFFFFFFFFFFFF AND DUP2 MSTORE PUSH1 0x20 ADD SWAP1 DUP2 MSTORE PUSH1 0x20 ADD PUSH1 0x0 KECCAK256 DUP2 SWAP1 SSTORE POP PUSH1 0x0 PUSH1 0x2 PUSH1 0x1 PUSH1 0x3 SLOAD PUSH2 0x134E SWAP2 SWAP1 PUSH2 0x33DE JUMP JUMPDEST DUP2 SLOAD DUP2 LT PUSH2 0x135F JUMPI PUSH2 0x135E PUSH2 0x3412 JUMP JUMPDEST JUMPDEST SWAP1 PUSH1 0x0 MSTORE PUSH1 0x20 PUSH1 0x0 KECCAK256 SWAP1 PUSH1 0x5 MUL ADD SWAP1 POP PUSH1 0x1 DUP2 PUSH1 0x0 ADD PUSH1 0x0 PUSH2 0x100 EXP DUP2 SLOAD DUP2 PUSH1 0xFF MUL NOT AND SWAP1 DUP4 PUSH1 0x1 DUP2 GT ISZERO PUSH2 0x1397 JUMPI PUSH2 0x1396 PUSH2 0x3116 JUMP JUMPDEST JUMPDEST MUL OR SWAP1 SSTORE POP PUSH1 0x0 DUP2 PUSH1 0x3 ADD PUSH1 0x0 PUSH2 0x100 EXP DUP2 SLOAD DUP2 PUSH1 0xFF MUL NOT AND SWAP1 DUP4 ISZERO ISZERO MUL OR SWAP1 SSTORE POP POP POP JUMP JUMPDEST PUSH1 0x0 DUP1 PUSH1 0x0 SWAP1 POP PUSH1 0x0 JUMPDEST PUSH1 0x3 SLOAD DUP2 LT ISZERO PUSH2 0x13FA JUMPI PUSH2 0x13DC DUP2 DUP7 DUP7 PUSH2 0x241D JUMP JUMPDEST DUP3 PUSH2 0x13E7 SWAP2 SWAP1 PUSH2 0x3611 JUMP JUMPDEST SWAP2 POP DUP1 PUSH2 0x13F3 SWAP1 PUSH2 0x3645 JUMP JUMPDEST SWAP1 POP PUSH2 0x13C7 JUMP JUMPDEST POP DUP1 SWAP2 POP POP SWAP3 SWAP2 POP POP JUMP JUMPDEST DUP1 PUSH1 0x0 PUSH1 0x1 PUSH1 0x0 DUP4 PUSH20 0xFFFFFFFFFFFFFFFFFFFFFFFFFFFFFFFFFFFFFFFF AND PUSH20 0xFFFFFFFFFFFFFFFFFFFFFFFFFFFFFFFFFFFFFFFF AND DUP2 MSTORE PUSH1 0x20 ADD SWAP1 DUP2 MSTORE PUSH1 0x20 ADD PUSH1 0x0 KECCAK256 SLOAD GT PUSH2 0x1488 JUMPI PUSH1 0x40 MLOAD PUSH32 0x8C379A000000000000000000000000000000000000000000000000000000000 DUP2 MSTORE PUSH1 0x4 ADD PUSH2 0x147F SWAP1 PUSH2 0x338F JUMP JUMPDEST PUSH1 0x40 MLOAD DUP1 SWAP2 SUB SWAP1 REVERT JUMPDEST PUSH1 0x1 ISZERO ISZERO PUSH1 0x7 PUSH1 0x14 SWAP1 SLOAD SWAP1 PUSH2 0x100 EXP SWAP1 DIV PUSH1 0xFF AND ISZERO ISZERO EQ PUSH2 0x14DE JUMPI PUSH1 0x40 MLOAD PUSH32 0x8C379A000000000000000000000000000000000000000000000000000000000 DUP2 MSTORE PUSH1 0x4 ADD PUSH2 0x14D5 SWAP1 PUSH2 0x35F1 JUMP JUMPDEST PUSH1 0x40 MLOAD DUP1 SWAP2 SUB SWAP1 REVERT JUMPDEST PUSH2 0x14E8 DUP3 TIMESTAMP PUSH2 0x25F9 JUMP JUMPDEST POP POP JUMP JUMPDEST PUSH1 0x6 DUP2 DUP2 SLOAD DUP2 LT PUSH2 0x14FC JUMPI PUSH1 0x0 DUP1 REVERT JUMPDEST SWAP1 PUSH1 0x0 MSTORE PUSH1 0x20 PUSH1 0x0 KECCAK256 ADD PUSH1 0x0 SWAP2 POP SWAP1 POP SLOAD DUP2 JUMP JUMPDEST DUP2 PUSH1 0x0 PUSH1 0x1 PUSH1 0x0 DUP4 PUSH20 0xFFFFFFFFFFFFFFFFFFFFFFFFFFFFFFFFFFFFFFFF AND PUSH20 0xFFFFFFFFFFFFFFFFFFFFFFFFFFFFFFFFFFFFFFFF AND DUP2 MSTORE PUSH1 0x20 ADD SWAP1 DUP2 MSTORE PUSH1 0x20 ADD PUSH1 0x0 KECCAK256 SLOAD GT PUSH2 0x1593 JUMPI PUSH1 0x40 MLOAD PUSH32 0x8C379A000000000000000000000000000000000000000000000000000000000 DUP2 MSTORE PUSH1 0x4 ADD PUSH2 0x158A SWAP1 PUSH2 0x338F JUMP JUMPDEST PUSH1 0x40 MLOAD DUP1 SWAP2 SUB SWAP1 REVERT JUMPDEST PUSH1 0x0 ISZERO ISZERO PUSH1 0x7 PUSH1 0x14 SWAP1 SLOAD SWAP1 PUSH2 0x100 EXP SWAP1 DIV PUSH1 0xFF AND ISZERO ISZERO EQ PUSH2 0x15E9 JUMPI PUSH1 0x40 MLOAD PUSH32 0x8C379A000000000000000000000000000000000000000000000000000000000 DUP2 MSTORE PUSH1 0x4 ADD PUSH2 0x15E0 SWAP1 PUSH2 0x3843 JUMP JUMPDEST PUSH1 0x40 MLOAD DUP1 SWAP2 SUB SWAP1 REVERT JUMPDEST PUSH2 0x15F3 DUP4 DUP4 PUSH2 0x25F9 JUMP JUMPDEST POP POP POP JUMP JUMPDEST PUSH2 0x1600 PUSH2 0x226B JUMP JUMPDEST PUSH2 0x160A PUSH1 0x0 PUSH2 0x2923 JUMP JUMPDEST JUMP JUMPDEST DUP2 PUSH1 0x0 PUSH1 0x1 PUSH1 0x0 DUP4 PUSH20 0xFFFFFFFFFFFFFFFFFFFFFFFFFFFFFFFFFFFFFFFF AND PUSH20 0xFFFFFFFFFFFFFFFFFFFFFFFFFFFFFFFFFFFFFFFF AND DUP2 MSTORE PUSH1 0x20 ADD SWAP1 DUP2 MSTORE PUSH1 0x20 ADD PUSH1 0x0 KECCAK256 SLOAD GT PUSH2 0x168F JUMPI PUSH1 0x40 MLOAD PUSH32 0x8C379A000000000000000000000000000000000000000000000000000000000 DUP2 MSTORE PUSH1 0x4 ADD PUSH2 0x1686 SWAP1 PUSH2 0x338F JUMP JUMPDEST PUSH1 0x40 MLOAD DUP1 SWAP2 SUB SWAP1 REVERT JUMPDEST PUSH1 0x0 ISZERO ISZERO PUSH1 0x7 PUSH1 0x14 SWAP1 SLOAD SWAP1 PUSH2 0x100 EXP SWAP1 DIV PUSH1 0xFF AND ISZERO ISZERO EQ PUSH2 0x16E5 JUMPI PUSH1 0x40 MLOAD PUSH32 0x8C379A000000000000000000000000000000000000000000000000000000000 DUP2 MSTORE PUSH1 0x4 ADD PUSH2 0x16DC SWAP1 PUSH2 0x3843 JUMP JUMPDEST PUSH1 0x40 MLOAD DUP1 SWAP2 SUB SWAP1 REVERT JUMPDEST DUP3 PUSH1 0x0 PUSH1 0x2 PUSH1 0x1 DUP1 PUSH1 0x0 DUP6 PUSH20 0xFFFFFFFFFFFFFFFFFFFFFFFFFFFFFFFFFFFFFFFF AND PUSH20 0xFFFFFFFFFFFFFFFFFFFFFFFFFFFFFFFFFFFFFFFF AND DUP2 MSTORE PUSH1 0x20 ADD SWAP1 DUP2 MSTORE PUSH1 0x20 ADD PUSH1 0x0 KECCAK256 SLOAD PUSH2 0x1735 SWAP2 SWAP1 PUSH2 0x33DE JUMP JUMPDEST DUP2 SLOAD DUP2 LT PUSH2 0x1746 JUMPI PUSH2 0x1745 PUSH2 0x3412 JUMP JUMPDEST JUMPDEST SWAP1 PUSH1 0x0 MSTORE PUSH1 0x20 PUSH1 0x0 KECCAK256 SWAP1 PUSH1 0x5 MUL ADD SWAP1 POP PUSH1 0x0 PUSH1 0x2 DUP3 PUSH1 0x1 ADD DUP1 SLOAD SWAP1 POP PUSH2 0x176C SWAP2 SWAP1 PUSH2 0x3892 JUMP JUMPDEST EQ DUP1 ISZERO PUSH2 0x1788 JUMPI POP DUP1 PUSH1 0x3 ADD PUSH1 0x0 SWAP1 SLOAD SWAP1 PUSH2 0x100 EXP SWAP1 DIV PUSH1 0xFF AND ISZERO JUMPDEST PUSH2 0x17C7 JUMPI PUSH1 0x40 MLOAD PUSH32 0x8C379A000000000000000000000000000000000000000000000000000000000 DUP2 MSTORE PUSH1 0x4 ADD PUSH2 0x17BE SWAP1 PUSH2 0x390F JUMP JUMPDEST PUSH1 0x40 MLOAD DUP1 SWAP2 SUB SWAP1 REVERT JUMPDEST PUSH2 0x17D1 DUP6 DUP6 PUSH2 0x25F9 JUMP JUMPDEST POP POP POP POP POP JUMP JUMPDEST PUSH1 0x3 SLOAD DUP2 JUMP JUMPDEST PUSH1 0x0 DUP1 PUSH1 0x0 SWAP1 SLOAD SWAP1 PUSH2 0x100 EXP SWAP1 DIV PUSH20 0xFFFFFFFFFFFFFFFFFFFFFFFFFFFFFFFFFFFFFFFF AND SWAP1 POP SWAP1 JUMP JUMPDEST PUSH1 0x0 CALLER PUSH1 0x0 PUSH1 0x1 PUSH1 0x0 DUP4 PUSH20 0xFFFFFFFFFFFFFFFFFFFFFFFFFFFFFFFFFFFFFFFF AND PUSH20 0xFFFFFFFFFFFFFFFFFFFFFFFFFFFFFFFFFFFFFFFF AND DUP2 MSTORE PUSH1 0x20 ADD SWAP1 DUP2 MSTORE PUSH1 0x20 ADD PUSH1 0x0 KECCAK256 SLOAD GT PUSH2 0x188C JUMPI PUSH1 0x40 MLOAD PUSH32 0x8C379A000000000000000000000000000000000000000000000000000000000 DUP2 MSTORE PUSH1 0x4 ADD PUSH2 0x1883 SWAP1 PUSH2 0x338F JUMP JUMPDEST PUSH1 0x40 MLOAD DUP1 SWAP2 SUB SWAP1 REVERT JUMPDEST PUSH1 0x2 PUSH1 0x1 DUP1 PUSH1 0x0 CALLER PUSH20 0xFFFFFFFFFFFFFFFFFFFFFFFFFFFFFFFFFFFFFFFF AND PUSH20 0xFFFFFFFFFFFFFFFFFFFFFFFFFFFFFFFFFFFFFFFF AND DUP2 MSTORE PUSH1 0x20 ADD SWAP1 DUP2 MSTORE PUSH1 0x20 ADD PUSH1 0x0 KECCAK256 SLOAD PUSH2 0x18D9 SWAP2 SWAP1 PUSH2 0x33DE JUMP JUMPDEST DUP2 SLOAD DUP2 LT PUSH2 0x18EA JUMPI PUSH2 0x18E9 PUSH2 0x3412 JUMP JUMPDEST JUMPDEST SWAP1 PUSH1 0x0 MSTORE PUSH1 0x20 PUSH1 0x0 KECCAK256 SWAP1 PUSH1 0x5 MUL ADD PUSH1 0x4 ADD SLOAD SWAP2 POP POP SWAP1 JUMP JUMPDEST CALLER PUSH1 0x0 PUSH1 0x1 PUSH1 0x0 DUP4 PUSH20 0xFFFFFFFFFFFFFFFFFFFFFFFFFFFFFFFFFFFFFFFF AND PUSH20 0xFFFFFFFFFFFFFFFFFFFFFFFFFFFFFFFFFFFFFFFF AND DUP2 MSTORE PUSH1 0x20 ADD SWAP1 DUP2 MSTORE PUSH1 0x20 ADD PUSH1 0x0 KECCAK256 SLOAD GT DUP1 ISZERO PUSH2 0x19F1 JUMPI POP PUSH1 0x1 DUP1 DUP2 GT ISZERO PUSH2 0x1960 JUMPI PUSH2 0x195F PUSH2 0x3116 JUMP JUMPDEST JUMPDEST PUSH1 0x2 PUSH1 0x1 DUP1 PUSH1 0x0 DUP6 PUSH20 0xFFFFFFFFFFFFFFFFFFFFFFFFFFFFFFFFFFFFFFFF AND PUSH20 0xFFFFFFFFFFFFFFFFFFFFFFFFFFFFFFFFFFFFFFFF AND DUP2 MSTORE PUSH1 0x20 ADD SWAP1 DUP2 MSTORE PUSH1 0x20 ADD PUSH1 0x0 KECCAK256 SLOAD PUSH2 0x19AD SWAP2 SWAP1 PUSH2 0x33DE JUMP JUMPDEST DUP2 SLOAD DUP2 LT PUSH2 0x19BE JUMPI PUSH2 0x19BD PUSH2 0x3412 JUMP JUMPDEST JUMPDEST SWAP1 PUSH1 0x0 MSTORE PUSH1 0x20 PUSH1 0x0 KECCAK256 SWAP1 PUSH1 0x5 MUL ADD PUSH1 0x0 ADD PUSH1 0x0 SWAP1 SLOAD SWAP1 PUSH2 0x100 EXP SWAP1 DIV PUSH1 0xFF AND PUSH1 0x1 DUP2 GT ISZERO PUSH2 0x19EF JUMPI PUSH2 0x19EE PUSH2 0x3116 JUMP JUMPDEST JUMPDEST EQ JUMPDEST PUSH2 0x1A30 JUMPI PUSH1 0x40 MLOAD PUSH32 0x8C379A000000000000000000000000000000000000000000000000000000000 DUP2 MSTORE PUSH1 0x4 ADD PUSH2 0x1A27 SWAP1 PUSH2 0x3745 JUMP JUMPDEST PUSH1 0x40 MLOAD DUP1 SWAP2 SUB SWAP1 REVERT JUMPDEST PUSH1 0x0 PUSH1 0x2 PUSH1 0x1 DUP1 PUSH1 0x0 CALLER PUSH20 0xFFFFFFFFFFFFFFFFFFFFFFFFFFFFFFFFFFFFFFFF AND PUSH20 0xFFFFFFFFFFFFFFFFFFFFFFFFFFFFFFFFFFFFFFFF AND DUP2 MSTORE PUSH1 0x20 ADD SWAP1 DUP2 MSTORE PUSH1 0x20 ADD PUSH1 0x0 KECCAK256 SLOAD PUSH2 0x1A7F SWAP2 SWAP1 PUSH2 0x33DE JUMP JUMPDEST DUP2 SLOAD DUP2 LT PUSH2 0x1A90 JUMPI PUSH2 0x1A8F PUSH2 0x3412 JUMP JUMPDEST JUMPDEST SWAP1 PUSH1 0x0 MSTORE PUSH1 0x20 PUSH1 0x0 KECCAK256 SWAP1 PUSH1 0x5 MUL ADD SWAP1 POP DUP3 DUP2 PUSH1 0x2 ADD DUP2 SWAP1 SSTORE POP POP POP POP JUMP JUMPDEST PUSH1 0x0 PUSH2 0x1AB9 TIMESTAMP PUSH2 0x1F8B JUMP JUMPDEST SWAP1 POP SWAP1 JUMP JUMPDEST DUP1 PUSH1 0x0 PUSH1 0x1 PUSH1 0x0 DUP4 PUSH20 0xFFFFFFFFFFFFFFFFFFFFFFFFFFFFFFFFFFFFFFFF AND PUSH20 0xFFFFFFFFFFFFFFFFFFFFFFFFFFFFFFFFFFFFFFFF AND DUP2 MSTORE PUSH1 0x20 ADD SWAP1 DUP2 MSTORE PUSH1 0x20 ADD PUSH1 0x0 KECCAK256 SLOAD GT PUSH2 0x1B41 JUMPI PUSH1 0x40 MLOAD PUSH32 0x8C379A000000000000000000000000000000000000000000000000000000000 DUP2 MSTORE PUSH1 0x4 ADD PUSH2 0x1B38 SWAP1 PUSH2 0x338F JUMP JUMPDEST PUSH1 0x40 MLOAD DUP1 SWAP2 SUB SWAP1 REVERT JUMPDEST PUSH1 0x1 ISZERO ISZERO PUSH1 0x7 PUSH1 0x14 SWAP1 SLOAD SWAP1 PUSH2 0x100 EXP SWAP1 DIV PUSH1 0xFF AND ISZERO ISZERO EQ PUSH2 0x1B97 JUMPI PUSH1 0x40 MLOAD PUSH32 0x8C379A000000000000000000000000000000000000000000000000000000000 DUP2 MSTORE PUSH1 0x4 ADD PUSH2 0x1B8E SWAP1 PUSH2 0x35F1 JUMP JUMPDEST PUSH1 0x40 MLOAD DUP1 SWAP2 SUB SWAP1 REVERT JUMPDEST DUP2 PUSH1 0x0 PUSH1 0x2 PUSH1 0x1 DUP1 PUSH1 0x0 DUP6 PUSH20 0xFFFFFFFFFFFFFFFFFFFFFFFFFFFFFFFFFFFFFFFF AND PUSH20 0xFFFFFFFFFFFFFFFFFFFFFFFFFFFFFFFFFFFFFFFF AND DUP2 MSTORE PUSH1 0x20 ADD SWAP1 DUP2 MSTORE PUSH1 0x20 ADD PUSH1 0x0 KECCAK256 SLOAD PUSH2 0x1BE7 SWAP2 SWAP1 PUSH2 0x33DE JUMP JUMPDEST DUP2 SLOAD DUP2 LT PUSH2 0x1BF8 JUMPI PUSH2 0x1BF7 PUSH2 0x3412 JUMP JUMPDEST JUMPDEST SWAP1 PUSH1 0x0 MSTORE PUSH1 0x20 PUSH1 0x0 KECCAK256 SWAP1 PUSH1 0x5 MUL ADD SWAP1 POP PUSH1 0x1 PUSH1 0x2 DUP3 PUSH1 0x1 ADD DUP1 SLOAD SWAP1 POP PUSH2 0x1C1E SWAP2 SWAP1 PUSH2 0x3892 JUMP JUMPDEST EQ DUP1 ISZERO PUSH2 0x1C39 JUMPI POP DUP1 PUSH1 0x3 ADD PUSH1 0x0 SWAP1 SLOAD SWAP1 PUSH2 0x100 EXP SWAP1 DIV PUSH1 0xFF AND JUMPDEST PUSH2 0x1C78 JUMPI PUSH1 0x40 MLOAD PUSH32 0x8C379A000000000000000000000000000000000000000000000000000000000 DUP2 MSTORE PUSH1 0x4 ADD PUSH2 0x1C6F SWAP1 PUSH2 0x397B JUMP JUMPDEST PUSH1 0x40 MLOAD DUP1 SWAP2 SUB SWAP1 REVERT JUMPDEST PUSH2 0x1C82 DUP5 TIMESTAMP PUSH2 0x25F9 JUMP JUMPDEST POP POP POP POP JUMP JUMPDEST PUSH1 0x0 DUP3 PUSH1 0x0 PUSH1 0x1 PUSH1 0x0 DUP4 PUSH20 0xFFFFFFFFFFFFFFFFFFFFFFFFFFFFFFFFFFFFFFFF AND PUSH20 0xFFFFFFFFFFFFFFFFFFFFFFFFFFFFFFFFFFFFFFFF AND DUP2 MSTORE PUSH1 0x20 ADD SWAP1 DUP2 MSTORE PUSH1 0x20 ADD PUSH1 0x0 KECCAK256 SLOAD GT PUSH2 0x1D0D JUMPI PUSH1 0x40 MLOAD PUSH32 0x8C379A000000000000000000000000000000000000000000000000000000000 DUP2 MSTORE PUSH1 0x4 ADD PUSH2 0x1D04 SWAP1 PUSH2 0x338F JUMP JUMPDEST PUSH1 0x40 MLOAD DUP1 SWAP2 SUB SWAP1 REVERT JUMPDEST PUSH1 0x0 ISZERO ISZERO PUSH1 0x7 PUSH1 0x14 SWAP1 SLOAD SWAP1 PUSH2 0x100 EXP SWAP1 DIV PUSH1 0xFF AND ISZERO ISZERO EQ PUSH2 0x1D63 JUMPI PUSH1 0x40 MLOAD PUSH32 0x8C379A000000000000000000000000000000000000000000000000000000000 DUP2 MSTORE PUSH1 0x4 ADD PUSH2 0x1D5A SWAP1 PUSH2 0x3843 JUMP JUMPDEST PUSH1 0x40 MLOAD DUP1 SWAP2 SUB SWAP1 REVERT JUMPDEST PUSH2 0x1DB7 PUSH1 0x1 DUP1 PUSH1 0x0 DUP8 PUSH20 0xFFFFFFFFFFFFFFFFFFFFFFFFFFFFFFFFFFFFFFFF AND PUSH20 0xFFFFFFFFFFFFFFFFFFFFFFFFFFFFFFFFFFFFFFFF AND DUP2 MSTORE PUSH1 0x20 ADD SWAP1 DUP2 MSTORE PUSH1 0x20 ADD PUSH1 0x0 KECCAK256 SLOAD PUSH2 0x1DB1 SWAP2 SWAP1 PUSH2 0x33DE JUMP JUMPDEST DUP5 PUSH2 0x22E9 JUMP JUMPDEST SWAP2 POP POP SWAP3 SWAP2 POP POP JUMP JUMPDEST DUP1 PUSH1 0x0 PUSH1 0x1 PUSH1 0x0 DUP4 PUSH20 0xFFFFFFFFFFFFFFFFFFFFFFFFFFFFFFFFFFFFFFFF AND PUSH20 0xFFFFFFFFFFFFFFFFFFFFFFFFFFFFFFFFFFFFFFFF AND DUP2 MSTORE PUSH1 0x20 ADD SWAP1 DUP2 MSTORE PUSH1 0x20 ADD PUSH1 0x0 KECCAK256 SLOAD GT PUSH2 0x1E43 JUMPI PUSH1 0x40 MLOAD PUSH32 0x8C379A000000000000000000000000000000000000000000000000000000000 DUP2 MSTORE PUSH1 0x4 ADD PUSH2 0x1E3A SWAP1 PUSH2 0x338F JUMP JUMPDEST PUSH1 0x40 MLOAD DUP1 SWAP2 SUB SWAP1 REVERT JUMPDEST PUSH1 0x1 ISZERO ISZERO PUSH1 0x7 PUSH1 0x14 SWAP1 SLOAD SWAP1 PUSH2 0x100 EXP SWAP1 DIV PUSH1 0xFF AND ISZERO ISZERO EQ PUSH2 0x1E99 JUMPI PUSH1 0x40 MLOAD PUSH32 0x8C379A000000000000000000000000000000000000000000000000000000000 DUP2 MSTORE PUSH1 0x4 ADD PUSH2 0x1E90 SWAP1 PUSH2 0x35F1 JUMP JUMPDEST PUSH1 0x40 MLOAD DUP1 SWAP2 SUB SWAP1 REVERT JUMPDEST DUP2 PUSH1 0x0 PUSH1 0x2 PUSH1 0x1 DUP1 PUSH1 0x0 DUP6 PUSH20 0xFFFFFFFFFFFFFFFFFFFFFFFFFFFFFFFFFFFFFFFF AND PUSH20 0xFFFFFFFFFFFFFFFFFFFFFFFFFFFFFFFFFFFFFFFF AND DUP2 MSTORE PUSH1 0x20 ADD SWAP1 DUP2 MSTORE PUSH1 0x20 ADD PUSH1 0x0 KECCAK256 SLOAD PUSH2 0x1EE9 SWAP2 SWAP1 PUSH2 0x33DE JUMP JUMPDEST DUP2 SLOAD DUP2 LT PUSH2 0x1EFA JUMPI PUSH2 0x1EF9 PUSH2 0x3412 JUMP JUMPDEST JUMPDEST SWAP1 PUSH1 0x0 MSTORE PUSH1 0x20 PUSH1 0x0 KECCAK256 SWAP1 PUSH1 0x5 MUL ADD SWAP1 POP PUSH1 0x0 PUSH1 0x2 DUP3 PUSH1 0x1 ADD DUP1 SLOAD SWAP1 POP PUSH2 0x1F20 SWAP2 SWAP1 PUSH2 0x3892 JUMP JUMPDEST EQ DUP1 ISZERO PUSH2 0x1F3C JUMPI POP DUP1 PUSH1 0x3 ADD PUSH1 0x0 SWAP1 SLOAD SWAP1 PUSH2 0x100 EXP SWAP1 DIV PUSH1 0xFF AND ISZERO JUMPDEST PUSH2 0x1F7B JUMPI PUSH1 0x40 MLOAD PUSH32 0x8C379A000000000000000000000000000000000000000000000000000000000 DUP2 MSTORE PUSH1 0x4 ADD PUSH2 0x1F72 SWAP1 PUSH2 0x390F JUMP JUMPDEST PUSH1 0x40 MLOAD DUP1 SWAP2 SUB SWAP1 REVERT JUMPDEST PUSH2 0x1F85 DUP5 TIMESTAMP PUSH2 0x25F9 JUMP JUMPDEST POP POP POP POP JUMP JUMPDEST PUSH1 0x0 DUP1 PUSH2 0x1F97 DUP4 PUSH2 0x29E7 JUMP JUMPDEST SWAP1 POP PUSH1 0x0 DUP1 DUP3 SLT PUSH2 0x1FE8 JUMPI PUSH1 0x5 DUP3 DUP2 SLOAD DUP2 LT PUSH2 0x1FB6 JUMPI PUSH2 0x1FB5 PUSH2 0x3412 JUMP JUMPDEST JUMPDEST SWAP1 PUSH1 0x0 MSTORE PUSH1 0x20 PUSH1 0x0 KECCAK256 ADD PUSH1 0x0 SWAP1 SLOAD SWAP1 PUSH2 0x100 EXP SWAP1 DIV PUSH20 0xFFFFFFFFFFFFFFFFFFFFFFFFFFFFFFFFFFFFFFFF AND SWAP1 POP PUSH2 0x1FED JUMP JUMPDEST PUSH1 0x0 SWAP1 POP JUMPDEST DUP1 SWAP3 POP POP POP SWAP2 SWAP1 POP JUMP JUMPDEST DUP2 PUSH1 0x0 PUSH1 0x1 PUSH1 0x0 DUP4 PUSH20 0xFFFFFFFFFFFFFFFFFFFFFFFFFFFFFFFFFFFFFFFF AND PUSH20 0xFFFFFFFFFFFFFFFFFFFFFFFFFFFFFFFFFFFFFFFF AND DUP2 MSTORE PUSH1 0x20 ADD SWAP1 DUP2 MSTORE PUSH1 0x20 ADD PUSH1 0x0 KECCAK256 SLOAD GT PUSH2 0x207A JUMPI PUSH1 0x40 MLOAD PUSH32 0x8C379A000000000000000000000000000000000000000000000000000000000 DUP2 MSTORE PUSH1 0x4 ADD PUSH2 0x2071 SWAP1 PUSH2 0x338F JUMP JUMPDEST PUSH1 0x40 MLOAD DUP1 SWAP2 SUB SWAP1 REVERT JUMPDEST PUSH1 0x0 ISZERO ISZERO PUSH1 0x7 PUSH1 0x14 SWAP1 SLOAD SWAP1 PUSH2 0x100 EXP SWAP1 DIV PUSH1 0xFF AND ISZERO ISZERO EQ PUSH2 0x20D0 JUMPI PUSH1 0x40 MLOAD PUSH32 0x8C379A000000000000000000000000000000000000000000000000000000000 DUP2 MSTORE PUSH1 0x4 ADD PUSH2 0x20C7 SWAP1 PUSH2 0x3843 JUMP JUMPDEST PUSH1 0x40 MLOAD DUP1 SWAP2 SUB SWAP1 REVERT JUMPDEST DUP3 PUSH1 0x0 PUSH1 0x2 PUSH1 0x1 DUP1 PUSH1 0x0 DUP6 PUSH20 0xFFFFFFFFFFFFFFFFFFFFFFFFFFFFFFFFFFFFFFFF AND PUSH20 0xFFFFFFFFFFFFFFFFFFFFFFFFFFFFFFFFFFFFFFFF AND DUP2 MSTORE PUSH1 0x20 ADD SWAP1 DUP2 MSTORE PUSH1 0x20 ADD PUSH1 0x0 KECCAK256 SLOAD PUSH2 0x2120 SWAP2 SWAP1 PUSH2 0x33DE JUMP JUMPDEST DUP2 SLOAD DUP2 LT PUSH2 0x2131 JUMPI PUSH2 0x2130 PUSH2 0x3412 JUMP JUMPDEST JUMPDEST SWAP1 PUSH1 0x0 MSTORE PUSH1 0x20 PUSH1 0x0 KECCAK256 SWAP1 PUSH1 0x5 MUL ADD SWAP1 POP PUSH1 0x1 PUSH1 0x2 DUP3 PUSH1 0x1 ADD DUP1 SLOAD SWAP1 POP PUSH2 0x2157 SWAP2 SWAP1 PUSH2 0x3892 JUMP JUMPDEST EQ DUP1 ISZERO PUSH2 0x2172 JUMPI POP DUP1 PUSH1 0x3 ADD PUSH1 0x0 SWAP1 SLOAD SWAP1 PUSH2 0x100 EXP SWAP1 DIV PUSH1 0xFF AND JUMPDEST PUSH2 0x21B1 JUMPI PUSH1 0x40 MLOAD PUSH32 0x8C379A000000000000000000000000000000000000000000000000000000000 DUP2 MSTORE PUSH1 0x4 ADD PUSH2 0x21A8 SWAP1 PUSH2 0x397B JUMP JUMPDEST PUSH1 0x40 MLOAD DUP1 SWAP2 SUB SWAP1 REVERT JUMPDEST PUSH2 0x21BB DUP6 DUP6 PUSH2 0x25F9 JUMP JUMPDEST POP POP POP POP POP JUMP JUMPDEST PUSH2 0x21CA PUSH2 0x226B JUMP JUMPDEST PUSH1 0x0 PUSH20 0xFFFFFFFFFFFFFFFFFFFFFFFFFFFFFFFFFFFFFFFF AND DUP2 PUSH20 0xFFFFFFFFFFFFFFFFFFFFFFFFFFFFFFFFFFFFFFFF AND SUB PUSH2 0x2239 JUMPI PUSH1 0x40 MLOAD PUSH32 0x8C379A000000000000000000000000000000000000000000000000000000000 DUP2 MSTORE PUSH1 0x4 ADD PUSH2 0x2230 SWAP1 PUSH2 0x3A0D JUMP JUMPDEST PUSH1 0x40 MLOAD DUP1 SWAP2 SUB SWAP1 REVERT JUMPDEST PUSH2 0x2242 DUP2 PUSH2 0x2923 JUMP JUMPDEST POP JUMP JUMPDEST PUSH1 0x4 PUSH1 0x0 SWAP1 SLOAD SWAP1 PUSH2 0x100 EXP SWAP1 DIV PUSH20 0xFFFFFFFFFFFFFFFFFFFFFFFFFFFFFFFFFFFFFFFF AND DUP2 JUMP JUMPDEST PUSH2 0x2273 PUSH2 0x2A85 JUMP JUMPDEST PUSH20 0xFFFFFFFFFFFFFFFFFFFFFFFFFFFFFFFFFFFFFFFF AND PUSH2 0x2291 PUSH2 0x17DE JUMP JUMPDEST PUSH20 0xFFFFFFFFFFFFFFFFFFFFFFFFFFFFFFFFFFFFFFFF AND EQ PUSH2 0x22E7 JUMPI PUSH1 0x40 MLOAD PUSH32 0x8C379A000000000000000000000000000000000000000000000000000000000 DUP2 MSTORE PUSH1 0x4 ADD PUSH2 0x22DE SWAP1 PUSH2 0x3A79 JUMP JUMPDEST PUSH1 0x40 MLOAD DUP1 SWAP2 SUB SWAP1 REVERT JUMPDEST JUMP JUMPDEST PUSH1 0x0 DUP1 DUP4 LT ISZERO DUP1 ISZERO PUSH2 0x22FC JUMPI POP PUSH1 0x3 SLOAD DUP4 LT JUMPDEST PUSH2 0x233B JUMPI PUSH1 0x40 MLOAD PUSH32 0x8C379A000000000000000000000000000000000000000000000000000000000 DUP2 MSTORE PUSH1 0x4 ADD PUSH2 0x2332 SWAP1 PUSH2 0x3AE5 JUMP JUMPDEST PUSH1 0x40 MLOAD DUP1 SWAP2 SUB SWAP1 REVERT JUMPDEST PUSH1 0x0 DUP1 PUSH1 0x2 DUP6 DUP2 SLOAD DUP2 LT PUSH2 0x2352 JUMPI PUSH2 0x2351 PUSH2 0x3412 JUMP JUMPDEST JUMPDEST SWAP1 PUSH1 0x0 MSTORE PUSH1 0x20 PUSH1 0x0 KECCAK256 SWAP1 PUSH1 0x5 MUL ADD SWAP1 POP PUSH1 0x0 DUP2 PUSH1 0x1 ADD DUP1 SLOAD SWAP1 POP SWAP1 POP PUSH1 0x0 JUMPDEST DUP2 DUP2 LT ISZERO PUSH2 0x2410 JUMPI DUP3 PUSH1 0x1 ADD DUP2 DUP2 SLOAD DUP2 LT PUSH2 0x238F JUMPI PUSH2 0x238E PUSH2 0x3412 JUMP JUMPDEST JUMPDEST SWAP1 PUSH1 0x0 MSTORE PUSH1 0x20 PUSH1 0x0 KECCAK256 ADD SLOAD DUP7 LT PUSH2 0x23FC JUMPI PUSH1 0x1 SWAP4 POP DUP3 PUSH1 0x1 ADD DUP1 SLOAD SWAP1 POP PUSH1 0x1 DUP3 PUSH2 0x23B9 SWAP2 SWAP1 PUSH2 0x3611 JUMP JUMPDEST LT DUP1 ISZERO PUSH2 0x23F1 JUMPI POP DUP3 PUSH1 0x1 ADD PUSH1 0x1 DUP3 PUSH2 0x23D2 SWAP2 SWAP1 PUSH2 0x3611 JUMP JUMPDEST DUP2 SLOAD DUP2 LT PUSH2 0x23E3 JUMPI PUSH2 0x23E2 PUSH2 0x3412 JUMP JUMPDEST JUMPDEST SWAP1 PUSH1 0x0 MSTORE PUSH1 0x20 PUSH1 0x0 KECCAK256 ADD SLOAD DUP7 GT JUMPDEST ISZERO PUSH2 0x23FB JUMPI PUSH1 0x0 SWAP4 POP JUMPDEST JUMPDEST PUSH1 0x2 DUP2 PUSH2 0x2409 SWAP2 SWAP1 PUSH2 0x3611 JUMP JUMPDEST SWAP1 POP PUSH2 0x2371 JUMP JUMPDEST POP DUP3 SWAP4 POP POP POP POP SWAP3 SWAP2 POP POP JUMP JUMPDEST PUSH1 0x0 DUP1 DUP5 LT ISZERO DUP1 ISZERO PUSH2 0x2430 JUMPI POP PUSH1 0x3 SLOAD DUP5 LT JUMPDEST PUSH2 0x246F JUMPI PUSH1 0x40 MLOAD PUSH32 0x8C379A000000000000000000000000000000000000000000000000000000000 DUP2 MSTORE PUSH1 0x4 ADD PUSH2 0x2466 SWAP1 PUSH2 0x3AE5 JUMP JUMPDEST PUSH1 0x40 MLOAD DUP1 SWAP2 SUB SWAP1 REVERT JUMPDEST DUP2 DUP4 LT PUSH2 0x24B1 JUMPI PUSH1 0x40 MLOAD PUSH32 0x8C379A000000000000000000000000000000000000000000000000000000000 DUP2 MSTORE PUSH1 0x4 ADD PUSH2 0x24A8 SWAP1 PUSH2 0x3B51 JUMP JUMPDEST PUSH1 0x40 MLOAD DUP1 SWAP2 SUB SWAP1 REVERT JUMPDEST PUSH1 0x0 DUP4 DUP4 PUSH2 0x24BF SWAP2 SWAP1 PUSH2 0x33DE JUMP JUMPDEST SWAP1 POP PUSH1 0x0 DUP1 PUSH1 0x2 DUP8 DUP2 SLOAD DUP2 LT PUSH2 0x24D8 JUMPI PUSH2 0x24D7 PUSH2 0x3412 JUMP JUMPDEST JUMPDEST SWAP1 PUSH1 0x0 MSTORE PUSH1 0x20 PUSH1 0x0 KECCAK256 SWAP1 PUSH1 0x5 MUL ADD SWAP1 POP PUSH1 0x0 DUP2 PUSH1 0x1 ADD DUP1 SLOAD SWAP1 POP SWAP1 POP PUSH1 0x0 DUP1 PUSH1 0x0 JUMPDEST DUP4 DUP2 LT ISZERO PUSH2 0x25C6 JUMPI DUP5 PUSH1 0x1 ADD DUP2 DUP2 SLOAD DUP2 LT PUSH2 0x2518 JUMPI PUSH2 0x2517 PUSH2 0x3412 JUMP JUMPDEST JUMPDEST SWAP1 PUSH1 0x0 MSTORE PUSH1 0x20 PUSH1 0x0 KECCAK256 ADD SLOAD SWAP3 POP DUP3 DUP11 GT ISZERO PUSH2 0x2531 JUMPI DUP10 SWAP3 POP JUMPDEST DUP5 PUSH1 0x1 ADD DUP1 SLOAD SWAP1 POP PUSH1 0x1 DUP3 PUSH2 0x2546 SWAP2 SWAP1 PUSH2 0x3611 JUMP JUMPDEST LT ISZERO PUSH2 0x2580 JUMPI DUP5 PUSH1 0x1 ADD PUSH1 0x1 DUP3 PUSH2 0x255D SWAP2 SWAP1 PUSH2 0x3611 JUMP JUMPDEST DUP2 SLOAD DUP2 LT PUSH2 0x256E JUMPI PUSH2 0x256D PUSH2 0x3412 JUMP JUMPDEST JUMPDEST SWAP1 PUSH1 0x0 MSTORE PUSH1 0x20 PUSH1 0x0 KECCAK256 ADD SLOAD SWAP2 POP PUSH2 0x2584 JUMP JUMPDEST TIMESTAMP SWAP2 POP JUMPDEST DUP2 DUP10 LT ISZERO PUSH2 0x2590 JUMPI DUP9 SWAP2 POP JUMPDEST DUP3 DUP3 GT ISZERO PUSH2 0x25B2 JUMPI DUP3 DUP3 PUSH2 0x25A4 SWAP2 SWAP1 PUSH2 0x33DE JUMP JUMPDEST DUP7 PUSH2 0x25AF SWAP2 SWAP1 PUSH2 0x3611 JUMP JUMPDEST SWAP6 POP JUMPDEST PUSH1 0x2 DUP2 PUSH2 0x25BF SWAP2 SWAP1 PUSH2 0x3611 JUMP JUMPDEST SWAP1 POP PUSH2 0x24FA JUMP JUMPDEST POP DUP6 PUSH1 0x2 DUP8 PUSH2 0x25D5 SWAP2 SWAP1 PUSH2 0x3B71 JUMP JUMPDEST DUP7 PUSH2 0x25E0 SWAP2 SWAP1 PUSH2 0x3611 JUMP JUMPDEST PUSH2 0x25EA SWAP2 SWAP1 PUSH2 0x3B71 JUMP JUMPDEST SWAP7 POP POP POP POP POP POP POP SWAP4 SWAP3 POP POP POP JUMP JUMPDEST PUSH1 0x7 PUSH1 0x0 SWAP1 SLOAD SWAP1 PUSH2 0x100 EXP SWAP1 DIV PUSH20 0xFFFFFFFFFFFFFFFFFFFFFFFFFFFFFFFFFFFFFFFF AND PUSH20 0xFFFFFFFFFFFFFFFFFFFFFFFFFFFFFFFFFFFFFFFF AND CALLER PUSH20 0xFFFFFFFFFFFFFFFFFFFFFFFFFFFFFFFFFFFFFFFF AND EQ PUSH2 0x2689 JUMPI PUSH1 0x40 MLOAD PUSH32 0x8C379A000000000000000000000000000000000000000000000000000000000 DUP2 MSTORE PUSH1 0x4 ADD PUSH2 0x2680 SWAP1 PUSH2 0x3BEE JUMP JUMPDEST PUSH1 0x40 MLOAD DUP1 SWAP2 SUB SWAP1 REVERT JUMPDEST DUP2 PUSH1 0x0 PUSH1 0x1 PUSH1 0x0 DUP4 PUSH20 0xFFFFFFFFFFFFFFFFFFFFFFFFFFFFFFFFFFFFFFFF AND PUSH20 0xFFFFFFFFFFFFFFFFFFFFFFFFFFFFFFFFFFFFFFFF AND DUP2 MSTORE PUSH1 0x20 ADD SWAP1 DUP2 MSTORE PUSH1 0x20 ADD PUSH1 0x0 KECCAK256 SLOAD GT DUP1 ISZERO PUSH2 0x2778 JUMPI POP PUSH1 0x1 DUP1 DUP2 GT ISZERO PUSH2 0x26E7 JUMPI PUSH2 0x26E6 PUSH2 0x3116 JUMP JUMPDEST JUMPDEST PUSH1 0x2 PUSH1 0x1 DUP1 PUSH1 0x0 DUP6 PUSH20 0xFFFFFFFFFFFFFFFFFFFFFFFFFFFFFFFFFFFFFFFF AND PUSH20 0xFFFFFFFFFFFFFFFFFFFFFFFFFFFFFFFFFFFFFFFF AND DUP2 MSTORE PUSH1 0x20 ADD SWAP1 DUP2 MSTORE PUSH1 0x20 ADD PUSH1 0x0 KECCAK256 SLOAD PUSH2 0x2734 SWAP2 SWAP1 PUSH2 0x33DE JUMP JUMPDEST DUP2 SLOAD DUP2 LT PUSH2 0x2745 JUMPI PUSH2 0x2744 PUSH2 0x3412 JUMP JUMPDEST JUMPDEST SWAP1 PUSH1 0x0 MSTORE PUSH1 0x20 PUSH1 0x0 KECCAK256 SWAP1 PUSH1 0x5 MUL ADD PUSH1 0x0 ADD PUSH1 0x0 SWAP1 SLOAD SWAP1 PUSH2 0x100 EXP SWAP1 DIV PUSH1 0xFF AND PUSH1 0x1 DUP2 GT ISZERO PUSH2 0x2776 JUMPI PUSH2 0x2775 PUSH2 0x3116 JUMP JUMPDEST JUMPDEST EQ JUMPDEST PUSH2 0x27B7 JUMPI PUSH1 0x40 MLOAD PUSH32 0x8C379A000000000000000000000000000000000000000000000000000000000 DUP2 MSTORE PUSH1 0x4 ADD PUSH2 0x27AE SWAP1 PUSH2 0x3745 JUMP JUMPDEST PUSH1 0x40 MLOAD DUP1 SWAP2 SUB SWAP1 REVERT JUMPDEST PUSH1 0x0 PUSH1 0x2 PUSH1 0x1 DUP1 PUSH1 0x0 DUP8 PUSH20 0xFFFFFFFFFFFFFFFFFFFFFFFFFFFFFFFFFFFFFFFF AND PUSH20 0xFFFFFFFFFFFFFFFFFFFFFFFFFFFFFFFFFFFFFFFF AND DUP2 MSTORE PUSH1 0x20 ADD SWAP1 DUP2 MSTORE PUSH1 0x20 ADD PUSH1 0x0 KECCAK256 SLOAD PUSH2 0x2806 SWAP2 SWAP1 PUSH2 0x33DE JUMP JUMPDEST DUP2 SLOAD DUP2 LT PUSH2 0x2817 JUMPI PUSH2 0x2816 PUSH2 0x3412 JUMP JUMPDEST JUMPDEST SWAP1 PUSH1 0x0 MSTORE PUSH1 0x20 PUSH1 0x0 KECCAK256 SWAP1 PUSH1 0x5 MUL ADD SWAP1 POP DUP1 PUSH1 0x3 ADD PUSH1 0x0 SWAP1 SLOAD SWAP1 PUSH2 0x100 EXP SWAP1 DIV PUSH1 0xFF AND ISZERO DUP2 PUSH1 0x3 ADD PUSH1 0x0 PUSH2 0x100 EXP DUP2 SLOAD DUP2 PUSH1 0xFF MUL NOT AND SWAP1 DUP4 ISZERO ISZERO MUL OR SWAP1 SSTORE POP DUP1 PUSH1 0x1 ADD DUP4 SWAP1 DUP1 PUSH1 0x1 DUP2 SLOAD ADD DUP1 DUP3 SSTORE DUP1 SWAP2 POP POP PUSH1 0x1 SWAP1 SUB SWAP1 PUSH1 0x0 MSTORE PUSH1 0x20 PUSH1 0x0 KECCAK256 ADD PUSH1 0x0 SWAP1 SWAP2 SWAP1 SWAP2 SWAP1 SWAP2 POP SSTORE DUP1 PUSH1 0x3 ADD PUSH1 0x0 SWAP1 SLOAD SWAP1 PUSH2 0x100 EXP SWAP1 DIV PUSH1 0xFF AND PUSH2 0x291D JUMPI PUSH1 0x0 DUP2 PUSH1 0x1 ADD DUP1 SLOAD SWAP1 POP SWAP1 POP PUSH1 0x0 DUP3 PUSH1 0x1 ADD PUSH1 0x2 DUP4 PUSH2 0x28B5 SWAP2 SWAP1 PUSH2 0x33DE JUMP JUMPDEST DUP2 SLOAD DUP2 LT PUSH2 0x28C6 JUMPI PUSH2 0x28C5 PUSH2 0x3412 JUMP JUMPDEST JUMPDEST SWAP1 PUSH1 0x0 MSTORE PUSH1 0x20 PUSH1 0x0 KECCAK256 ADD SLOAD SWAP1 POP PUSH1 0x0 DUP4 PUSH1 0x1 ADD PUSH1 0x1 DUP5 PUSH2 0x28E6 SWAP2 SWAP1 PUSH2 0x33DE JUMP JUMPDEST DUP2 SLOAD DUP2 LT PUSH2 0x28F7 JUMPI PUSH2 0x28F6 PUSH2 0x3412 JUMP JUMPDEST JUMPDEST SWAP1 PUSH1 0x0 MSTORE PUSH1 0x20 PUSH1 0x0 KECCAK256 ADD SLOAD SWAP1 POP PUSH2 0x2919 DUP8 DUP4 DUP4 PUSH2 0x2914 DUP7 DUP7 PUSH2 0x13BD JUMP JUMPDEST PUSH2 0x2A8D JUMP JUMPDEST POP POP POP JUMPDEST POP POP POP POP JUMP JUMPDEST PUSH1 0x0 DUP1 PUSH1 0x0 SWAP1 SLOAD SWAP1 PUSH2 0x100 EXP SWAP1 DIV PUSH20 0xFFFFFFFFFFFFFFFFFFFFFFFFFFFFFFFFFFFFFFFF AND SWAP1 POP DUP2 PUSH1 0x0 DUP1 PUSH2 0x100 EXP DUP2 SLOAD DUP2 PUSH20 0xFFFFFFFFFFFFFFFFFFFFFFFFFFFFFFFFFFFFFFFF MUL NOT AND SWAP1 DUP4 PUSH20 0xFFFFFFFFFFFFFFFFFFFFFFFFFFFFFFFFFFFFFFFF AND MUL OR SWAP1 SSTORE POP DUP2 PUSH20 0xFFFFFFFFFFFFFFFFFFFFFFFFFFFFFFFFFFFFFFFF AND DUP2 PUSH20 0xFFFFFFFFFFFFFFFFFFFFFFFFFFFFFFFFFFFFFFFF AND PUSH32 0x8BE0079C531659141344CD1FD0A4F28419497F9722A3DAAFE3B4186F6B6457E0 PUSH1 0x40 MLOAD PUSH1 0x40 MLOAD DUP1 SWAP2 SUB SWAP1 LOG3 POP POP JUMP JUMPDEST PUSH1 0x0 DUP1 PUSH1 0x5 DUP1 SLOAD SWAP1 POP SWAP1 POP PUSH1 0x0 PUSH32 0xFFFFFFFFFFFFFFFFFFFFFFFFFFFFFFFFFFFFFFFFFFFFFFFFFFFFFFFFFFFFFFFF SWAP1 POP PUSH1 0x0 JUMPDEST DUP3 DUP2 LT ISZERO PUSH2 0x2A7A JUMPI DUP5 PUSH1 0x6 DUP3 PUSH1 0x1 DUP7 PUSH2 0x2A33 SWAP2 SWAP1 PUSH2 0x33DE JUMP JUMPDEST PUSH2 0x2A3D SWAP2 SWAP1 PUSH2 0x33DE JUMP JUMPDEST DUP2 SLOAD DUP2 LT PUSH2 0x2A4E JUMPI PUSH2 0x2A4D PUSH2 0x3412 JUMP JUMPDEST JUMPDEST SWAP1 PUSH1 0x0 MSTORE PUSH1 0x20 PUSH1 0x0 KECCAK256 ADD SLOAD LT ISZERO PUSH2 0x2A67 JUMPI DUP1 SWAP2 POP PUSH2 0x2A7A JUMP JUMPDEST DUP1 DUP1 PUSH2 0x2A72 SWAP1 PUSH2 0x3645 JUMP JUMPDEST SWAP2 POP POP PUSH2 0x2A1A JUMP JUMPDEST POP DUP1 SWAP3 POP POP POP SWAP2 SWAP1 POP JUMP JUMPDEST PUSH1 0x0 CALLER SWAP1 POP SWAP1 JUMP JUMPDEST PUSH1 0x0 PUSH2 0x2A98 DUP5 PUSH2 0x29E7 JUMP JUMPDEST SWAP1 POP PUSH1 0x0 DUP1 DUP3 SLT PUSH2 0x2B66 JUMPI PUSH1 0x5 DUP3 DUP2 SLOAD DUP2 LT PUSH2 0x2AB7 JUMPI PUSH2 0x2AB6 PUSH2 0x3412 JUMP JUMPDEST JUMPDEST SWAP1 PUSH1 0x0 MSTORE PUSH1 0x20 PUSH1 0x0 KECCAK256 ADD PUSH1 0x0 SWAP1 SLOAD SWAP1 PUSH2 0x100 EXP SWAP1 DIV PUSH20 0xFFFFFFFFFFFFFFFFFFFFFFFFFFFFFFFFFFFFFFFF AND PUSH20 0xFFFFFFFFFFFFFFFFFFFFFFFFFFFFFFFFFFFFFFFF AND PUSH4 0x743096C1 DUP7 DUP7 DUP7 DUP11 PUSH1 0x40 MLOAD DUP6 PUSH4 0xFFFFFFFF AND PUSH1 0xE0 SHL DUP2 MSTORE PUSH1 0x4 ADD PUSH2 0x2B20 SWAP5 SWAP4 SWAP3 SWAP2 SWAP1 PUSH2 0x3C0E JUMP JUMPDEST PUSH1 0x20 PUSH1 0x40 MLOAD DUP1 DUP4 SUB DUP2 PUSH1 0x0 DUP8 GAS CALL ISZERO DUP1 ISZERO PUSH2 0x2B3F JUMPI RETURNDATASIZE PUSH1 0x0 DUP1 RETURNDATACOPY RETURNDATASIZE PUSH1 0x0 REVERT JUMPDEST POP POP POP POP PUSH1 0x40 MLOAD RETURNDATASIZE PUSH1 0x1F NOT PUSH1 0x1F DUP3 ADD AND DUP3 ADD DUP1 PUSH1 0x40 MSTORE POP DUP2 ADD SWAP1 PUSH2 0x2B63 SWAP2 SWAP1 PUSH2 0x3C68 JUMP JUMPDEST SWAP1 POP JUMPDEST PUSH1 0x0 DUP2 GT ISZERO PUSH2 0x2EDB JUMPI PUSH1 0x0 PUSH1 0x2 PUSH1 0x1 DUP1 PUSH1 0x0 DUP11 PUSH20 0xFFFFFFFFFFFFFFFFFFFFFFFFFFFFFFFFFFFFFFFF AND PUSH20 0xFFFFFFFFFFFFFFFFFFFFFFFFFFFFFFFFFFFFFFFF AND DUP2 MSTORE PUSH1 0x20 ADD SWAP1 DUP2 MSTORE PUSH1 0x20 ADD PUSH1 0x0 KECCAK256 SLOAD PUSH2 0x2BBE SWAP2 SWAP1 PUSH2 0x33DE JUMP JUMPDEST DUP2 SLOAD DUP2 LT PUSH2 0x2BCF JUMPI PUSH2 0x2BCE PUSH2 0x3412 JUMP JUMPDEST JUMPDEST SWAP1 PUSH1 0x0 MSTORE PUSH1 0x20 PUSH1 0x0 KECCAK256 SWAP1 PUSH1 0x5 MUL ADD SWAP1 POP DUP2 DUP2 PUSH1 0x4 ADD PUSH1 0x0 DUP3 DUP3 SLOAD PUSH2 0x2BF3 SWAP2 SWAP1 PUSH2 0x3611 JUMP JUMPDEST SWAP3 POP POP DUP2 SWAP1 SSTORE POP PUSH1 0x0 DUP2 PUSH1 0x0 ADD PUSH1 0x0 PUSH2 0x100 EXP DUP2 SLOAD DUP2 PUSH1 0xFF MUL NOT AND SWAP1 DUP4 PUSH1 0x1 DUP2 GT ISZERO PUSH2 0x2C22 JUMPI PUSH2 0x2C21 PUSH2 0x3116 JUMP JUMPDEST JUMPDEST MUL OR SWAP1 SSTORE POP PUSH1 0x0 PUSH1 0x4 PUSH1 0x0 SWAP1 SLOAD SWAP1 PUSH2 0x100 EXP SWAP1 DIV PUSH20 0xFFFFFFFFFFFFFFFFFFFFFFFFFFFFFFFFFFFFFFFF AND PUSH20 0xFFFFFFFFFFFFFFFFFFFFFFFFFFFFFFFFFFFFFFFF AND PUSH4 0xDD62ED3E DUP10 ADDRESS PUSH1 0x40 MLOAD DUP4 PUSH4 0xFFFFFFFF AND PUSH1 0xE0 SHL DUP2 MSTORE PUSH1 0x4 ADD PUSH2 0x2C86 SWAP3 SWAP2 SWAP1 PUSH2 0x3C95 JUMP JUMPDEST PUSH1 0x20 PUSH1 0x40 MLOAD DUP1 DUP4 SUB DUP2 DUP7 GAS STATICCALL ISZERO DUP1 ISZERO PUSH2 0x2CA3 JUMPI RETURNDATASIZE PUSH1 0x0 DUP1 RETURNDATACOPY RETURNDATASIZE PUSH1 0x0 REVERT JUMPDEST POP POP POP POP PUSH1 0x40 MLOAD RETURNDATASIZE PUSH1 0x1F NOT PUSH1 0x1F DUP3 ADD AND DUP3 ADD DUP1 PUSH1 0x40 MSTORE POP DUP2 ADD SWAP1 PUSH2 0x2CC7 SWAP2 SWAP1 PUSH2 0x3C68 JUMP JUMPDEST SWAP1 POP DUP3 DUP2 LT ISZERO PUSH2 0x2D24 JUMPI DUP1 DUP4 PUSH2 0x2CDD SWAP2 SWAP1 PUSH2 0x33DE JUMP JUMPDEST DUP9 PUSH20 0xFFFFFFFFFFFFFFFFFFFFFFFFFFFFFFFFFFFFFFFF AND PUSH32 0x1105CBF79BA9AEC674E68BAFC67545B3E180703742C1AD6AF4AB85FD0D5C4CDD PUSH1 0x40 MLOAD PUSH1 0x40 MLOAD DUP1 SWAP2 SUB SWAP1 LOG3 DUP1 SWAP3 POP JUMPDEST PUSH1 0x0 DUP4 GT ISZERO PUSH2 0x2ED8 JUMPI PUSH1 0x0 PUSH1 0x4 PUSH1 0x0 SWAP1 SLOAD SWAP1 PUSH2 0x100 EXP SWAP1 DIV PUSH20 0xFFFFFFFFFFFFFFFFFFFFFFFFFFFFFFFFFFFFFFFF AND PUSH20 0xFFFFFFFFFFFFFFFFFFFFFFFFFFFFFFFFFFFFFFFF AND PUSH4 0x23B872DD DUP11 ADDRESS PUSH20 0xFFFFFFFFFFFFFFFFFFFFFFFFFFFFFFFFFFFFFFFF AND PUSH4 0x8DA5CB5B PUSH1 0x40 MLOAD DUP2 PUSH4 0xFFFFFFFF AND PUSH1 0xE0 SHL DUP2 MSTORE PUSH1 0x4 ADD PUSH1 0x20 PUSH1 0x40 MLOAD DUP1 DUP4 SUB DUP2 DUP7 GAS STATICCALL ISZERO DUP1 ISZERO PUSH2 0x2DB9 JUMPI RETURNDATASIZE PUSH1 0x0 DUP1 RETURNDATACOPY RETURNDATASIZE PUSH1 0x0 REVERT JUMPDEST POP POP POP POP PUSH1 0x40 MLOAD RETURNDATASIZE PUSH1 0x1F NOT PUSH1 0x1F DUP3 ADD AND DUP3 ADD DUP1 PUSH1 0x40 MSTORE POP DUP2 ADD SWAP1 PUSH2 0x2DDD SWAP2 SWAP1 PUSH2 0x3456 JUMP JUMPDEST DUP8 PUSH1 0x40 MLOAD DUP5 PUSH4 0xFFFFFFFF AND PUSH1 0xE0 SHL DUP2 MSTORE PUSH1 0x4 ADD PUSH2 0x2DFC SWAP4 SWAP3 SWAP2 SWAP1 PUSH2 0x3483 JUMP JUMPDEST PUSH1 0x20 PUSH1 0x40 MLOAD DUP1 DUP4 SUB DUP2 PUSH1 0x0 DUP8 GAS CALL ISZERO DUP1 ISZERO PUSH2 0x2E1B JUMPI RETURNDATASIZE PUSH1 0x0 DUP1 RETURNDATACOPY RETURNDATASIZE PUSH1 0x0 REVERT JUMPDEST POP POP POP POP PUSH1 0x40 MLOAD RETURNDATASIZE PUSH1 0x1F NOT PUSH1 0x1F DUP3 ADD AND DUP3 ADD DUP1 PUSH1 0x40 MSTORE POP DUP2 ADD SWAP1 PUSH2 0x2E3F SWAP2 SWAP1 PUSH2 0x34E6 JUMP JUMPDEST SWAP1 POP DUP1 PUSH2 0x2E81 JUMPI PUSH1 0x40 MLOAD PUSH32 0x8C379A000000000000000000000000000000000000000000000000000000000 DUP2 MSTORE PUSH1 0x4 ADD PUSH2 0x2E78 SWAP1 PUSH2 0x3D0A JUMP JUMPDEST PUSH1 0x40 MLOAD DUP1 SWAP2 SUB SWAP1 REVERT JUMPDEST DUP4 DUP4 PUSH1 0x4 ADD PUSH1 0x0 DUP3 DUP3 SLOAD PUSH2 0x2E95 SWAP2 SWAP1 PUSH2 0x33DE JUMP JUMPDEST SWAP3 POP POP DUP2 SWAP1 SSTORE POP PUSH1 0x0 DUP4 PUSH1 0x4 ADD SLOAD SUB PUSH2 0x2ED6 JUMPI PUSH1 0x1 DUP4 PUSH1 0x0 ADD PUSH1 0x0 PUSH2 0x100 EXP DUP2 SLOAD DUP2 PUSH1 0xFF MUL NOT AND SWAP1 DUP4 PUSH1 0x1 DUP2 GT ISZERO PUSH2 0x2ED0 JUMPI PUSH2 0x2ECF PUSH2 0x3116 JUMP JUMPDEST JUMPDEST MUL OR SWAP1 SSTORE POP JUMPDEST POP JUMPDEST POP POP JUMPDEST POP POP POP POP POP POP JUMP JUMPDEST PUSH1 0x0 DUP1 REVERT JUMPDEST PUSH1 0x0 PUSH20 0xFFFFFFFFFFFFFFFFFFFFFFFFFFFFFFFFFFFFFFFF DUP3 AND SWAP1 POP SWAP2 SWAP1 POP JUMP JUMPDEST PUSH1 0x0 PUSH2 0x2F13 DUP3 PUSH2 0x2EE8 JUMP JUMPDEST SWAP1 POP SWAP2 SWAP1 POP JUMP JUMPDEST PUSH2 0x2F23 DUP2 PUSH2 0x2F08 JUMP JUMPDEST DUP2 EQ PUSH2 0x2F2E JUMPI PUSH1 0x0 DUP1 REVERT JUMPDEST POP JUMP JUMPDEST PUSH1 0x0 DUP2 CALLDATALOAD SWAP1 POP PUSH2 0x2F40 DUP2 PUSH2 0x2F1A JUMP JUMPDEST SWAP3 SWAP2 POP POP JUMP JUMPDEST PUSH1 0x0 PUSH1 0x20 DUP3 DUP5 SUB SLT ISZERO PUSH2 0x2F5C JUMPI PUSH2 0x2F5B PUSH2 0x2EE3 JUMP JUMPDEST JUMPDEST PUSH1 0x0 PUSH2 0x2F6A DUP5 DUP3 DUP6 ADD PUSH2 0x2F31 JUMP JUMPDEST SWAP2 POP POP SWAP3 SWAP2 POP POP JUMP JUMPDEST PUSH1 0x0 DUP2 SWAP1 POP SWAP2 SWAP1 POP JUMP JUMPDEST PUSH2 0x2F86 DUP2 PUSH2 0x2F73 JUMP JUMPDEST DUP2 EQ PUSH2 0x2F91 JUMPI PUSH1 0x0 DUP1 REVERT JUMPDEST POP JUMP JUMPDEST PUSH1 0x0 DUP2 CALLDATALOAD SWAP1 POP PUSH2 0x2FA3 DUP2 PUSH2 0x2F7D JUMP JUMPDEST SWAP3 SWAP2 POP POP JUMP JUMPDEST PUSH1 0x0 PUSH1 0x20 DUP3 DUP5 SUB SLT ISZERO PUSH2 0x2FBF JUMPI PUSH2 0x2FBE PUSH2 0x2EE3 JUMP JUMPDEST JUMPDEST PUSH1 0x0 PUSH2 0x2FCD DUP5 DUP3 DUP6 ADD PUSH2 0x2F94 JUMP JUMPDEST SWAP2 POP POP SWAP3 SWAP2 POP POP JUMP JUMPDEST PUSH1 0x0 DUP2 ISZERO ISZERO SWAP1 POP SWAP2 SWAP1 POP JUMP JUMPDEST PUSH2 0x2FEB DUP2 PUSH2 0x2FD6 JUMP JUMPDEST DUP3 MSTORE POP POP JUMP JUMPDEST PUSH1 0x0 PUSH1 0x20 DUP3 ADD SWAP1 POP PUSH2 0x3006 PUSH1 0x0 DUP4 ADD DUP5 PUSH2 0x2FE2 JUMP JUMPDEST SWAP3 SWAP2 POP POP JUMP JUMPDEST PUSH1 0x0 DUP2 MLOAD SWAP1 POP SWAP2 SWAP1 POP JUMP JUMPDEST PUSH1 0x0 DUP3 DUP3 MSTORE PUSH1 0x20 DUP3 ADD SWAP1 POP SWAP3 SWAP2 POP POP JUMP JUMPDEST PUSH1 0x0 DUP2 SWAP1 POP PUSH1 0x20 DUP3 ADD SWAP1 POP SWAP2 SWAP1 POP JUMP JUMPDEST PUSH2 0x3041 DUP2 PUSH2 0x2F73 JUMP JUMPDEST DUP3 MSTORE POP POP JUMP JUMPDEST PUSH1 0x0 PUSH2 0x3053 DUP4 DUP4 PUSH2 0x3038 JUMP JUMPDEST PUSH1 0x20 DUP4 ADD SWAP1 POP SWAP3 SWAP2 POP POP JUMP JUMPDEST PUSH1 0x0 PUSH1 0x20 DUP3 ADD SWAP1 POP SWAP2 SWAP1 POP JUMP JUMPDEST PUSH1 0x0 PUSH2 0x3077 DUP3 PUSH2 0x300C JUMP JUMPDEST PUSH2 0x3081 DUP2 DUP6 PUSH2 0x3017 JUMP JUMPDEST SWAP4 POP PUSH2 0x308C DUP4 PUSH2 0x3028 JUMP JUMPDEST DUP1 PUSH1 0x0 JUMPDEST DUP4 DUP2 LT ISZERO PUSH2 0x30BD JUMPI DUP2 MLOAD PUSH2 0x30A4 DUP9 DUP3 PUSH2 0x3047 JUMP JUMPDEST SWAP8 POP PUSH2 0x30AF DUP4 PUSH2 0x305F JUMP JUMPDEST SWAP3 POP POP PUSH1 0x1 DUP2 ADD SWAP1 POP PUSH2 0x3090 JUMP JUMPDEST POP DUP6 SWAP4 POP POP POP POP SWAP3 SWAP2 POP POP JUMP JUMPDEST PUSH1 0x0 PUSH1 0x20 DUP3 ADD SWAP1 POP DUP2 DUP2 SUB PUSH1 0x0 DUP4 ADD MSTORE PUSH2 0x30E4 DUP2 DUP5 PUSH2 0x306C JUMP JUMPDEST SWAP1 POP SWAP3 SWAP2 POP POP JUMP JUMPDEST PUSH2 0x30F5 DUP2 PUSH2 0x2F73 JUMP JUMPDEST DUP3 MSTORE POP POP JUMP JUMPDEST PUSH1 0x0 PUSH1 0x20 DUP3 ADD SWAP1 POP PUSH2 0x3110 PUSH1 0x0 DUP4 ADD DUP5 PUSH2 0x30EC JUMP JUMPDEST SWAP3 SWAP2 POP POP JUMP JUMPDEST PUSH32 0x4E487B7100000000000000000000000000000000000000000000000000000000 PUSH1 0x0 MSTORE PUSH1 0x21 PUSH1 0x4 MSTORE PUSH1 0x24 PUSH1 0x0 REVERT JUMPDEST PUSH1 0x2 DUP2 LT PUSH2 0x3156 JUMPI PUSH2 0x3155 PUSH2 0x3116 JUMP JUMPDEST JUMPDEST POP JUMP JUMPDEST PUSH1 0x0 DUP2 SWAP1 POP PUSH2 0x3167 DUP3 PUSH2 0x3145 JUMP JUMPDEST SWAP2 SWAP1 POP JUMP JUMPDEST PUSH1 0x0 PUSH2 0x3177 DUP3 PUSH2 0x3159 JUMP JUMPDEST SWAP1 POP SWAP2 SWAP1 POP JUMP JUMPDEST PUSH2 0x3187 DUP2 PUSH2 0x316C JUMP JUMPDEST DUP3 MSTORE POP POP JUMP JUMPDEST PUSH1 0x0 PUSH1 0x80 DUP3 ADD SWAP1 POP PUSH2 0x31A2 PUSH1 0x0 DUP4 ADD DUP8 PUSH2 0x317E JUMP JUMPDEST PUSH2 0x31AF PUSH1 0x20 DUP4 ADD DUP7 PUSH2 0x30EC JUMP JUMPDEST PUSH2 0x31BC PUSH1 0x40 DUP4 ADD DUP6 PUSH2 0x2FE2 JUMP JUMPDEST PUSH2 0x31C9 PUSH1 0x60 DUP4 ADD DUP5 PUSH2 0x30EC JUMP JUMPDEST SWAP6 SWAP5 POP POP POP POP POP JUMP JUMPDEST PUSH2 0x31DB DUP2 PUSH2 0x2F08 JUMP JUMPDEST DUP3 MSTORE POP POP JUMP JUMPDEST PUSH1 0x0 PUSH1 0x20 DUP3 ADD SWAP1 POP PUSH2 0x31F6 PUSH1 0x0 DUP4 ADD DUP5 PUSH2 0x31D2 JUMP JUMPDEST SWAP3 SWAP2 POP POP JUMP JUMPDEST PUSH1 0x0 DUP2 SWAP1 POP SWAP2 SWAP1 POP JUMP JUMPDEST PUSH1 0x0 PUSH2 0x3221 PUSH2 0x321C PUSH2 0x3217 DUP5 PUSH2 0x2EE8 JUMP JUMPDEST PUSH2 0x31FC JUMP JUMPDEST PUSH2 0x2EE8 JUMP JUMPDEST SWAP1 POP SWAP2 SWAP1 POP JUMP JUMPDEST PUSH1 0x0 PUSH2 0x3233 DUP3 PUSH2 0x3206 JUMP JUMPDEST SWAP1 POP SWAP2 SWAP1 POP JUMP JUMPDEST PUSH1 0x0 PUSH2 0x3245 DUP3 PUSH2 0x3228 JUMP JUMPDEST SWAP1 POP SWAP2 SWAP1 POP JUMP JUMPDEST PUSH2 0x3255 DUP2 PUSH2 0x323A JUMP JUMPDEST DUP3 MSTORE POP POP JUMP JUMPDEST PUSH1 0x0 PUSH1 0x20 DUP3 ADD SWAP1 POP PUSH2 0x3270 PUSH1 0x0 DUP4 ADD DUP5 PUSH2 0x324C JUMP JUMPDEST SWAP3 SWAP2 POP POP JUMP JUMPDEST PUSH1 0x0 DUP1 PUSH1 0x40 DUP4 DUP6 SUB SLT ISZERO PUSH2 0x328D JUMPI PUSH2 0x328C PUSH2 0x2EE3 JUMP JUMPDEST JUMPDEST PUSH1 0x0 PUSH2 0x329B DUP6 DUP3 DUP7 ADD PUSH2 0x2F94 JUMP JUMPDEST SWAP3 POP POP PUSH1 0x20 PUSH2 0x32AC DUP6 DUP3 DUP7 ADD PUSH2 0x2F94 JUMP JUMPDEST SWAP2 POP POP SWAP3 POP SWAP3 SWAP1 POP JUMP JUMPDEST PUSH1 0x0 DUP1 PUSH1 0x40 DUP4 DUP6 SUB SLT ISZERO PUSH2 0x32CD JUMPI PUSH2 0x32CC PUSH2 0x2EE3 JUMP JUMPDEST JUMPDEST PUSH1 0x0 PUSH2 0x32DB DUP6 DUP3 DUP7 ADD PUSH2 0x2F31 JUMP JUMPDEST SWAP3 POP POP PUSH1 0x20 PUSH2 0x32EC DUP6 DUP3 DUP7 ADD PUSH2 0x2F94 JUMP JUMPDEST SWAP2 POP POP SWAP3 POP SWAP3 SWAP1 POP JUMP JUMPDEST PUSH1 0x0 PUSH2 0x3301 DUP3 PUSH2 0x3228 JUMP JUMPDEST SWAP1 POP SWAP2 SWAP1 POP JUMP JUMPDEST PUSH2 0x3311 DUP2 PUSH2 0x32F6 JUMP JUMPDEST DUP3 MSTORE POP POP JUMP JUMPDEST PUSH1 0x0 PUSH1 0x20 DUP3 ADD SWAP1 POP PUSH2 0x332C PUSH1 0x0 DUP4 ADD DUP5 PUSH2 0x3308 JUMP JUMPDEST SWAP3 SWAP2 POP POP JUMP JUMPDEST PUSH1 0x0 DUP3 DUP3 MSTORE PUSH1 0x20 DUP3 ADD SWAP1 POP SWAP3 SWAP2 POP POP JUMP JUMPDEST PUSH32 0x546869732075736572206973206E6F7420726567697374657265640000000000 PUSH1 0x0 DUP3 ADD MSTORE POP JUMP JUMPDEST PUSH1 0x0 PUSH2 0x3379 PUSH1 0x1B DUP4 PUSH2 0x3332 JUMP JUMPDEST SWAP2 POP PUSH2 0x3384 DUP3 PUSH2 0x3343 JUMP JUMPDEST PUSH1 0x20 DUP3 ADD SWAP1 POP SWAP2 SWAP1 POP JUMP JUMPDEST PUSH1 0x0 PUSH1 0x20 DUP3 ADD SWAP1 POP DUP2 DUP2 SUB PUSH1 0x0 DUP4 ADD MSTORE PUSH2 0x33A8 DUP2 PUSH2 0x336C JUMP JUMPDEST SWAP1 POP SWAP2 SWAP1 POP JUMP JUMPDEST PUSH32 0x4E487B7100000000000000000000000000000000000000000000000000000000 PUSH1 0x0 MSTORE PUSH1 0x11 PUSH1 0x4 MSTORE PUSH1 0x24 PUSH1 0x0 REVERT JUMPDEST PUSH1 0x0 PUSH2 0x33E9 DUP3 PUSH2 0x2F73 JUMP JUMPDEST SWAP2 POP PUSH2 0x33F4 DUP4 PUSH2 0x2F73 JUMP JUMPDEST SWAP3 POP DUP3 DUP3 SUB SWAP1 POP DUP2 DUP2 GT ISZERO PUSH2 0x340C JUMPI PUSH2 0x340B PUSH2 0x33AF JUMP JUMPDEST JUMPDEST SWAP3 SWAP2 POP POP JUMP JUMPDEST PUSH32 0x4E487B7100000000000000000000000000000000000000000000000000000000 PUSH1 0x0 MSTORE PUSH1 0x32 PUSH1 0x4 MSTORE PUSH1 0x24 PUSH1 0x0 REVERT JUMPDEST PUSH1 0x0 DUP2 MLOAD SWAP1 POP PUSH2 0x3450 DUP2 PUSH2 0x2F1A JUMP JUMPDEST SWAP3 SWAP2 POP POP JUMP JUMPDEST PUSH1 0x0 PUSH1 0x20 DUP3 DUP5 SUB SLT ISZERO PUSH2 0x346C JUMPI PUSH2 0x346B PUSH2 0x2EE3 JUMP JUMPDEST JUMPDEST PUSH1 0x0 PUSH2 0x347A DUP5 DUP3 DUP6 ADD PUSH2 0x3441 JUMP JUMPDEST SWAP2 POP POP SWAP3 SWAP2 POP POP JUMP JUMPDEST PUSH1 0x0 PUSH1 0x60 DUP3 ADD SWAP1 POP PUSH2 0x3498 PUSH1 0x0 DUP4 ADD DUP7 PUSH2 0x31D2 JUMP JUMPDEST PUSH2 0x34A5 PUSH1 0x20 DUP4 ADD DUP6 PUSH2 0x31D2 JUMP JUMPDEST PUSH2 0x34B2 PUSH1 0x40 DUP4 ADD DUP5 PUSH2 0x30EC JUMP JUMPDEST SWAP5 SWAP4 POP POP POP POP JUMP JUMPDEST PUSH2 0x34C3 DUP2 PUSH2 0x2FD6 JUMP JUMPDEST DUP2 EQ PUSH2 0x34CE JUMPI PUSH1 0x0 DUP1 REVERT JUMPDEST POP JUMP JUMPDEST PUSH1 0x0 DUP2 MLOAD SWAP1 POP PUSH2 0x34E0 DUP2 PUSH2 0x34BA JUMP JUMPDEST SWAP3 SWAP2 POP POP JUMP JUMPDEST PUSH1 0x0 PUSH1 0x20 DUP3 DUP5 SUB SLT ISZERO PUSH2 0x34FC JUMPI PUSH2 0x34FB PUSH2 0x2EE3 JUMP JUMPDEST JUMPDEST PUSH1 0x0 PUSH2 0x350A DUP5 DUP3 DUP6 ADD PUSH2 0x34D1 JUMP JUMPDEST SWAP2 POP POP SWAP3 SWAP2 POP POP JUMP JUMPDEST PUSH32 0x4661696C656420746F2070617920646562740000000000000000000000000000 PUSH1 0x0 DUP3 ADD MSTORE POP JUMP JUMPDEST PUSH1 0x0 PUSH2 0x3549 PUSH1 0x12 DUP4 PUSH2 0x3332 JUMP JUMPDEST SWAP2 POP PUSH2 0x3554 DUP3 PUSH2 0x3513 JUMP JUMPDEST PUSH1 0x20 DUP3 ADD SWAP1 POP SWAP2 SWAP1 POP JUMP JUMPDEST PUSH1 0x0 PUSH1 0x20 DUP3 ADD SWAP1 POP DUP2 DUP2 SUB PUSH1 0x0 DUP4 ADD MSTORE PUSH2 0x3578 DUP2 PUSH2 0x353C JUMP JUMPDEST SWAP1 POP SWAP2 SWAP1 POP JUMP JUMPDEST PUSH32 0x546865206F6E636861696E54696D652076616C75652073686F756C6420626520 PUSH1 0x0 DUP3 ADD MSTORE PUSH32 0x7472756500000000000000000000000000000000000000000000000000000000 PUSH1 0x20 DUP3 ADD MSTORE POP JUMP JUMPDEST PUSH1 0x0 PUSH2 0x35DB PUSH1 0x24 DUP4 PUSH2 0x3332 JUMP JUMPDEST SWAP2 POP PUSH2 0x35E6 DUP3 PUSH2 0x357F JUMP JUMPDEST PUSH1 0x40 DUP3 ADD SWAP1 POP SWAP2 SWAP1 POP JUMP JUMPDEST PUSH1 0x0 PUSH1 0x20 DUP3 ADD SWAP1 POP DUP2 DUP2 SUB PUSH1 0x0 DUP4 ADD MSTORE PUSH2 0x360A DUP2 PUSH2 0x35CE JUMP JUMPDEST SWAP1 POP SWAP2 SWAP1 POP JUMP JUMPDEST PUSH1 0x0 PUSH2 0x361C DUP3 PUSH2 0x2F73 JUMP JUMPDEST SWAP2 POP PUSH2 0x3627 DUP4 PUSH2 0x2F73 JUMP JUMPDEST SWAP3 POP DUP3 DUP3 ADD SWAP1 POP DUP1 DUP3 GT ISZERO PUSH2 0x363F JUMPI PUSH2 0x363E PUSH2 0x33AF JUMP JUMPDEST JUMPDEST SWAP3 SWAP2 POP POP JUMP JUMPDEST PUSH1 0x0 PUSH2 0x3650 DUP3 PUSH2 0x2F73 JUMP JUMPDEST SWAP2 POP PUSH32 0xFFFFFFFFFFFFFFFFFFFFFFFFFFFFFFFFFFFFFFFFFFFFFFFFFFFFFFFFFFFFFFFF DUP3 SUB PUSH2 0x3682 JUMPI PUSH2 0x3681 PUSH2 0x33AF JUMP JUMPDEST JUMPDEST PUSH1 0x1 DUP3 ADD SWAP1 POP SWAP2 SWAP1 POP JUMP JUMPDEST PUSH32 0x5468652075736572206973206E6F7420626C6F636B6564000000000000000000 PUSH1 0x0 DUP3 ADD MSTORE POP JUMP JUMPDEST PUSH1 0x0 PUSH2 0x36C3 PUSH1 0x17 DUP4 PUSH2 0x3332 JUMP JUMPDEST SWAP2 POP PUSH2 0x36CE DUP3 PUSH2 0x368D JUMP JUMPDEST PUSH1 0x20 DUP3 ADD SWAP1 POP SWAP2 SWAP1 POP JUMP JUMPDEST PUSH1 0x0 PUSH1 0x20 DUP3 ADD SWAP1 POP DUP2 DUP2 SUB PUSH1 0x0 DUP4 ADD MSTORE PUSH2 0x36F2 DUP2 PUSH2 0x36B6 JUMP JUMPDEST SWAP1 POP SWAP2 SWAP1 POP JUMP JUMPDEST PUSH32 0x546869732075736572206973206E6F7420616374697661746564000000000000 PUSH1 0x0 DUP3 ADD MSTORE POP JUMP JUMPDEST PUSH1 0x0 PUSH2 0x372F PUSH1 0x1A DUP4 PUSH2 0x3332 JUMP JUMPDEST SWAP2 POP PUSH2 0x373A DUP3 PUSH2 0x36F9 JUMP JUMPDEST PUSH1 0x20 DUP3 ADD SWAP1 POP SWAP2 SWAP1 POP JUMP JUMPDEST PUSH1 0x0 PUSH1 0x20 DUP3 ADD SWAP1 POP DUP2 DUP2 SUB PUSH1 0x0 DUP4 ADD MSTORE PUSH2 0x375E DUP2 PUSH2 0x3722 JUMP JUMPDEST SWAP1 POP SWAP2 SWAP1 POP JUMP JUMPDEST PUSH32 0x5573657220616C72656164792061646465640000000000000000000000000000 PUSH1 0x0 DUP3 ADD MSTORE POP JUMP JUMPDEST PUSH1 0x0 PUSH2 0x379B PUSH1 0x12 DUP4 PUSH2 0x3332 JUMP JUMPDEST SWAP2 POP PUSH2 0x37A6 DUP3 PUSH2 0x3765 JUMP JUMPDEST PUSH1 0x20 DUP3 ADD SWAP1 POP SWAP2 SWAP1 POP JUMP JUMPDEST PUSH1 0x0 PUSH1 0x20 DUP3 ADD SWAP1 POP DUP2 DUP2 SUB PUSH1 0x0 DUP4 ADD MSTORE PUSH2 0x37CA DUP2 PUSH2 0x378E JUMP JUMPDEST SWAP1 POP SWAP2 SWAP1 POP JUMP JUMPDEST PUSH32 0x546865206F6E636861696E54696D652076616C75652073686F756C6420626520 PUSH1 0x0 DUP3 ADD MSTORE PUSH32 0x66616C7365000000000000000000000000000000000000000000000000000000 PUSH1 0x20 DUP3 ADD MSTORE POP JUMP JUMPDEST PUSH1 0x0 PUSH2 0x382D PUSH1 0x25 DUP4 PUSH2 0x3332 JUMP JUMPDEST SWAP2 POP PUSH2 0x3838 DUP3 PUSH2 0x37D1 JUMP JUMPDEST PUSH1 0x40 DUP3 ADD SWAP1 POP SWAP2 SWAP1 POP JUMP JUMPDEST PUSH1 0x0 PUSH1 0x20 DUP3 ADD SWAP1 POP DUP2 DUP2 SUB PUSH1 0x0 DUP4 ADD MSTORE PUSH2 0x385C DUP2 PUSH2 0x3820 JUMP JUMPDEST SWAP1 POP SWAP2 SWAP1 POP JUMP JUMPDEST PUSH32 0x4E487B7100000000000000000000000000000000000000000000000000000000 PUSH1 0x0 MSTORE PUSH1 0x12 PUSH1 0x4 MSTORE PUSH1 0x24 PUSH1 0x0 REVERT JUMPDEST PUSH1 0x0 PUSH2 0x389D DUP3 PUSH2 0x2F73 JUMP JUMPDEST SWAP2 POP PUSH2 0x38A8 DUP4 PUSH2 0x2F73 JUMP JUMPDEST SWAP3 POP DUP3 PUSH2 0x38B8 JUMPI PUSH2 0x38B7 PUSH2 0x3863 JUMP JUMPDEST JUMPDEST DUP3 DUP3 MOD SWAP1 POP SWAP3 SWAP2 POP POP JUMP JUMPDEST PUSH32 0x5468652075736572206973206E6F74206F757473696465000000000000000000 PUSH1 0x0 DUP3 ADD MSTORE POP JUMP JUMPDEST PUSH1 0x0 PUSH2 0x38F9 PUSH1 0x17 DUP4 PUSH2 0x3332 JUMP JUMPDEST SWAP2 POP PUSH2 0x3904 DUP3 PUSH2 0x38C3 JUMP JUMPDEST PUSH1 0x20 DUP3 ADD SWAP1 POP SWAP2 SWAP1 POP JUMP JUMPDEST PUSH1 0x0 PUSH1 0x20 DUP3 ADD SWAP1 POP DUP2 DUP2 SUB PUSH1 0x0 DUP4 ADD MSTORE PUSH2 0x3928 DUP2 PUSH2 0x38EC JUMP JUMPDEST SWAP1 POP SWAP2 SWAP1 POP JUMP JUMPDEST PUSH32 0x5468652075736572206973206E6F7420696E7369646500000000000000000000 PUSH1 0x0 DUP3 ADD MSTORE POP JUMP JUMPDEST PUSH1 0x0 PUSH2 0x3965 PUSH1 0x16 DUP4 PUSH2 0x3332 JUMP JUMPDEST SWAP2 POP PUSH2 0x3970 DUP3 PUSH2 0x392F JUMP JUMPDEST PUSH1 0x20 DUP3 ADD SWAP1 POP SWAP2 SWAP1 POP JUMP JUMPDEST PUSH1 0x0 PUSH1 0x20 DUP3 ADD SWAP1 POP DUP2 DUP2 SUB PUSH1 0x0 DUP4 ADD MSTORE PUSH2 0x3994 DUP2 PUSH2 0x3958 JUMP JUMPDEST SWAP1 POP SWAP2 SWAP1 POP JUMP JUMPDEST PUSH32 0x4F776E61626C653A206E6577206F776E657220697320746865207A65726F2061 PUSH1 0x0 DUP3 ADD MSTORE PUSH32 0x6464726573730000000000000000000000000000000000000000000000000000 PUSH1 0x20 DUP3 ADD MSTORE POP JUMP JUMPDEST PUSH1 0x0 PUSH2 0x39F7 PUSH1 0x26 DUP4 PUSH2 0x3332 JUMP JUMPDEST SWAP2 POP PUSH2 0x3A02 DUP3 PUSH2 0x399B JUMP JUMPDEST PUSH1 0x40 DUP3 ADD SWAP1 POP SWAP2 SWAP1 POP JUMP JUMPDEST PUSH1 0x0 PUSH1 0x20 DUP3 ADD SWAP1 POP DUP2 DUP2 SUB PUSH1 0x0 DUP4 ADD MSTORE PUSH2 0x3A26 DUP2 PUSH2 0x39EA JUMP JUMPDEST SWAP1 POP SWAP2 SWAP1 POP JUMP JUMPDEST PUSH32 0x4F776E61626C653A2063616C6C6572206973206E6F7420746865206F776E6572 PUSH1 0x0 DUP3 ADD MSTORE POP JUMP JUMPDEST PUSH1 0x0 PUSH2 0x3A63 PUSH1 0x20 DUP4 PUSH2 0x3332 JUMP JUMPDEST SWAP2 POP PUSH2 0x3A6E DUP3 PUSH2 0x3A2D JUMP JUMPDEST PUSH1 0x20 DUP3 ADD SWAP1 POP SWAP2 SWAP1 POP JUMP JUMPDEST PUSH1 0x0 PUSH1 0x20 DUP3 ADD SWAP1 POP DUP2 DUP2 SUB PUSH1 0x0 DUP4 ADD MSTORE PUSH2 0x3A92 DUP2 PUSH2 0x3A56 JUMP JUMPDEST SWAP1 POP SWAP2 SWAP1 POP JUMP JUMPDEST PUSH32 0x4F7574206F662072616E67652061636365737320746F20757365720000000000 PUSH1 0x0 DUP3 ADD MSTORE POP JUMP JUMPDEST PUSH1 0x0 PUSH2 0x3ACF PUSH1 0x1B DUP4 PUSH2 0x3332 JUMP JUMPDEST SWAP2 POP PUSH2 0x3ADA DUP3 PUSH2 0x3A99 JUMP JUMPDEST PUSH1 0x20 DUP3 ADD SWAP1 POP SWAP2 SWAP1 POP JUMP JUMPDEST PUSH1 0x0 PUSH1 0x20 DUP3 ADD SWAP1 POP DUP2 DUP2 SUB PUSH1 0x0 DUP4 ADD MSTORE PUSH2 0x3AFE DUP2 PUSH2 0x3AC2 JUMP JUMPDEST SWAP1 POP SWAP2 SWAP1 POP JUMP JUMPDEST PUSH32 0x54686973206973206E6F7420616E20696E74657276616C000000000000000000 PUSH1 0x0 DUP3 ADD MSTORE POP JUMP JUMPDEST PUSH1 0x0 PUSH2 0x3B3B PUSH1 0x17 DUP4 PUSH2 0x3332 JUMP JUMPDEST SWAP2 POP PUSH2 0x3B46 DUP3 PUSH2 0x3B05 JUMP JUMPDEST PUSH1 0x20 DUP3 ADD SWAP1 POP SWAP2 SWAP1 POP JUMP JUMPDEST PUSH1 0x0 PUSH1 0x20 DUP3 ADD SWAP1 POP DUP2 DUP2 SUB PUSH1 0x0 DUP4 ADD MSTORE PUSH2 0x3B6A DUP2 PUSH2 0x3B2E JUMP JUMPDEST SWAP1 POP SWAP2 SWAP1 POP JUMP JUMPDEST PUSH1 0x0 PUSH2 0x3B7C DUP3 PUSH2 0x2F73 JUMP JUMPDEST SWAP2 POP PUSH2 0x3B87 DUP4 PUSH2 0x2F73 JUMP JUMPDEST SWAP3 POP DUP3 PUSH2 0x3B97 JUMPI PUSH2 0x3B96 PUSH2 0x3863 JUMP JUMPDEST JUMPDEST DUP3 DUP3 DIV SWAP1 POP SWAP3 SWAP2 POP POP JUMP JUMPDEST PUSH32 0x596F75277265206E6F7420746865206861726477617265000000000000000000 PUSH1 0x0 DUP3 ADD MSTORE POP JUMP JUMPDEST PUSH1 0x0 PUSH2 0x3BD8 PUSH1 0x17 DUP4 PUSH2 0x3332 JUMP JUMPDEST SWAP2 POP PUSH2 0x3BE3 DUP3 PUSH2 0x3BA2 JUMP JUMPDEST PUSH1 0x20 DUP3 ADD SWAP1 POP SWAP2 SWAP1 POP JUMP JUMPDEST PUSH1 0x0 PUSH1 0x20 DUP3 ADD SWAP1 POP DUP2 DUP2 SUB PUSH1 0x0 DUP4 ADD MSTORE PUSH2 0x3C07 DUP2 PUSH2 0x3BCB JUMP JUMPDEST SWAP1 POP SWAP2 SWAP1 POP JUMP JUMPDEST PUSH1 0x0 PUSH1 0x80 DUP3 ADD SWAP1 POP PUSH2 0x3C23 PUSH1 0x0 DUP4 ADD DUP8 PUSH2 0x30EC JUMP JUMPDEST PUSH2 0x3C30 PUSH1 0x20 DUP4 ADD DUP7 PUSH2 0x30EC JUMP JUMPDEST PUSH2 0x3C3D PUSH1 0x40 DUP4 ADD DUP6 PUSH2 0x30EC JUMP JUMPDEST PUSH2 0x3C4A PUSH1 0x60 DUP4 ADD DUP5 PUSH2 0x31D2 JUMP JUMPDEST SWAP6 SWAP5 POP POP POP POP POP JUMP JUMPDEST PUSH1 0x0 DUP2 MLOAD SWAP1 POP PUSH2 0x3C62 DUP2 PUSH2 0x2F7D JUMP JUMPDEST SWAP3 SWAP2 POP POP JUMP JUMPDEST PUSH1 0x0 PUSH1 0x20 DUP3 DUP5 SUB SLT ISZERO PUSH2 0x3C7E JUMPI PUSH2 0x3C7D PUSH2 0x2EE3 JUMP JUMPDEST JUMPDEST PUSH1 0x0 PUSH2 0x3C8C DUP5 DUP3 DUP6 ADD PUSH2 0x3C53 JUMP JUMPDEST SWAP2 POP POP SWAP3 SWAP2 POP POP JUMP JUMPDEST PUSH1 0x0 PUSH1 0x40 DUP3 ADD SWAP1 POP PUSH2 0x3CAA PUSH1 0x0 DUP4 ADD DUP6 PUSH2 0x31D2 JUMP JUMPDEST PUSH2 0x3CB7 PUSH1 0x20 DUP4 ADD DUP5 PUSH2 0x31D2 JUMP JUMPDEST SWAP4 SWAP3 POP POP POP JUMP JUMPDEST PUSH32 0x4661696C656420746F20706179206F6E20657869740000000000000000000000 PUSH1 0x0 DUP3 ADD MSTORE POP JUMP JUMPDEST PUSH1 0x0 PUSH2 0x3CF4 PUSH1 0x15 DUP4 PUSH2 0x3332 JUMP JUMPDEST SWAP2 POP PUSH2 0x3CFF DUP3 PUSH2 0x3CBE JUMP JUMPDEST PUSH1 0x20 DUP3 ADD SWAP1 POP SWAP2 SWAP1 POP JUMP JUMPDEST PUSH1 0x0 PUSH1 0x20 DUP3 ADD SWAP1 POP DUP2 DUP2 SUB PUSH1 0x0 DUP4 ADD MSTORE PUSH2 0x3D23 DUP2 PUSH2 0x3CE7 JUMP JUMPDEST SWAP1 POP SWAP2 SWAP1 POP JUMP INVALID LOG2 PUSH5 0x6970667358 0x22 SLT KECCAK256 0xFC SWAP12 EQ ISZERO SGT SDIV 0xB4 MULMOD PUSH5 0xD6822830F5 0xBE SWAP7 PUSH10 0xD380278593AC4E6186EC 0x4B 0xCC ADDMOD 0xDC 0xC6 PUSH5 0x736F6C6343 STOP ADDMOD GT STOP CALLER "},"methodIdentifiers":{"addFare(address)":"0b7b1329","addUser(address)":"421b2d8b","blockUser(address)":"3da01325","enter(address)":"d014c01f","enter(address,uint256)":"7e348b7d","exit(address)":"b42652e9","exit(address,uint256)":"ef693bed","fare()":"adeb0382","fare(uint256)":"df419350","fares(uint256)":"3d134bfc","faresTimeStamp(uint256)":"4bc060ed","getUserRegisters(address)":"26a7600d","hardwareAddress()":"3bdf8369","isInside(address)":"1a913542","isInside(address,uint256)":"b6bc4bad","myDebt()":"947bb341","nUsers()":"895449d5","occupancy()":"3f728455","occupancy(uint256)":"305628af","occupancy(uint256,uint256)":"421ce89b","onchainTime()":"3e19e9e0","owner()":"8da5cb5b","payDebt(uint256)":"16fc3297","register(address)":"4420e486","register(address,uint256)":"6d705ebb","renounceOwnership()":"715018a6","setAutentificator(uint256)":"9a2041bf","token()":"fc0c546a","transferOwnership(address)":"f2fde38b","unblockUser(address)":"39d319e5","users(uint256)":"365b98b2","usersID(address)":"28c3d4b3"}}}}}