{
  "_format": "hh-sol-artifact-1",
  "contractName": "AccessControl",
  "sourceName": "contracts/AccessControl.sol",
  "abi": [
    {
      "inputs": [
        {
          "internalType": "address",
          "name": "hardwareAddress_",
          "type": "address"
        },
        {
          "internalType": "address",
          "name": "tokenAddress_",
          "type": "address"
        },
        {
          "internalType": "bool",
          "name": "onchainTime_",
          "type": "bool"
        }
      ],
      "stateMutability": "nonpayable",
      "type": "constructor"
    },
    {
      "anonymous": false,
      "inputs": [
        {
          "indexed": true,
          "internalType": "address",
          "name": "userAdrdress_",
          "type": "address"
        }
      ],
      "name": "DebtPayed",
      "type": "event"
    },
    {
      "anonymous": false,
      "inputs": [
        {
          "indexed": true,
          "internalType": "address",
          "name": "fareAddress_",
          "type": "address"
        }
      ],
      "name": "NewFare",
      "type": "event"
    },
    {
      "anonymous": false,
      "inputs": [
        {
          "indexed": true,
          "internalType": "address",
          "name": "previousOwner",
          "type": "address"
        },
        {
          "indexed": true,
          "internalType": "address",
          "name": "newOwner",
          "type": "address"
        }
      ],
      "name": "OwnershipTransferred",
      "type": "event"
    },
    {
      "anonymous": false,
      "inputs": [
        {
          "indexed": true,
          "internalType": "address",
          "name": "userAddress_",
          "type": "address"
        },
        {
          "indexed": true,
          "internalType": "uint256",
          "name": "debt",
          "type": "uint256"
        }
      ],
      "name": "UserBlocked",
      "type": "event"
    },
    {
      "anonymous": false,
      "inputs": [
        {
          "indexed": true,
          "internalType": "address",
          "name": "userAddress_",
          "type": "address"
        }
      ],
      "name": "UserUnblocked",
      "type": "event"
    },
    {
      "inputs": [
        {
          "internalType": "address",
          "name": "fareAddress_",
          "type": "address"
        }
      ],
      "name": "addFare",
      "outputs": [],
      "stateMutability": "nonpayable",
      "type": "function"
    },
    {
      "inputs": [
        {
          "internalType": "address",
          "name": "userAddress_",
          "type": "address"
        }
      ],
      "name": "addUser",
      "outputs": [],
      "stateMutability": "nonpayable",
      "type": "function"
    },
    {
      "inputs": [
        {
          "internalType": "address",
          "name": "userAdrdress_",
          "type": "address"
        }
      ],
      "name": "blockUser",
      "outputs": [],
      "stateMutability": "nonpayable",
      "type": "function"
    },
    {
      "inputs": [
        {
          "internalType": "address",
          "name": "userAddress_",
          "type": "address"
        },
        {
          "internalType": "uint256",
          "name": "timestamp_",
          "type": "uint256"
        }
      ],
      "name": "enter",
      "outputs": [],
      "stateMutability": "nonpayable",
      "type": "function"
    },
    {
      "inputs": [
        {
          "internalType": "address",
          "name": "userAddress_",
          "type": "address"
        }
      ],
      "name": "enter",
      "outputs": [],
      "stateMutability": "nonpayable",
      "type": "function"
    },
    {
      "inputs": [
        {
          "internalType": "address",
          "name": "userAddress_",
          "type": "address"
        }
      ],
      "name": "exit",
      "outputs": [],
      "stateMutability": "nonpayable",
      "type": "function"
    },
    {
      "inputs": [
        {
          "internalType": "address",
          "name": "userAddress_",
          "type": "address"
        },
        {
          "internalType": "uint256",
          "name": "timestamp_",
          "type": "uint256"
        }
      ],
      "name": "exit",
      "outputs": [],
      "stateMutability": "nonpayable",
      "type": "function"
    },
    {
      "inputs": [
        {
          "internalType": "uint256",
          "name": "",
          "type": "uint256"
        }
      ],
      "name": "fare",
      "outputs": [
        {
          "internalType": "contract FareCalculator",
          "name": "",
          "type": "address"
        }
      ],
      "stateMutability": "view",
      "type": "function"
    },
    {
      "inputs": [
        {
          "internalType": "uint256",
          "name": "",
          "type": "uint256"
        }
      ],
      "name": "fareTimeStamp",
      "outputs": [
        {
          "internalType": "uint256",
          "name": "",
          "type": "uint256"
        }
      ],
      "stateMutability": "view",
      "type": "function"
    },
    {
      "inputs": [
        {
          "internalType": "address",
          "name": "userAddress_",
          "type": "address"
        }
      ],
      "name": "getUserRegisters",
      "outputs": [
        {
          "internalType": "uint256[]",
          "name": "",
          "type": "uint256[]"
        }
      ],
      "stateMutability": "view",
      "type": "function"
    },
    {
      "inputs": [],
      "name": "hardwareAddress",
      "outputs": [
        {
          "internalType": "address",
          "name": "",
          "type": "address"
        }
      ],
      "stateMutability": "view",
      "type": "function"
    },
    {
      "inputs": [
        {
          "internalType": "address",
          "name": "userAddress_",
          "type": "address"
        }
      ],
      "name": "isInside",
      "outputs": [
        {
          "internalType": "bool",
          "name": "",
          "type": "bool"
        }
      ],
      "stateMutability": "view",
      "type": "function"
    },
    {
      "inputs": [
        {
          "internalType": "address",
          "name": "userAddress_",
          "type": "address"
        },
        {
          "internalType": "uint256",
          "name": "timestamp_",
          "type": "uint256"
        }
      ],
      "name": "isInside",
      "outputs": [
        {
          "internalType": "bool",
          "name": "",
          "type": "bool"
        }
      ],
      "stateMutability": "view",
      "type": "function"
    },
    {
      "inputs": [],
      "name": "myDebt",
      "outputs": [
        {
          "internalType": "uint256",
          "name": "",
          "type": "uint256"
        }
      ],
      "stateMutability": "view",
      "type": "function"
    },
    {
      "inputs": [],
      "name": "nUsers",
      "outputs": [
        {
          "internalType": "uint256",
          "name": "",
          "type": "uint256"
        }
      ],
      "stateMutability": "view",
      "type": "function"
    },
    {
      "inputs": [
        {
          "internalType": "uint256",
          "name": "timestamp_",
          "type": "uint256"
        }
      ],
      "name": "occupancy",
      "outputs": [
        {
          "internalType": "uint256",
          "name": "",
          "type": "uint256"
        }
      ],
      "stateMutability": "view",
      "type": "function"
    },
    {
      "inputs": [],
      "name": "occupancy",
      "outputs": [
        {
          "internalType": "uint256",
          "name": "",
          "type": "uint256"
        }
      ],
      "stateMutability": "view",
      "type": "function"
    },
    {
      "inputs": [
        {
          "internalType": "uint256",
          "name": "start_",
          "type": "uint256"
        },
        {
          "internalType": "uint256",
          "name": "end_",
          "type": "uint256"
        }
      ],
      "name": "occupancy",
      "outputs": [
        {
          "internalType": "uint256",
          "name": "",
          "type": "uint256"
        }
      ],
      "stateMutability": "view",
      "type": "function"
    },
    {
      "inputs": [],
      "name": "onchainTime",
      "outputs": [
        {
          "internalType": "bool",
          "name": "",
          "type": "bool"
        }
      ],
      "stateMutability": "view",
      "type": "function"
    },
    {
      "inputs": [],
      "name": "owner",
      "outputs": [
        {
          "internalType": "address",
          "name": "",
          "type": "address"
        }
      ],
      "stateMutability": "view",
      "type": "function"
    },
    {
      "inputs": [
        {
          "internalType": "uint256",
          "name": "amount_",
          "type": "uint256"
        }
      ],
      "name": "payDebt",
      "outputs": [],
      "stateMutability": "nonpayable",
      "type": "function"
    },
    {
      "inputs": [
        {
          "internalType": "address",
          "name": "userAddress_",
          "type": "address"
        }
      ],
      "name": "register",
      "outputs": [],
      "stateMutability": "nonpayable",
      "type": "function"
    },
    {
      "inputs": [
        {
          "internalType": "address",
          "name": "userAddress_",
          "type": "address"
        },
        {
          "internalType": "uint256",
          "name": "timestamp_",
          "type": "uint256"
        }
      ],
      "name": "register",
      "outputs": [],
      "stateMutability": "nonpayable",
      "type": "function"
    },
    {
      "inputs": [],
      "name": "renounceOwnership",
      "outputs": [],
      "stateMutability": "nonpayable",
      "type": "function"
    },
    {
      "inputs": [
        {
          "internalType": "uint256",
          "name": "newAutentificator_",
          "type": "uint256"
        }
      ],
      "name": "setAutentificator",
      "outputs": [],
      "stateMutability": "nonpayable",
      "type": "function"
    },
    {
      "inputs": [],
      "name": "token",
      "outputs": [
        {
          "internalType": "contract AccessControlToken",
          "name": "",
          "type": "address"
        }
      ],
      "stateMutability": "view",
      "type": "function"
    },
    {
      "inputs": [
        {
          "internalType": "address",
          "name": "newOwner",
          "type": "address"
        }
      ],
      "name": "transferOwnership",
      "outputs": [],
      "stateMutability": "nonpayable",
      "type": "function"
    },
    {
      "inputs": [
        {
          "internalType": "address",
          "name": "userAdrdress_",
          "type": "address"
        }
      ],
      "name": "unblockUser",
      "outputs": [],
      "stateMutability": "nonpayable",
      "type": "function"
    },
    {
      "inputs": [
        {
          "internalType": "uint256",
          "name": "",
          "type": "uint256"
        }
      ],
      "name": "user",
      "outputs": [
        {
          "internalType": "enum AccessControl.Status",
          "name": "status",
          "type": "uint8"
        },
        {
          "internalType": "uint256",
          "name": "autentificator",
          "type": "uint256"
        },
        {
          "internalType": "bool",
          "name": "isInside",
          "type": "bool"
        },
        {
          "internalType": "uint256",
          "name": "debt",
          "type": "uint256"
        }
      ],
      "stateMutability": "view",
      "type": "function"
    },
    {
      "inputs": [
        {
          "internalType": "address",
          "name": "",
          "type": "address"
        }
      ],
      "name": "userID",
      "outputs": [
        {
          "internalType": "uint256",
          "name": "",
          "type": "uint256"
        }
      ],
      "stateMutability": "view",
      "type": "function"
    }
  ],
  "bytecode": "0x60806040523480156200001157600080fd5b5060405162003f2a38038062003f2a833981810160405281019062000037919062000277565b620000576200004b6200010460201b60201c565b6200010c60201b60201c565b82600760006101000a81548173ffffffffffffffffffffffffffffffffffffffff021916908373ffffffffffffffffffffffffffffffffffffffff16021790555080600760146101000a81548160ff02191690831515021790555081600460006101000a81548173ffffffffffffffffffffffffffffffffffffffff021916908373ffffffffffffffffffffffffffffffffffffffff1602179055506000600381905550505050620002d3565b600033905090565b60008060009054906101000a900473ffffffffffffffffffffffffffffffffffffffff169050816000806101000a81548173ffffffffffffffffffffffffffffffffffffffff021916908373ffffffffffffffffffffffffffffffffffffffff1602179055508173ffffffffffffffffffffffffffffffffffffffff168173ffffffffffffffffffffffffffffffffffffffff167f8be0079c531659141344cd1fd0a4f28419497f9722a3daafe3b4186f6b6457e060405160405180910390a35050565b600080fd5b600073ffffffffffffffffffffffffffffffffffffffff82169050919050565b60006200020282620001d5565b9050919050565b6200021481620001f5565b81146200022057600080fd5b50565b600081519050620002348162000209565b92915050565b60008115159050919050565b62000251816200023a565b81146200025d57600080fd5b50565b600081519050620002718162000246565b92915050565b600080600060608486031215620002935762000292620001d0565b5b6000620002a38682870162000223565b9350506020620002b68682870162000223565b9250506040620002c98682870162000260565b9150509250925092565b613c4780620002e36000396000f3fe608060405234801561001057600080fd5b50600436106101da5760003560e01c8063715018a611610104578063b6bc4bad116100a2578063eda7794e11610071578063eda7794e14610554578063ef693bed14610584578063f2fde38b146105a0578063fc0c546a146105bc576101da565b8063b6bc4bad146104a8578063d014c01f146104d8578063df419350146104f4578063e936d9b614610524576101da565b80638da5cb5b116100de5780638da5cb5b14610434578063947bb341146104525780639a2041bf14610470578063b42652e91461048c576101da565b8063715018a6146103f05780637e348b7d146103fa578063895449d514610416576101da565b80633da013251161017c578063421ce89b1161014b578063421ce89b146103555780634420e48614610385578063553275be146103a15780636d705ebb146103d4576101da565b80633da01325146102e15780633e19e9e0146102fd5780633f7284551461031b578063421b2d8b14610339576101da565b806326a7600d116101b857806326a7600d14610247578063305628af1461027757806339d319e5146102a75780633bdf8369146102c3576101da565b80630b7b1329146101df57806316fc3297146101fb5780631a91354214610217575b600080fd5b6101f960048036038101906101f49190612e1f565b6105da565b005b61021560048036038101906102109190612e82565b6106b4565b005b610231600480360381019061022c9190612e1f565b6109dd565b60405161023e9190612eca565b60405180910390f35b610261600480360381019061025c9190612e1f565b610b3d565b60405161026e9190612fa3565b60405180910390f35b610291600480360381019061028c9190612e82565b610c88565b60405161029e9190612fd4565b60405180910390f35b6102c160048036038101906102bc9190612e1f565b610cd6565b005b6102cb610ebe565b6040516102d89190612ffe565b60405180910390f35b6102fb60048036038101906102f69190612e1f565b610ee4565b005b6103056110fb565b6040516103129190612eca565b60405180910390f35b61032361110e565b6040516103309190612fd4565b60405180910390f35b610353600480360381019061034e9190612e1f565b61111e565b005b61036f600480360381019061036a9190613019565b6112a8565b60405161037c9190612fd4565b60405180910390f35b61039f600480360381019061039a9190612e1f565b6112f0565b005b6103bb60048036038101906103b69190612e82565b6113d7565b6040516103cb94939291906130d0565b60405180910390f35b6103ee60048036038101906103e99190613115565b611431565b005b6103f8611519565b005b610414600480360381019061040f9190613115565b61152d565b005b61041e6116f9565b60405161042b9190612fd4565b60405180910390f35b61043c6116ff565b6040516104499190612ffe565b60405180910390f35b61045a611728565b6040516104679190612fd4565b60405180910390f35b61048a60048036038101906104859190612e82565b611823565b005b6104a660048036038101906104a19190612e1f565b6119cf565b005b6104c260048036038101906104bd9190613115565b611b99565b6040516104cf9190612eca565b60405180910390f35b6104f260048036038101906104ed9190612e1f565b611cd1565b005b61050e60048036038101906105099190612e82565b611e9c565b60405161051b91906131b4565b60405180910390f35b61053e60048036038101906105399190612e82565b611edb565b60405161054b9190612fd4565b60405180910390f35b61056e60048036038101906105699190612e1f565b611eff565b60405161057b9190612fd4565b60405180910390f35b61059e60048036038101906105999190613115565b611f17565b005b6105ba60048036038101906105b59190612e1f565b6120e2565b005b6105c4612165565b6040516105d191906131f0565b60405180910390f35b6105e261218b565b60064290806001815401808255809150506001900390600052602060002001600090919091909150556005819080600181540180825580915050600190039060005260206000200160009091909190916101000a81548173ffffffffffffffffffffffffffffffffffffffff021916908373ffffffffffffffffffffffffffffffffffffffff1602179055508073ffffffffffffffffffffffffffffffffffffffff167f7b3d6578175180dc481df4d00e708332d71786e9a44d81b29d2d48174f17c18960405160405180910390a250565b336000600160008373ffffffffffffffffffffffffffffffffffffffff1673ffffffffffffffffffffffffffffffffffffffff1681526020019081526020016000205411610737576040517f08c379a000000000000000000000000000000000000000000000000000000000815260040161072e90613268565b60405180910390fd5b6000600260018060003373ffffffffffffffffffffffffffffffffffffffff1673ffffffffffffffffffffffffffffffffffffffff1681526020019081526020016000205461078691906132b7565b81548110610797576107966132eb565b5b9060005260206000209060050201600401549050828110156107b7578092505b60008311156109d8576000600460009054906101000a900473ffffffffffffffffffffffffffffffffffffffff1673ffffffffffffffffffffffffffffffffffffffff166323b872dd333073ffffffffffffffffffffffffffffffffffffffff16638da5cb5b6040518163ffffffff1660e01b8152600401602060405180830381865afa15801561084c573d6000803e3d6000fd5b505050506040513d601f19601f82011682018060405250810190610870919061332f565b876040518463ffffffff1660e01b815260040161088f9392919061335c565b6020604051808303816000875af11580156108ae573d6000803e3d6000fd5b505050506040513d601f19601f820116820180604052508101906108d291906133bf565b905080610914576040517f08c379a000000000000000000000000000000000000000000000000000000000815260040161090b90613438565b60405180910390fd5b838261092091906132b7565b600260018060003373ffffffffffffffffffffffffffffffffffffffff1673ffffffffffffffffffffffffffffffffffffffff1681526020019081526020016000205461096d91906132b7565b8154811061097e5761097d6132eb565b5b9060005260206000209060050201600401819055503373ffffffffffffffffffffffffffffffffffffffff167f7cd5f45a99992acf8a3c4f46fbc2636e3cd3b0221f95b6ecc35b685887855cf760405160405180910390a2505b505050565b6000816000600160008373ffffffffffffffffffffffffffffffffffffffff1673ffffffffffffffffffffffffffffffffffffffff1681526020019081526020016000205411610a62576040517f08c379a0000000000000000000000000000000000000000000000000000000008152600401610a5990613268565b60405180910390fd5b60011515600760149054906101000a900460ff16151514610ab8576040517f08c379a0000000000000000000000000000000000000000000000000000000008152600401610aaf906134ca565b60405180910390fd5b600260018060008673ffffffffffffffffffffffffffffffffffffffff1673ffffffffffffffffffffffffffffffffffffffff16815260200190815260200160002054610b0591906132b7565b81548110610b1657610b156132eb565b5b906000526020600020906005020160030160009054906101000a900460ff16915050919050565b6060816000600160008373ffffffffffffffffffffffffffffffffffffffff1673ffffffffffffffffffffffffffffffffffffffff1681526020019081526020016000205411610bc2576040517f08c379a0000000000000000000000000000000000000000000000000000000008152600401610bb990613268565b60405180910390fd5b600260018060008673ffffffffffffffffffffffffffffffffffffffff1673ffffffffffffffffffffffffffffffffffffffff16815260200190815260200160002054610c0f91906132b7565b81548110610c2057610c1f6132eb565b5b9060005260206000209060050201600101805480602002602001604051908101604052809291908181526020018280548015610c7b57602002820191906000526020600020905b815481526020019060010190808311610c67575b5050505050915050919050565b6000806000905060005b600354811015610ccc57610ca68185612209565b15610cbb57600182610cb891906134ea565b91505b80610cc59061351e565b9050610c92565b5080915050919050565b610cde61218b565b806000600160008373ffffffffffffffffffffffffffffffffffffffff1673ffffffffffffffffffffffffffffffffffffffff1681526020019081526020016000205411610d61576040517f08c379a0000000000000000000000000000000000000000000000000000000008152600401610d5890613268565b60405180910390fd5b6000600260018060008673ffffffffffffffffffffffffffffffffffffffff1673ffffffffffffffffffffffffffffffffffffffff16815260200190815260200160002054610db091906132b7565b81548110610dc157610dc06132eb565b5b9060005260206000209060050201905060006001811115610de557610de4613059565b5b8160000160009054906101000a900460ff166001811115610e0957610e08613059565b5b14610e49576040517f08c379a0000000000000000000000000000000000000000000000000000000008152600401610e40906135b2565b60405180910390fd5b60018160000160006101000a81548160ff02191690836001811115610e7157610e70613059565b5b02179055508273ffffffffffffffffffffffffffffffffffffffff167f798117ec059ab8d319461ef2502b1f9d8a47cd966bfd1f3e23b6f26c30bebb7760405160405180910390a2505050565b600760009054906101000a900473ffffffffffffffffffffffffffffffffffffffff1681565b610eec61218b565b806000600160008373ffffffffffffffffffffffffffffffffffffffff1673ffffffffffffffffffffffffffffffffffffffff16815260200190815260200160002054118015610fdb5750600180811115610f4a57610f49613059565b5b600260018060008573ffffffffffffffffffffffffffffffffffffffff1673ffffffffffffffffffffffffffffffffffffffff16815260200190815260200160002054610f9791906132b7565b81548110610fa857610fa76132eb565b5b906000526020600020906005020160000160009054906101000a900460ff166001811115610fd957610fd8613059565b5b145b61101a576040517f08c379a00000000000000000000000000000000000000000000000000000000081526004016110119061361e565b60405180910390fd5b6000600260018060008673ffffffffffffffffffffffffffffffffffffffff1673ffffffffffffffffffffffffffffffffffffffff1681526020019081526020016000205461106991906132b7565b8154811061107a576110796132eb565b5b906000526020600020906005020160000160006101000a81548160ff021916908360018111156110ad576110ac613059565b5b021790555060008273ffffffffffffffffffffffffffffffffffffffff167f1105cbf79ba9aec674e68bafc67545b3e180703742c1ad6af4ab85fd0d5c4cdd60405160405180910390a35050565b600760149054906101000a900460ff1681565b600061111942610c88565b905090565b61112661218b565b6000600160008373ffffffffffffffffffffffffffffffffffffffff1673ffffffffffffffffffffffffffffffffffffffff16815260200190815260200160002054146111a8576040517f08c379a000000000000000000000000000000000000000000000000000000000815260040161119f9061368a565b60405180910390fd5b6002600181600181540180825580915050039060005260206000209050506001600360008282546111d991906134ea565b92505081905550600354600160008373ffffffffffffffffffffffffffffffffffffffff1673ffffffffffffffffffffffffffffffffffffffff1681526020019081526020016000208190555060006002600160035461123991906132b7565b8154811061124a576112496132eb565b5b9060005260206000209060050201905060018160000160006101000a81548160ff0219169083600181111561128257611281613059565b5b021790555060008160030160006101000a81548160ff0219169083151502179055505050565b6000806000905060005b6003548110156112e5576112c781868661233d565b826112d291906134ea565b9150806112de9061351e565b90506112b2565b508091505092915050565b806000600160008373ffffffffffffffffffffffffffffffffffffffff1673ffffffffffffffffffffffffffffffffffffffff1681526020019081526020016000205411611373576040517f08c379a000000000000000000000000000000000000000000000000000000000815260040161136a90613268565b60405180910390fd5b60011515600760149054906101000a900460ff161515146113c9576040517f08c379a00000000000000000000000000000000000000000000000000000000081526004016113c0906134ca565b60405180910390fd5b6113d38242612519565b5050565b600281815481106113e757600080fd5b90600052602060002090600502016000915090508060000160009054906101000a900460ff16908060020154908060030160009054906101000a900460ff16908060040154905084565b816000600160008373ffffffffffffffffffffffffffffffffffffffff1673ffffffffffffffffffffffffffffffffffffffff16815260200190815260200160002054116114b4576040517f08c379a00000000000000000000000000000000000000000000000000000000081526004016114ab90613268565b60405180910390fd5b60001515600760149054906101000a900460ff1615151461150a576040517f08c379a00000000000000000000000000000000000000000000000000000000081526004016115019061371c565b60405180910390fd5b6115148383612519565b505050565b61152161218b565b61152b6000612843565b565b816000600160008373ffffffffffffffffffffffffffffffffffffffff1673ffffffffffffffffffffffffffffffffffffffff16815260200190815260200160002054116115b0576040517f08c379a00000000000000000000000000000000000000000000000000000000081526004016115a790613268565b60405180910390fd5b60001515600760149054906101000a900460ff16151514611606576040517f08c379a00000000000000000000000000000000000000000000000000000000081526004016115fd9061371c565b60405180910390fd5b826000600260018060008573ffffffffffffffffffffffffffffffffffffffff1673ffffffffffffffffffffffffffffffffffffffff1681526020019081526020016000205461165691906132b7565b81548110611667576116666132eb565b5b9060005260206000209060050201905060006002826001018054905061168d919061376b565b1480156116a957508060030160009054906101000a900460ff16155b6116e8576040517f08c379a00000000000000000000000000000000000000000000000000000000081526004016116df906137e8565b60405180910390fd5b6116f28585612519565b5050505050565b60035481565b60008060009054906101000a900473ffffffffffffffffffffffffffffffffffffffff16905090565b6000336000600160008373ffffffffffffffffffffffffffffffffffffffff1673ffffffffffffffffffffffffffffffffffffffff16815260200190815260200160002054116117ad576040517f08c379a00000000000000000000000000000000000000000000000000000000081526004016117a490613268565b60405180910390fd5b600260018060003373ffffffffffffffffffffffffffffffffffffffff1673ffffffffffffffffffffffffffffffffffffffff168152602001908152602001600020546117fa91906132b7565b8154811061180b5761180a6132eb565b5b90600052602060002090600502016004015491505090565b336000600160008373ffffffffffffffffffffffffffffffffffffffff1673ffffffffffffffffffffffffffffffffffffffff16815260200190815260200160002054118015611912575060018081111561188157611880613059565b5b600260018060008573ffffffffffffffffffffffffffffffffffffffff1673ffffffffffffffffffffffffffffffffffffffff168152602001908152602001600020546118ce91906132b7565b815481106118df576118de6132eb565b5b906000526020600020906005020160000160009054906101000a900460ff1660018111156119105761190f613059565b5b145b611951576040517f08c379a00000000000000000000000000000000000000000000000000000000081526004016119489061361e565b60405180910390fd5b6000600260018060003373ffffffffffffffffffffffffffffffffffffffff1673ffffffffffffffffffffffffffffffffffffffff168152602001908152602001600020546119a091906132b7565b815481106119b1576119b06132eb565b5b90600052602060002090600502019050828160020181905550505050565b806000600160008373ffffffffffffffffffffffffffffffffffffffff1673ffffffffffffffffffffffffffffffffffffffff1681526020019081526020016000205411611a52576040517f08c379a0000000000000000000000000000000000000000000000000000000008152600401611a4990613268565b60405180910390fd5b60011515600760149054906101000a900460ff16151514611aa8576040517f08c379a0000000000000000000000000000000000000000000000000000000008152600401611a9f906134ca565b60405180910390fd5b816000600260018060008573ffffffffffffffffffffffffffffffffffffffff1673ffffffffffffffffffffffffffffffffffffffff16815260200190815260200160002054611af891906132b7565b81548110611b0957611b086132eb565b5b90600052602060002090600502019050600160028260010180549050611b2f919061376b565b148015611b4a57508060030160009054906101000a900460ff165b611b89576040517f08c379a0000000000000000000000000000000000000000000000000000000008152600401611b8090613854565b60405180910390fd5b611b938442612519565b50505050565b6000826000600160008373ffffffffffffffffffffffffffffffffffffffff1673ffffffffffffffffffffffffffffffffffffffff1681526020019081526020016000205411611c1e576040517f08c379a0000000000000000000000000000000000000000000000000000000008152600401611c1590613268565b60405180910390fd5b60001515600760149054906101000a900460ff16151514611c74576040517f08c379a0000000000000000000000000000000000000000000000000000000008152600401611c6b9061371c565b60405180910390fd5b611cc860018060008773ffffffffffffffffffffffffffffffffffffffff1673ffffffffffffffffffffffffffffffffffffffff16815260200190815260200160002054611cc291906132b7565b84612209565b91505092915050565b806000600160008373ffffffffffffffffffffffffffffffffffffffff1673ffffffffffffffffffffffffffffffffffffffff1681526020019081526020016000205411611d54576040517f08c379a0000000000000000000000000000000000000000000000000000000008152600401611d4b90613268565b60405180910390fd5b60011515600760149054906101000a900460ff16151514611daa576040517f08c379a0000000000000000000000000000000000000000000000000000000008152600401611da1906134ca565b60405180910390fd5b816000600260018060008573ffffffffffffffffffffffffffffffffffffffff1673ffffffffffffffffffffffffffffffffffffffff16815260200190815260200160002054611dfa91906132b7565b81548110611e0b57611e0a6132eb565b5b90600052602060002090600502019050600060028260010180549050611e31919061376b565b148015611e4d57508060030160009054906101000a900460ff16155b611e8c576040517f08c379a0000000000000000000000000000000000000000000000000000000008152600401611e83906137e8565b60405180910390fd5b611e968442612519565b50505050565b60058181548110611eac57600080fd5b906000526020600020016000915054906101000a900473ffffffffffffffffffffffffffffffffffffffff1681565b60068181548110611eeb57600080fd5b906000526020600020016000915090505481565b60016020528060005260406000206000915090505481565b816000600160008373ffffffffffffffffffffffffffffffffffffffff1673ffffffffffffffffffffffffffffffffffffffff1681526020019081526020016000205411611f9a576040517f08c379a0000000000000000000000000000000000000000000000000000000008152600401611f9190613268565b60405180910390fd5b60001515600760149054906101000a900460ff16151514611ff0576040517f08c379a0000000000000000000000000000000000000000000000000000000008152600401611fe79061371c565b60405180910390fd5b826000600260018060008573ffffffffffffffffffffffffffffffffffffffff1673ffffffffffffffffffffffffffffffffffffffff1681526020019081526020016000205461204091906132b7565b81548110612051576120506132eb565b5b90600052602060002090600502019050600160028260010180549050612077919061376b565b14801561209257508060030160009054906101000a900460ff165b6120d1576040517f08c379a00000000000000000000000000000000000000000000000000000000081526004016120c890613854565b60405180910390fd5b6120db8585612519565b5050505050565b6120ea61218b565b600073ffffffffffffffffffffffffffffffffffffffff168173ffffffffffffffffffffffffffffffffffffffff1603612159576040517f08c379a0000000000000000000000000000000000000000000000000000000008152600401612150906138e6565b60405180910390fd5b61216281612843565b50565b600460009054906101000a900473ffffffffffffffffffffffffffffffffffffffff1681565b612193612907565b73ffffffffffffffffffffffffffffffffffffffff166121b16116ff565b73ffffffffffffffffffffffffffffffffffffffff1614612207576040517f08c379a00000000000000000000000000000000000000000000000000000000081526004016121fe90613952565b60405180910390fd5b565b600080831015801561221c575060035483105b61225b576040517f08c379a0000000000000000000000000000000000000000000000000000000008152600401612252906139be565b60405180910390fd5b60008060028581548110612272576122716132eb565b5b9060005260206000209060050201905060008160010180549050905060005b81811015612330578260010181815481106122af576122ae6132eb565b5b9060005260206000200154861061231c576001935082600101805490506001826122d991906134ea565b1080156123115750826001016001826122f291906134ea565b81548110612303576123026132eb565b5b906000526020600020015486115b1561231b57600093505b5b60028161232991906134ea565b9050612291565b5082935050505092915050565b6000808410158015612350575060035484105b61238f576040517f08c379a0000000000000000000000000000000000000000000000000000000008152600401612386906139be565b60405180910390fd5b8183106123d1576040517f08c379a00000000000000000000000000000000000000000000000000000000081526004016123c890613a2a565b60405180910390fd5b600083836123df91906132b7565b9050600080600287815481106123f8576123f76132eb565b5b9060005260206000209060050201905060008160010180549050905060008060005b838110156124e657846001018181548110612438576124376132eb565b5b90600052602060002001549250828a1115612451578992505b846001018054905060018261246691906134ea565b10156124a0578460010160018261247d91906134ea565b8154811061248e5761248d6132eb565b5b906000526020600020015491506124a4565b4291505b818910156124b0578891505b828211156124d25782826124c491906132b7565b866124cf91906134ea565b95505b6002816124df91906134ea565b905061241a565b50856002876124f59190613a4a565b8661250091906134ea565b61250a9190613a4a565b96505050505050509392505050565b600760009054906101000a900473ffffffffffffffffffffffffffffffffffffffff1673ffffffffffffffffffffffffffffffffffffffff163373ffffffffffffffffffffffffffffffffffffffff16146125a9576040517f08c379a00000000000000000000000000000000000000000000000000000000081526004016125a090613ac7565b60405180910390fd5b816000600160008373ffffffffffffffffffffffffffffffffffffffff1673ffffffffffffffffffffffffffffffffffffffff16815260200190815260200160002054118015612698575060018081111561260757612606613059565b5b600260018060008573ffffffffffffffffffffffffffffffffffffffff1673ffffffffffffffffffffffffffffffffffffffff1681526020019081526020016000205461265491906132b7565b81548110612665576126646132eb565b5b906000526020600020906005020160000160009054906101000a900460ff16600181111561269657612695613059565b5b145b6126d7576040517f08c379a00000000000000000000000000000000000000000000000000000000081526004016126ce9061361e565b60405180910390fd5b6000600260018060008773ffffffffffffffffffffffffffffffffffffffff1673ffffffffffffffffffffffffffffffffffffffff1681526020019081526020016000205461272691906132b7565b81548110612737576127366132eb565b5b906000526020600020906005020190508060030160009054906101000a900460ff16158160030160006101000a81548160ff021916908315150217905550806001018390806001815401808255809150506001900390600052602060002001600090919091909150558060030160009054906101000a900460ff1661283d576000816001018054905090506000826001016002836127d591906132b7565b815481106127e6576127e56132eb565b5b9060005260206000200154905060008360010160018461280691906132b7565b81548110612817576128166132eb565b5b9060005260206000200154905061283987838361283486866112a8565b61290f565b5050505b50505050565b60008060009054906101000a900473ffffffffffffffffffffffffffffffffffffffff169050816000806101000a81548173ffffffffffffffffffffffffffffffffffffffff021916908373ffffffffffffffffffffffffffffffffffffffff1602179055508173ffffffffffffffffffffffffffffffffffffffff168173ffffffffffffffffffffffffffffffffffffffff167f8be0079c531659141344cd1fd0a4f28419497f9722a3daafe3b4186f6b6457e060405160405180910390a35050565b600033905090565b600060058054905090506000805b82811015612a3e578560068260018661293691906132b7565b61294091906132b7565b81548110612951576129506132eb565b5b90600052602060002001541015612a2b5760058181548110612976576129756132eb565b5b9060005260206000200160009054906101000a900473ffffffffffffffffffffffffffffffffffffffff1673ffffffffffffffffffffffffffffffffffffffff1663abb0e06c8787878b306040518663ffffffff1660e01b81526004016129e1959493929190613ae7565b6020604051808303816000875af1158015612a00573d6000803e3d6000fd5b505050506040513d601f19601f82011682018060405250810190612a249190613b4f565b9150612a3e565b8080612a369061351e565b91505061291d565b506000811115612db4576000600260018060008a73ffffffffffffffffffffffffffffffffffffffff1673ffffffffffffffffffffffffffffffffffffffff16815260200190815260200160002054612a9791906132b7565b81548110612aa857612aa76132eb565b5b9060005260206000209060050201905081816004016000828254612acc91906134ea565b9250508190555060008160000160006101000a81548160ff02191690836001811115612afb57612afa613059565b5b02179055506000600460009054906101000a900473ffffffffffffffffffffffffffffffffffffffff1673ffffffffffffffffffffffffffffffffffffffff1663dd62ed3e89306040518363ffffffff1660e01b8152600401612b5f929190613b7c565b602060405180830381865afa158015612b7c573d6000803e3d6000fd5b505050506040513d601f19601f82011682018060405250810190612ba09190613b4f565b905082811015612bfd578083612bb691906132b7565b8873ffffffffffffffffffffffffffffffffffffffff167f1105cbf79ba9aec674e68bafc67545b3e180703742c1ad6af4ab85fd0d5c4cdd60405160405180910390a38092505b6000831115612db1576000600460009054906101000a900473ffffffffffffffffffffffffffffffffffffffff1673ffffffffffffffffffffffffffffffffffffffff166323b872dd8a3073ffffffffffffffffffffffffffffffffffffffff16638da5cb5b6040518163ffffffff1660e01b8152600401602060405180830381865afa158015612c92573d6000803e3d6000fd5b505050506040513d601f19601f82011682018060405250810190612cb6919061332f565b876040518463ffffffff1660e01b8152600401612cd59392919061335c565b6020604051808303816000875af1158015612cf4573d6000803e3d6000fd5b505050506040513d601f19601f82011682018060405250810190612d1891906133bf565b905080612d5a576040517f08c379a0000000000000000000000000000000000000000000000000000000008152600401612d5190613bf1565b60405180910390fd5b83836004016000828254612d6e91906132b7565b925050819055506000836004015403612daf5760018360000160006101000a81548160ff02191690836001811115612da957612da8613059565b5b02179055505b505b50505b505050505050565b600080fd5b600073ffffffffffffffffffffffffffffffffffffffff82169050919050565b6000612dec82612dc1565b9050919050565b612dfc81612de1565b8114612e0757600080fd5b50565b600081359050612e1981612df3565b92915050565b600060208284031215612e3557612e34612dbc565b5b6000612e4384828501612e0a565b91505092915050565b6000819050919050565b612e5f81612e4c565b8114612e6a57600080fd5b50565b600081359050612e7c81612e56565b92915050565b600060208284031215612e9857612e97612dbc565b5b6000612ea684828501612e6d565b91505092915050565b60008115159050919050565b612ec481612eaf565b82525050565b6000602082019050612edf6000830184612ebb565b92915050565b600081519050919050565b600082825260208201905092915050565b6000819050602082019050919050565b612f1a81612e4c565b82525050565b6000612f2c8383612f11565b60208301905092915050565b6000602082019050919050565b6000612f5082612ee5565b612f5a8185612ef0565b9350612f6583612f01565b8060005b83811015612f96578151612f7d8882612f20565b9750612f8883612f38565b925050600181019050612f69565b5085935050505092915050565b60006020820190508181036000830152612fbd8184612f45565b905092915050565b612fce81612e4c565b82525050565b6000602082019050612fe96000830184612fc5565b92915050565b612ff881612de1565b82525050565b60006020820190506130136000830184612fef565b92915050565b600080604083850312156130305761302f612dbc565b5b600061303e85828601612e6d565b925050602061304f85828601612e6d565b9150509250929050565b7f4e487b7100000000000000000000000000000000000000000000000000000000600052602160045260246000fd5b6002811061309957613098613059565b5b50565b60008190506130aa82613088565b919050565b60006130ba8261309c565b9050919050565b6130ca816130af565b82525050565b60006080820190506130e560008301876130c1565b6130f26020830186612fc5565b6130ff6040830185612ebb565b61310c6060830184612fc5565b95945050505050565b6000806040838503121561312c5761312b612dbc565b5b600061313a85828601612e0a565b925050602061314b85828601612e6d565b9150509250929050565b6000819050919050565b600061317a61317561317084612dc1565b613155565b612dc1565b9050919050565b600061318c8261315f565b9050919050565b600061319e82613181565b9050919050565b6131ae81613193565b82525050565b60006020820190506131c960008301846131a5565b92915050565b60006131da82613181565b9050919050565b6131ea816131cf565b82525050565b600060208201905061320560008301846131e1565b92915050565b600082825260208201905092915050565b7f546869732075736572206973206e6f7420726567697374657265640000000000600082015250565b6000613252601b8361320b565b915061325d8261321c565b602082019050919050565b6000602082019050818103600083015261328181613245565b9050919050565b7f4e487b7100000000000000000000000000000000000000000000000000000000600052601160045260246000fd5b60006132c282612e4c565b91506132cd83612e4c565b92508282039050818111156132e5576132e4613288565b5b92915050565b7f4e487b7100000000000000000000000000000000000000000000000000000000600052603260045260246000fd5b60008151905061332981612df3565b92915050565b60006020828403121561334557613344612dbc565b5b60006133538482850161331a565b91505092915050565b60006060820190506133716000830186612fef565b61337e6020830185612fef565b61338b6040830184612fc5565b949350505050565b61339c81612eaf565b81146133a757600080fd5b50565b6000815190506133b981613393565b92915050565b6000602082840312156133d5576133d4612dbc565b5b60006133e3848285016133aa565b91505092915050565b7f4661696c656420746f2070617920646562740000000000000000000000000000600082015250565b600061342260128361320b565b915061342d826133ec565b602082019050919050565b6000602082019050818103600083015261345181613415565b9050919050565b7f546865206f6e636861696e54696d652076616c75652073686f756c642062652060008201527f7472756500000000000000000000000000000000000000000000000000000000602082015250565b60006134b460248361320b565b91506134bf82613458565b604082019050919050565b600060208201905081810360008301526134e3816134a7565b9050919050565b60006134f582612e4c565b915061350083612e4c565b925082820190508082111561351857613517613288565b5b92915050565b600061352982612e4c565b91507fffffffffffffffffffffffffffffffffffffffffffffffffffffffffffffffff820361355b5761355a613288565b5b600182019050919050565b7f5468652075736572206973206e6f7420626c6f636b6564000000000000000000600082015250565b600061359c60178361320b565b91506135a782613566565b602082019050919050565b600060208201905081810360008301526135cb8161358f565b9050919050565b7f546869732075736572206973206e6f7420616374697661746564000000000000600082015250565b6000613608601a8361320b565b9150613613826135d2565b602082019050919050565b60006020820190508181036000830152613637816135fb565b9050919050565b7f5573657220616c72656164792061646465640000000000000000000000000000600082015250565b600061367460128361320b565b915061367f8261363e565b602082019050919050565b600060208201905081810360008301526136a381613667565b9050919050565b7f546865206f6e636861696e54696d652076616c75652073686f756c642062652060008201527f66616c7365000000000000000000000000000000000000000000000000000000602082015250565b600061370660258361320b565b9150613711826136aa565b604082019050919050565b60006020820190508181036000830152613735816136f9565b9050919050565b7f4e487b7100000000000000000000000000000000000000000000000000000000600052601260045260246000fd5b600061377682612e4c565b915061378183612e4c565b9250826137915761379061373c565b5b828206905092915050565b7f5468652075736572206973206e6f74206f757473696465000000000000000000600082015250565b60006137d260178361320b565b91506137dd8261379c565b602082019050919050565b60006020820190508181036000830152613801816137c5565b9050919050565b7f5468652075736572206973206e6f7420696e7369646500000000000000000000600082015250565b600061383e60168361320b565b915061384982613808565b602082019050919050565b6000602082019050818103600083015261386d81613831565b9050919050565b7f4f776e61626c653a206e6577206f776e657220697320746865207a65726f206160008201527f6464726573730000000000000000000000000000000000000000000000000000602082015250565b60006138d060268361320b565b91506138db82613874565b604082019050919050565b600060208201905081810360008301526138ff816138c3565b9050919050565b7f4f776e61626c653a2063616c6c6572206973206e6f7420746865206f776e6572600082015250565b600061393c60208361320b565b915061394782613906565b602082019050919050565b6000602082019050818103600083015261396b8161392f565b9050919050565b7f4f7574206f662072616e67652061636365737320746f20757365720000000000600082015250565b60006139a8601b8361320b565b91506139b382613972565b602082019050919050565b600060208201905081810360008301526139d78161399b565b9050919050565b7f54686973206973206e6f7420616e20696e74657276616c000000000000000000600082015250565b6000613a1460178361320b565b9150613a1f826139de565b602082019050919050565b60006020820190508181036000830152613a4381613a07565b9050919050565b6000613a5582612e4c565b9150613a6083612e4c565b925082613a7057613a6f61373c565b5b828204905092915050565b7f596f75277265206e6f7420746865206861726477617265000000000000000000600082015250565b6000613ab160178361320b565b9150613abc82613a7b565b602082019050919050565b60006020820190508181036000830152613ae081613aa4565b9050919050565b600060a082019050613afc6000830188612fc5565b613b096020830187612fc5565b613b166040830186612fc5565b613b236060830185612fef565b613b306080830184612fef565b9695505050505050565b600081519050613b4981612e56565b92915050565b600060208284031215613b6557613b64612dbc565b5b6000613b7384828501613b3a565b91505092915050565b6000604082019050613b916000830185612fef565b613b9e6020830184612fef565b9392505050565b7f4661696c656420746f20706179206f6e20657869740000000000000000000000600082015250565b6000613bdb60158361320b565b9150613be682613ba5565b602082019050919050565b60006020820190508181036000830152613c0a81613bce565b905091905056fea26469706673582212201d155d9a2415d35020d69641d034b0d70f5ff225d9a2f9bd8df577fc953a8e9764736f6c63430008110033",
  "linkReferences": {},
  "deployedLinkReferences": {}
}