{
  "_format": "hh-sol-artifact-1",
  "contractName": "TokensVendor",
  "sourceName": "contracts/TokenVendor.sol",
  "abi": [
    {
      "inputs": [
        {
          "internalType": "address",
          "name": "_tokenAddress",
          "type": "address"
        },
        {
          "internalType": "uint256",
          "name": "_initialPrice",
          "type": "uint256"
        }
      ],
      "stateMutability": "nonpayable",
      "type": "constructor"
    },
    {
      "anonymous": false,
      "inputs": [
        {
          "indexed": true,
          "internalType": "address",
          "name": "previousOwner",
          "type": "address"
        },
        {
          "indexed": true,
          "internalType": "address",
          "name": "newOwner",
          "type": "address"
        }
      ],
      "name": "OwnershipTransferred",
      "type": "event"
    },
    {
      "anonymous": false,
      "inputs": [
        {
          "indexed": true,
          "internalType": "address",
          "name": "buyer",
          "type": "address"
        },
        {
          "indexed": false,
          "internalType": "uint256",
          "name": "amountOfETH",
          "type": "uint256"
        },
        {
          "indexed": false,
          "internalType": "uint256",
          "name": "amountOfTokens",
          "type": "uint256"
        }
      ],
      "name": "TokensBought",
      "type": "event"
    },
    {
      "inputs": [
        {
          "internalType": "uint256",
          "name": "_amount",
          "type": "uint256"
        }
      ],
      "name": "buyTokens",
      "outputs": [],
      "stateMutability": "payable",
      "type": "function"
    },
    {
      "inputs": [],
      "name": "owner",
      "outputs": [
        {
          "internalType": "address",
          "name": "",
          "type": "address"
        }
      ],
      "stateMutability": "view",
      "type": "function"
    },
    {
      "inputs": [],
      "name": "price",
      "outputs": [
        {
          "internalType": "uint256",
          "name": "",
          "type": "uint256"
        }
      ],
      "stateMutability": "view",
      "type": "function"
    },
    {
      "inputs": [],
      "name": "renounceOwnership",
      "outputs": [],
      "stateMutability": "nonpayable",
      "type": "function"
    },
    {
      "inputs": [],
      "name": "tokenACTAddress",
      "outputs": [
        {
          "internalType": "address",
          "name": "",
          "type": "address"
        }
      ],
      "stateMutability": "view",
      "type": "function"
    },
    {
      "inputs": [
        {
          "internalType": "address",
          "name": "newOwner",
          "type": "address"
        }
      ],
      "name": "transferOwnership",
      "outputs": [],
      "stateMutability": "nonpayable",
      "type": "function"
    },
    {
      "inputs": [
        {
          "internalType": "uint256",
          "name": "_price",
          "type": "uint256"
        }
      ],
      "name": "updatePrice",
      "outputs": [],
      "stateMutability": "nonpayable",
      "type": "function"
    },
    {
      "inputs": [],
      "name": "withdraw",
      "outputs": [],
      "stateMutability": "nonpayable",
      "type": "function"
    }
  ],
  "bytecode": "0x6080604052662386f26fc100006003553480156200001c57600080fd5b506040516200125f3803806200125f833981810160405281019062000042919062000278565b62000062620000566200010760201b60201c565b6200010f60201b60201c565b81600160006101000a81548173ffffffffffffffffffffffffffffffffffffffff021916908373ffffffffffffffffffffffffffffffffffffffff16021790555080600381905550736c28aef8977c9b773996d0e8376d2ee379446f2f600260006101000a81548173ffffffffffffffffffffffffffffffffffffffff021916908373ffffffffffffffffffffffffffffffffffffffff1602179055505050620002bf565b600033905090565b60008060009054906101000a900473ffffffffffffffffffffffffffffffffffffffff169050816000806101000a81548173ffffffffffffffffffffffffffffffffffffffff021916908373ffffffffffffffffffffffffffffffffffffffff1602179055508173ffffffffffffffffffffffffffffffffffffffff168173ffffffffffffffffffffffffffffffffffffffff167f8be0079c531659141344cd1fd0a4f28419497f9722a3daafe3b4186f6b6457e060405160405180910390a35050565b600080fd5b600073ffffffffffffffffffffffffffffffffffffffff82169050919050565b60006200020582620001d8565b9050919050565b6200021781620001f8565b81146200022357600080fd5b50565b60008151905062000237816200020c565b92915050565b6000819050919050565b62000252816200023d565b81146200025e57600080fd5b50565b600081519050620002728162000247565b92915050565b60008060408385031215620002925762000291620001d3565b5b6000620002a28582860162000226565b9250506020620002b58582860162000261565b9150509250929050565b610f9080620002cf6000396000f3fe60806040526004361061007b5760003560e01c80638d6cc56d1161004e5780638d6cc56d146100f55780638da5cb5b1461011e578063a035b1fe14610149578063f2fde38b146101745761007b565b8063105aba0d146100805780633610724e146100ab5780633ccfd60b146100c7578063715018a6146100de575b600080fd5b34801561008c57600080fd5b5061009561019d565b6040516100a291906109a5565b60405180910390f35b6100c560048036038101906100c091906109fb565b6101c7565b005b3480156100d357600080fd5b506100dc6105ab565b005b3480156100ea57600080fd5b506100f3610742565b005b34801561010157600080fd5b5061011c600480360381019061011791906109fb565b610756565b005b34801561012a57600080fd5b50610133610768565b60405161014091906109a5565b60405180910390f35b34801561015557600080fd5b5061015e610791565b60405161016b9190610a37565b60405180910390f35b34801561018057600080fd5b5061019b60048036038101906101969190610a7e565b610797565b005b6000600160009054906101000a900473ffffffffffffffffffffffffffffffffffffffff16905090565b6000600354826101d79190610ada565b905081600160009054906101000a900473ffffffffffffffffffffffffffffffffffffffff1673ffffffffffffffffffffffffffffffffffffffff166370a08231306040518263ffffffff1660e01b815260040161023591906109a5565b602060405180830381865afa158015610252573d6000803e3d6000fd5b505050506040513d601f19601f820116820180604052508101906102769190610b31565b10156102b7576040517f08c379a00000000000000000000000000000000000000000000000000000000081526004016102ae90610bbb565b60405180910390fd5b80600260009054906101000a900473ffffffffffffffffffffffffffffffffffffffff1673ffffffffffffffffffffffffffffffffffffffff1663dd62ed3e33306040518363ffffffff1660e01b8152600401610315929190610bdb565b602060405180830381865afa158015610332573d6000803e3d6000fd5b505050506040513d601f19601f820116820180604052508101906103569190610b31565b1015610397576040517f08c379a000000000000000000000000000000000000000000000000000000000815260040161038e90610c50565b60405180910390fd5b600260009054906101000a900473ffffffffffffffffffffffffffffffffffffffff1673ffffffffffffffffffffffffffffffffffffffff166323b872dd3330846040518463ffffffff1660e01b81526004016103f693929190610c70565b6020604051808303816000875af1158015610415573d6000803e3d6000fd5b505050506040513d601f19601f820116820180604052508101906104399190610cdf565b610478576040517f08c379a000000000000000000000000000000000000000000000000000000000815260040161046f90610d58565b60405180910390fd5b600160009054906101000a900473ffffffffffffffffffffffffffffffffffffffff1673ffffffffffffffffffffffffffffffffffffffff1663a9059cbb33846040518363ffffffff1660e01b81526004016104d5929190610d78565b6020604051808303816000875af11580156104f4573d6000803e3d6000fd5b505050506040513d601f19601f820116820180604052508101906105189190610cdf565b610557576040517f08c379a000000000000000000000000000000000000000000000000000000000815260040161054e90610e13565b60405180910390fd5b3373ffffffffffffffffffffffffffffffffffffffff167f8442948036198f1146d3a63c3db355d7e0295c2cc5676c755990445da4fdc1c9828460405161059f929190610e33565b60405180910390a25050565b6105b361081a565b6000600260009054906101000a900473ffffffffffffffffffffffffffffffffffffffff1673ffffffffffffffffffffffffffffffffffffffff166370a08231306040518263ffffffff1660e01b815260040161061091906109a5565b602060405180830381865afa15801561062d573d6000803e3d6000fd5b505050506040513d601f19601f820116820180604052508101906106519190610b31565b90506000811161066057600080fd5b600260009054906101000a900473ffffffffffffffffffffffffffffffffffffffff1673ffffffffffffffffffffffffffffffffffffffff1663a9059cbb33836040518363ffffffff1660e01b81526004016106bd929190610d78565b6020604051808303816000875af11580156106dc573d6000803e3d6000fd5b505050506040513d601f19601f820116820180604052508101906107009190610cdf565b61073f576040517f08c379a000000000000000000000000000000000000000000000000000000000815260040161073690610d58565b60405180910390fd5b50565b61074a61081a565b6107546000610898565b565b61075e61081a565b8060038190555050565b60008060009054906101000a900473ffffffffffffffffffffffffffffffffffffffff16905090565b60035481565b61079f61081a565b600073ffffffffffffffffffffffffffffffffffffffff168173ffffffffffffffffffffffffffffffffffffffff160361080e576040517f08c379a000000000000000000000000000000000000000000000000000000000815260040161080590610ece565b60405180910390fd5b61081781610898565b50565b61082261095c565b73ffffffffffffffffffffffffffffffffffffffff16610840610768565b73ffffffffffffffffffffffffffffffffffffffff1614610896576040517f08c379a000000000000000000000000000000000000000000000000000000000815260040161088d90610f3a565b60405180910390fd5b565b60008060009054906101000a900473ffffffffffffffffffffffffffffffffffffffff169050816000806101000a81548173ffffffffffffffffffffffffffffffffffffffff021916908373ffffffffffffffffffffffffffffffffffffffff1602179055508173ffffffffffffffffffffffffffffffffffffffff168173ffffffffffffffffffffffffffffffffffffffff167f8be0079c531659141344cd1fd0a4f28419497f9722a3daafe3b4186f6b6457e060405160405180910390a35050565b600033905090565b600073ffffffffffffffffffffffffffffffffffffffff82169050919050565b600061098f82610964565b9050919050565b61099f81610984565b82525050565b60006020820190506109ba6000830184610996565b92915050565b600080fd5b6000819050919050565b6109d8816109c5565b81146109e357600080fd5b50565b6000813590506109f5816109cf565b92915050565b600060208284031215610a1157610a106109c0565b5b6000610a1f848285016109e6565b91505092915050565b610a31816109c5565b82525050565b6000602082019050610a4c6000830184610a28565b92915050565b610a5b81610984565b8114610a6657600080fd5b50565b600081359050610a7881610a52565b92915050565b600060208284031215610a9457610a936109c0565b5b6000610aa284828501610a69565b91505092915050565b7f4e487b7100000000000000000000000000000000000000000000000000000000600052601160045260246000fd5b6000610ae5826109c5565b9150610af0836109c5565b9250828202610afe816109c5565b91508282048414831517610b1557610b14610aab565b5b5092915050565b600081519050610b2b816109cf565b92915050565b600060208284031215610b4757610b466109c0565b5b6000610b5584828501610b1c565b91505092915050565b600082825260208201905092915050565b7f546f6b656e2076656e646f7220697320656d7074790000000000000000000000600082015250565b6000610ba5601583610b5e565b9150610bb082610b6f565b602082019050919050565b60006020820190508181036000830152610bd481610b98565b9050919050565b6000604082019050610bf06000830185610996565b610bfd6020830184610996565b9392505050565b7f4e6f7420656e6f756768205553444320616c6c6f77656420746f207370656e64600082015250565b6000610c3a602083610b5e565b9150610c4582610c04565b602082019050919050565b60006020820190508181036000830152610c6981610c2d565b9050919050565b6000606082019050610c856000830186610996565b610c926020830185610996565b610c9f6040830184610a28565b949350505050565b60008115159050919050565b610cbc81610ca7565b8114610cc757600080fd5b50565b600081519050610cd981610cb3565b92915050565b600060208284031215610cf557610cf46109c0565b5b6000610d0384828501610cca565b91505092915050565b7f4572726f72207768696c65207472616e73666572696e67205553444300000000600082015250565b6000610d42601c83610b5e565b9150610d4d82610d0c565b602082019050919050565b60006020820190508181036000830152610d7181610d35565b9050919050565b6000604082019050610d8d6000830185610996565b610d9a6020830184610a28565b9392505050565b7f4572726f72207768696c65207472616e73666572696e6720416363657373204360008201527f6f6e74726f6c20546f6b656e7300000000000000000000000000000000000000602082015250565b6000610dfd602d83610b5e565b9150610e0882610da1565b604082019050919050565b60006020820190508181036000830152610e2c81610df0565b9050919050565b6000604082019050610e486000830185610a28565b610e556020830184610a28565b9392505050565b7f4f776e61626c653a206e6577206f776e657220697320746865207a65726f206160008201527f6464726573730000000000000000000000000000000000000000000000000000602082015250565b6000610eb8602683610b5e565b9150610ec382610e5c565b604082019050919050565b60006020820190508181036000830152610ee781610eab565b9050919050565b7f4f776e61626c653a2063616c6c6572206973206e6f7420746865206f776e6572600082015250565b6000610f24602083610b5e565b9150610f2f82610eee565b602082019050919050565b60006020820190508181036000830152610f5381610f17565b905091905056fea26469706673582212208779ceb1c3b1a4c70d74dfb155eb93f4b1a728bbd03ad348e164162522ce3c7764736f6c63430008110033",
  "linkReferences": {},
  "deployedLinkReferences": {}
}